:020000040800F2
:1000000000000120F52B00088D2900089529000823
:100010009D290008A5290008AD290008000000005E
:10002000000000000000000000000000B5290008EA
:10003000C329000800000000D1290008DF290008BA
:10004000452C0008452C0008452C0008452C0008CC
:10005000452C0008452C0008452C0008452C0008BC
:10006000452C0008EB290008F9290008452C000858
:10007000452C0008452C0008452C0008452C00089C
:10008000452C0008452C0008452C00080000000005
:10009000000000000000000000000000072A000827
:1000A000452C0008452C0008452C0008452C00086C
:1000B0001D2A0008312A0008452C0008452C00089C
:1000C000452C0008452C0008452C0008452C00084C
:1000D000452C0008452C0008452C000800000000B5
:1000E000452C0008452C0008452C000800000000A5
:1000F000000000000000000000000000452C000887
:1001000000000000452C0008452C0008452C000884
:1001100000000000000000000000000000000000DF
:10012000452C0008452C0008452C0008452C0008EB
:10013000452C000800000000000000000000000046
:10014000000000000000000000000000452C000836
:10015000452C0008452C0008452C0008452C0008BB
:10016000452C0008452C000800000000000000009D
:10017000000000000000000000000000000000007F
:1001800000000000452C00080000000000000000F6
:04019000452C0008F2
:1001A00010B5054C237833B9044B13B10448AFF3B1
:1001B00000800123237010BD5C240020000000009B
:1001C0003097000808B5034B1BB103490348AFF350
:1001D000008008BD00000000602400203097000867
:1001E00001F0FF01102A2BDB10F0070F08D010F8E8
:1001F000013B013A8B422DD010F0070F42B3F6D1EC
:10020000F0B441EA012141EA014122F007047FF004
:1002100000070023F0E80256083C85EA010586EA5B
:10022000010685FA47F5A3FA87F586FA47F6A5FA97
:1002300087F68EB9EED1F0BC01F0FF0102F00702A3
:1002400032B110F8013B013A83EA010313B1F8D14E
:100250000020704701387047002D06BF354603382F
:10026000073815F0010F07D1013015F4807F02BF68
:10027000013015F4C03F0130F0BC0138704700BFB9
:10028000034613F8012B002AFBD1181A01387047D6
:1002900081F0004102E000BF83F0004330B54FEA37
:1002A00041044FEA430594EA050F08BF90EA020FA4
:1002B0001FBF54EA000C55EA020C7FEA645C7FEA37
:1002C000655C00F0E2804FEA5454D4EB5555B8BF5A
:1002D0006D420CDD2C4480EA020281EA030382EACB
:1002E000000083EA010180EA020281EA0303362D5D
:1002F00088BF30BD11F0004F4FEA01314FF4801C30
:100300004CEA113102D0404261EB410113F0004F41
:100310004FEA03334CEA133302D0524263EB4303F8
:1003200094EA050F00F0A780A4F10104D5F1200E96
:100330000DDB02FA0EFC22FA05F2801841F10001F1
:1003400003FA0EF2801843FA05F359410EE0A5F1C5
:1003500020050EF1200E012A03FA0EFC28BF4CF0F6
:10036000020C43FA05F3C01851EBE37101F00045AC
:1003700007D54FF0000EDCF1000C7EEB00006EEBB9
:100380000101B1F5801F1BD3B1F5001F0CD3490843
:100390005FEA30004FEA3C0C04F101044FEA44529A
:1003A00012F5800F80F09A80BCF1004F08BF5FEA21
:1003B000500C50F1000041EB045141EA050130BD01
:1003C0005FEA4C0C404141EB0101013C28BFB1F513
:1003D000801FE9D291F0000F04BF01460020B1FA5E
:1003E00081F308BF2033A3F10B03B3F120020CDA31
:1003F0000C3208DD02F1140CC2F10C0201FA0CF00F
:1004000021FA02F10CE002F11402D8BFC2F1200C73
:1004100001FA02F120FA0CFCDCBF41EA0C01904029
:10042000E41AA2BF01EB0451294330BD6FEA040472
:100430001F3C1CDA0C340EDC04F11404C4F120025D
:1004400020FA04F001FA02F340EA030021FA04F36F
:1004500045EA030130BDC4F10C04C4F1200220FAC6
:1004600002F001FA04F340EA0300294630BD21FA04
:1004700004F0294630BD94F0000F83F4801306BFCA
:1004800081F480110134013D4EE77FEA645C18BFBE
:100490007FEA655C29D094EA050F08BF90EA020F55
:1004A00005D054EA000C04BF1946104630BD91EA4D
:1004B000030F1EBF0021002030BD5FEA545C05D150
:1004C0004000494128BF41F0004130BD14F580048F
:1004D0003CBF01F5801130BD01F0004545F0FE4103
:1004E00041F470014FF0000030BD7FEA645C1ABF38
:1004F000194610467FEA655C1CBF0B46024650EA6F
:10050000013406BF52EA033591EA030F41F400219A
:1005100030BD00BF90F0000F04BF0021704730B520
:100520004FF4806404F132044FF000054FF00001F5
:1005300050E700BF90F0000F04BF0021704730B5B6
:100540004FF4806404F1320410F0004548BF40428B
:100550004FF000013EE700BF42004FEAE2014FEAE0
:1005600031014FEA02701FBF12F07F4393F07F4FBB
:1005700081F06051704732F07F4208BF704793F0BE
:100580007F4F04BF41F40021704730B54FF46074D1
:1005900001F0004521F000411CE700BF50EA0102D4
:1005A00008BF704730B54FF000050AE050EA01027D
:1005B00008BF704730B511F0004502D5404261EBED
:1005C00041014FF4806404F132045FEA915C3FF42E
:1005D000D8AE4FF003025FEADC0C18BF03325FEACB
:1005E000DC0C18BF033202EBDC02C2F1200300FA7C
:1005F00003FC20FA02F001FA03FE40EA0E0021FAA1
:1006000002F11444BDE600BF70B54FF0FF0C4CF48E
:10061000E06C1CEA11541DBF1CEA135594EA0C0F40
:1006200095EA0C0F00F0DEF82C4481EA030621EA7B
:100630004C5123EA4C5350EA013518BF52EA0335B6
:1006400041F4801143F4801338D0A0FB02CE4FF068
:100650000005E1FB02E506F00042E0FB03E54FF098
:100660000006E1FB03569CF0000F18BF4EF0010E90
:10067000A4F1FF04B6F5007F64F5407404D25FEA8C
:100680004E0E6D4146EB060642EAC62141EA55513F
:100690004FEAC52040EA5E504FEACE2EB4F1FD0C81
:1006A00088BFBCF5E06F1ED8BEF1004F08BF5FEAFF
:1006B000500E50F1000041EB045170BD06F00046B1
:1006C00046EA010140EA020081EA0301B4EB5C045E
:1006D000C2BFD4EB0C0541EA045170BD41F4801156
:1006E0004FF0000E013C00F3AB8014F1360FDEBF7B
:1006F000002001F0004170BDC4F10004203C35DA57
:100700000C341BDC04F11404C4F1200500FA05F3D9
:1007100020FA04F001FA05F240EA020001F000427A
:1007200021F0004110EBD37021FA04F642EB0601F0
:100730005EEA430E08BF20EAD37070BDC4F10C041A
:10074000C4F1200500FA04F320FA05F001FA04F2DE
:1007500040EA020001F0004110EBD37041F10001CA
:100760005EEA430E08BF20EAD37070BDC4F12005D5
:1007700000FA05F24EEA020E20FA04F301FA05F23D
:1007800043EA020321FA04F001F0004121FA04F2E5
:1007900020EA020000EBD3705EEA430E08BF20EAB5
:1007A000D37070BD94F0000F0FD101F000464000EF
:1007B00041EB010111F4801F08BF013CF7D041EA71
:1007C000060195F0000F18BF704703F00046520075
:1007D00043EB030313F4801F08BF013DF7D043EA46
:1007E0000603704794EA0C0F0CEA135518BF95EAFC
:1007F0000C0F0CD050EA410618BF52EA4306D1D183
:1008000081EA030101F000414FF0000070BD50EAA1
:10081000410606BF1046194652EA430619D094EA2B
:100820000C0F02D150EA013613D195EA0C0F05D115
:1008300052EA03361CBF104619460AD181EA030169
:1008400001F0004141F0FE4141F470014FF0000021
:1008500070BD41F0FE4141F4780170BD70B54FF0BC
:10086000FF0C4CF4E06C1CEA11541DBF1CEA13553C
:1008700094EA0C0F95EA0C0F00F0A7F8A4EB05041E
:1008800081EA030E52EA03354FEA013100F0888015
:100890004FEA03334FF0805545EA131343EA1263DE
:1008A0004FEA022245EA111545EA10654FEA002693
:1008B0000EF000419D4208BF964244F1FD0404F54C
:1008C000407402D25B084FEA3202B61A65EB0305A8
:1008D0005B084FEA32024FF480104FF4002CB6EB65
:1008E000020E75EB030E22BFB61A754640EA0C00E5
:1008F0005B084FEA3202B6EB020E75EB030E22BF25
:10090000B61A754640EA5C005B084FEA3202B6EB65
:10091000020E75EB030E22BFB61A754640EA9C0024
:100920005B084FEA3202B6EB020E75EB030E22BFF4
:10093000B61A754640EADC0055EA060E18D04FEAB2
:10094000051545EA16754FEA06164FEAC30343EA52
:1009500052734FEAC2025FEA1C1CC0D111F4801F1F
:100960000BD141EA00014FF000004FF0004CB6E718
:1009700011F4801F04BF01430020B4F1FD0C88BFB7
:10098000BCF5E06F3FF6AFAEB5EB030C04BFB6EBC2
:10099000020C5FEA500C50F1000041EB045170BDB5
:1009A0000EF0004E4EEA113114EB5C04C2BFD4EBE2
:1009B0000C0541EA045170BD41F480114FF0000E66
:1009C000013C90E645EA060E8DE60CEA135594EAE2
:1009D0000C0F08BF95EA0C0F3FF43BAF94EA0C0FE5
:1009E0000AD150EA01347FF434AF95EA0C0F7FF45A
:1009F00025AF104619462CE795EA0C0F06D152EAAE
:100A000003353FF4FDAE1046194622E750EA410691
:100A100018BF52EA43067FF4C5AE50EA41047FF4A2
:100A20000DAF52EA43057FF4EBAE12E74FF0FF3C07
:100A300006E000BF4FF0010C02E000BF4FF0010CD8
:100A40004DF804CD4FEA410C7FEA6C5C4FEA430C51
:100A500018BF7FEA6C5C1BD001B050EA410C0CBFA0
:100A600052EA430C91EA030F02BF90EA020F002002
:100A7000704710F1000F91EA030F58BF994208BF69
:100A800090422CBFD8176FEAE37040F00100704726
:100A90004FEA410C7FEA6C5C02D150EA013C07D17D
:100AA0004FEA430C7FEA6C5CD6D152EA033CD3D0C8
:100AB0005DF8040B704700BF8446104662468C46C2
:100AC0001946634600E000BF01B5FFF7B7FF0028F5
:100AD00048BF10F1000F01BD4DF808EDFFF7F4FF1E
:100AE0000CBF012000205DF808FB00BF4DF808EDA9
:100AF000FFF7EAFF34BF012000205DF808FB00BFCC
:100B00004DF808EDFFF7E0FF94BF012000205DF8ED
:100B100008FB00BF4DF808EDFFF7CEFF94BF0120A2
:100B200000205DF808FB00BF4DF808EDFFF7C4FF9B
:100B300034BF012000205DF808FB00BF4FEA410CE4
:100B40007FEA6C5C02D150EA013C0AD14FEA430CC7
:100B50007FEA6C5C02D152EA033C02D14FF0000004
:100B600070474FF0010070474FEA410212F5001242
:100B700015D211D56FF47873B3EB625212D94FEAE4
:100B8000C12343F0004343EA505311F0004F23FACE
:100B900002F018BF404270474FF00000704750EA23
:100BA000013005D111F0004008BF6FF000407047E0
:100BB0004FF00000704700BF4FEA4102B2F1E0433E
:100BC00024BFB3F5001CDCF1FE5C0DD901F0004C34
:100BD0004FEAC0024CEA5070B2F1004F40EB830084
:100BE00008BF20F00100704711F0804F21D113F1B0
:100BF0003872BCBF01F00040704741F480114FEAE9
:100C00005252C2F11802C2F1200C10FA0CF320FA71
:100C100002F018BF40F001004FEAC1234FEAD3238E
:100C200003FA0CFC40EA0C0023FA02F34FEA4303F8
:100C3000CCE77FEA625307D150EA01331EBF4FF081
:100C4000FE4040F44000704701F0004040F0FE409C
:100C500040F40000704700BF53B94AB9002908BFEB
:100C600000281CBF4FF0FF314FF0FF3000F06AB991
:100C7000ADF1080C6DE904CE00F006F8DDF804E0F3
:100C8000DDE9022304B070472DE9F047089D0C46CA
:100C9000002B4ED194468C458646B2FA82F262D938
:100CA0004AB1C2F12003914020FA03F30CFA02FC8E
:100CB000194300FA02FE4FEA1C471FFA8CF6B1FBFB
:100CC000F7F44FEA1E4307FB141143EA014304FB08
:100CD00006F199420AD91CEB030304F1FF3080F0BE
:100CE0001281994240F20F81023C6344591A1FFA63
:100CF0008EF3B1FBF7F007FB101143EA014300FB51
:100D000006F69E420AD91CEB030300F1FF3180F086
:100D1000FC809E4240F2F980634402389B1B40EA0B
:100D2000044000211DB1D3400022C5E90032BDE8D6
:100D3000F0878B4205D90DB1C5E9000100210846B5
:100D4000F5E7B3FA83F1002946D1A34202D39042DA
:100D5000C0F0F080861A64EB03030120002DE6D07A
:100D6000C5E90063E3E7002A40F09080A1EB0C04A2
:100D70004FEA1C481FFA8CF70121B4FBF8F64FEA42
:100D80001E4308FB164443EA044307FB06F098425F
:100D900008D91CEB030306F1FF3402D2984200F29B
:100DA000CD8026461C1A1FFA8EF3B4FBF8F008FB20
:100DB000104443EA044300FB07F79F4208D91CEBA9
:100DC000030300F1FF3402D29F4200F2B0802046BC
:100DD000DB1B40EA0640A5E7C1F120068B4022FA62
:100DE00006F71F4320FA06FC04FA01F343EA0C035A
:100DF000F44000FA01F8380C4FEA1349B4FBF0FE56
:100E00001FFA87FC00FB1E4449EA04440EFB0CF960
:100E1000A14502FA01F20AD93C190EF1FF3A80F01D
:100E20008480A14540F28180AEF1020E3C44A4EBE7
:100E300009041FFA83F9B4FBF0F300FB134449EAF9
:100E4000044403FB0CFCA44507D93C1903F1FF3013
:100E500067D2A44565D9023B3C4443EA0E40A0FB5F
:100E60000293A4EB0C049C42CE469C4651D34ED038
:100E700055B1B8EB0E0364EB0C0404FA06F6CB4054
:100E80001E43CC40C5E90064002150E7C2F12003B5
:100E900020FA03F10CFA02FC24FA03F394400C4309
:100EA0004FEA1C4800FA02FE1FFA8CF7B3FBF8F079
:100EB00008FB1031230C43EA014300FB07F1994280
:100EC00008D91CEB030300F1FF362CD299422AD932
:100ED000023863445B1AA4B2B3FBF8F108FB113388
:100EE00044EA034401FB07F3A34208D91CEB0404C2
:100EF00001F1FF3613D2A34211D902396444E41A36
:100F000041EA004139E70446F0E6084606E7C845ED
:100F1000AED2B9EB020E63EB070C0138A8E73146FD
:100F2000EDE7034699E73046D4E7D6467FE76344CA
:100F300002384DE70646234608460FE7023E634463
:100F400030E700BF704700BF90B585B002AF0446E0
:100F5000084611461A462346FB800346BB800B46D3
:100F60007B8013463B80F888B9887A883C883B8B25
:100F70000093234600F08CFA00BF0C37BD4690BDAD
:100F800080B584B002AF0346FB80084BB3F9002064
:100F9000074BB3F90010FB8800930B46002100209B
:100FA000FFF7D2FF00BF0837BD4680BD7824002080
:100FB0007A24002080B500AF00224FF4007102486F
:100FC00002F034FD00BF80BD0000024080B500AFDC
:100FD00001224FF40071024802F028FD00BF80BDDD
:100FE0000000024080B500AF00224FF48051074856
:100FF00002F01CFD052001F099FE01224FF4805102
:10100000024802F013FD00BF80BD00BF0004024093
:1010100080B582B000AF0346FB7100224FF48041DF
:10102000064802F003FDF91D4FF0FF33012204488A
:1010300004F01FFA00BF0837BD4680BD000402401F
:101040007826002080B582B000AF78603960012238
:101050004FF48041074802F0E9FC3B689AB24FF038
:10106000FF337968044804F004FA00BF0837BD462E
:1010700080BD00BF000402407826002080B584B007
:1010800000AF78607B685A1C7A601B78FB7334E091
:101090007B685A1C7A601B78FB72FB7A1846FFF754
:1010A000B7FF7B685A1C7A601B78BB72BB7A9BB215
:1010B00003F08003BB81BB7A03F07F03BB72BB7A72
:1010C000002B08D0BB7A19467868FFF7BBFFBB7AC4
:1010D0007A6813447B60BB89002B0ED07B685A1C56
:1010E0007A601B78BB81BB89FF2B02D14FF4FA7366
:1010F000BB81BB89184601F019FEFB7B5A1EFA73AF
:10110000002BC5D100BF00BF1037BD4680BD000019
:1011100090B585B000AF0446084611461A462346EE
:10112000FB710346BB710B467B7113463B712A2052
:10113000FFF76EFF00233B73174B1A78FB791344BC
:10114000DBB27B730023BB73134B1A787B79134498
:10115000DBB2FB7307F10C0304211846FFF772FFA3
:101160002B20FFF755FF0D4B1A78BB791344DBB2E8
:101170007B730A4B1A783B791344DBB2FB7307F19C
:101180000C0304211846FFF75DFF2C20FFF740FFFA
:1011900000BF1437BD4690BD7F240020802400206E
:1011A00080B582B000AF0346FB71FFF703FFFFF786
:1011B00019FF0C48FFF762FF0B48FFF75FFF0B4872
:1011C000FFF75CFF0A4B00221A700A4B00221A70CC
:1011D000FB79184600F010F8FFF7F8FE00BF08375B
:1011E000BD4680BD68970008A0970008B09700082A
:1011F0007D2400207E24002080B584B000AF03460B
:10120000FB710023FB73FB7903F00303DAB2334B6A
:101210001A70324B1B78032B4ED801A252F823F0E0
:1012200031120008531200087512000897120008C6
:10123000C823FB732A4BA0221A802A4B80221A80D3
:10124000294B1A78294B1A70294B1A78294B1A7096
:1012500032E0A823FB73234BA0221A80204B80226C
:101260001A80214B1A78234B1A70214B1A781F4B86
:101270001A7021E00823FB73194BA0221A80194B26
:1012800080221A80184B1A78184B1A70184B1A784B
:10129000184B1A7010E06823FB73124BA0221A80BF
:1012A0000F4B80221A80104B1A78124B1A70104B79
:1012B0001A780E4B1A7000BFFFF77CFE3620FFF73E
:1012C000A7FE07F10F0301211846FFF7BBFEFFF74A
:1012D0007DFE00BF1037BD4680BD00BF7C240020CE
:1012E0007A240020782400207D2400207F24002000
:1012F0007E2400208024002082B090B589B000AF09
:101300007B630346FB800B46BB801346FB70FB8868
:10131000D8B2BB88D9B2FB88DAB297F8343013441C
:10132000DBB2013BDCB2BB88DAB297F8353013444C
:10133000DBB2013BDBB22246FFF7EAFE0023FB6192
:1013400043E0BA6BFB78203B97F8351001FB03F3C1
:101350001946FB690B445B0013441B887B61002327
:10136000BB6129E07A69BB6902FA03F303F4004325
:10137000002B0ED0BB8F1B0A9BB2DBB23B74BB8F22
:10138000DBB27B7407F1100302211846FFF75AFE07
:101390000FE0B7F840301B0A9BB2DBB23B73B7F8E3
:1013A0004030DBB27B7307F10C0302211846FFF7D4
:1013B00049FEBB690133BB6197F834301A46BB69FB
:1013C0009342CFD3FB690133FB6197F835301A465E
:1013D000FB699342B5D300BF00BF2437BD46BDE8CB
:1013E000904002B07047000082B080B586B004AF74
:1013F0003A607B610346FB800B46BB80FFF7DAFD5A
:1014000033E0FB883A7D13441F4AB2F9002093422F
:1014100016DB0023FB807B7D1A46BB881344BB8010
:10142000BB887A7D1344194AB2F90020934221DA2D
:101430003B681B78202B03D13B6801333B6014E0F1
:101440003B681A78B988F8883B8C0293BB8B019370
:10145000BB6900937B69FFF74FFF3B7D1A46FB8812
:101460001344FB803B6801333B603B681B78002BD7
:10147000C7D100E000BFFFF7A9FD00BF0837BD4698
:10148000BDE8804002B07047782400207A24002014
:1014900090B585B000AF0446084611461A4623466B
:1014A000FB800346BB800B467B8013463B80FB885A
:1014B000384AB2F90020934267DABB88364AB2F95B
:1014C0000020934261DAFA887B881344314AB2F9EA
:1014D0000020934206DD2F4BB3F900309AB2FB880F
:1014E000D31A7B80BA883B8813442B4AB2F9002078
:1014F000934206DD284BB3F900309AB2BB88D31A69
:101500003B80FFF757FDFB88D8B2BB88D9B2FB8878
:10151000DAB27B88DBB21344DBB2013BDCB2BB88BE
:10152000DAB23B88DBB21344DBB2013BDBB22246CA
:10153000FFF7EEFD3B8C1B0A9BB2DBB23B733B8C8F
:10154000DBB27B7301224FF48041144802F06EFA43
:101550003B88BB8013E07B88FB800AE007F10C012D
:101560004FF0FF3302220E4803F083FFFB88013B5C
:10157000FB80FB88002BF1D1BB88013BBB80BB8883
:10158000002BE8D1FFF722FD00E000BF1437BD4675
:1015900090BD00BF782400207A240020000402407F
:1015A0007826002090B587B000AF04460846114663
:1015B0001A462346FB800346BB800B467B801346BE
:1015C0003B80FB883B4AB2F9002093426EDABB882D
:1015D000394AB2F90020934268DAFA887B881344CA
:1015E000344AB2F90020934206DD324BB3F90030A1
:1015F0009AB2FB88D31A7B80BA883B8813442E4A60
:10160000B2F90020934206DD2B4BB3F900309AB2B9
:10161000BB88D31A3B80FFF7CDFCFB88D8B2BB88D0
:10162000D9B2FB88DAB27B88DBB21344DBB2013B70
:10163000DCB2BB88DAB23B88DBB21344DBB2013BDD
:10164000DBB22246FFF764FD01224FF480411B48C4
:1016500002F0ECF97B883A8802FB03F33B6100233C
:101660007B611CE07B695B00BA6A13441B881B0A20
:101670009BB2FB737B695B00BA6A13441B88BB7324
:10168000FB7B3B73BB7B7B7307F10C014FF0FF339C
:1016900002220B4803F0EDFE7B6901337B617A691E
:1016A0003B699A42DED3FFF791FC00E000BF1C3794
:1016B000BD4690BD782400207A240020000402401A
:1016C0007826002080B586B000AF786007F1080367
:1016D00000221A605A609A60DA607B68BB6001235E
:1016E000FB6007233B6107F108031946054801F039
:1016F000D1FC0346002B01D000F052FF00BF183789
:10170000BD4680BDB024002080B58CB004AF01F090
:101710009BFA00F0DDF900F053FC00F043FA00F012
:10172000B3FB00F00DFB00F077FA00F0FBFB00F0DC
:10173000A1FA00F0CDFA0320FFF732FDA94B1B8878
:10174000BB820023BB750023BB7700237B77A54BAF
:101750001B883B820023BB74A24B1B88BB810023E8
:10176000BB73A04B1B883B810023BB720023FB771C
:1017700043F69F137B837B8B1B0A9BB2DBB23B71CF
:101780007B8BDBB27B714FF0FF330293022301931B
:101790003B1D0093012300228021934802F0BCFAF4
:1017A00000F044FE0346032B00F2848101A252F8AC
:1017B00023F000BFC5170008CD170008611A000804
:1017C000CD170008002000F0D9FE76E1012000F0DE
:1017D000D5FEFB7F002B45D1844B00938023A022B4
:1017E00000210020FFF7DEFE4FF47A6001F09EFA40
:1017F0000020FFF7C5FB7E4804F0AAF87D4B00935C
:1018000017232A2217217520FFF7CCFE7A4B0022DE
:1018100002924FF6FF7201925A6800921B68774A53
:101820001A210520FFF7E0FD754B002202924FF6CA
:10183000FF7201925A6800921B68724A412105208A
:10184000FFF7D2FD6E4B002202924FF6FF7201921B
:101850005A6800921B686C4A41215F20FFF7C4FD63
:101860000123FB77694B00221A70694B00221A7022
:10187000684B00221A700320FFF7BEFC00221021E3
:10188000654802F0D3F800222021634802F0CEF828
:101890000021624804F0F6F9554804F0BBF86048AE
:1018A00004F0B8F800F078FD5E4800F0C9FC5E4B2B
:1018B0001B781A465D4B33F812205D4B1A805A4B49
:1018C0009B785C4A9B0013441B685B4A1360564B31
:1018D0005B781A46594B9A5C594B1A70584B1B78D7
:1018E000012B08D1574B0093212321221B213F209C
:1018F000FFF758FE0BE0524B1B78002B07D1524BE1
:101900000093212321221B213F20FFF74BFE484B50
:101910001B88184607F110030A22194605F07CF8C7
:10192000354B07F1100100220292002201925A6801
:1019300000921B680A4655210520FFF755FD2E4BE6
:1019400007F11001002202924FF6FF7201925A68CD
:1019500000921B680A4655210520FFF745FD364BCE
:101960001B681846FEF7F8FD02460B4607F10C000F
:10197000364905F0AFFD204B07F10C010022029221
:101980004FF6FF7201925A6800921B680A46552171
:101990005F20FFF729FD2E4B1B78012B08D12D4B23
:1019A00000931423142250213C20FFF7FBFD83E019
:1019B000274B1B78022B08D1274B009314231422AA
:1019C00050213C20FFF7EEFD76E0214B1B78032BE6
:1019D00072D1224B00931423142250213C20FFF794
:1019E000E1FD69E0649700084C250020A4AC0008E4
:1019F000E8250020940000200800002048970008F7
:101A0000000000204C97000854970008A1240020F3
:101A1000A2240020A324002000040240A0250020CE
:101A2000302600208C2400209C2400201800002058
:101A3000A424002044000020A8240020400000200E
:101A4000A624002020080020A41000206097000891
:101A5000AF240020481C0020681F00202819002007
:101A600000F092FB4FF0FF330293022301933B46B9
:101A70000093012301228021134802F047FA3B78AA
:101A80001B021AB27B781BB213433B83B7F91830A1
:101A90001846FEF74FFD0AA3D3E90023FEF7B4FD75
:101AA00002460B4610461946FFF786F80346074ADA
:101AB000136002E000BF73E600BF71E6AFF3008081
:101AC000FCA9F1D24D62503F4C2500208824002013
:101AD00080B594B000AF07F12003302200211846F2
:101AE00005F05BFD07F10C0300221A605A609A6052
:101AF000DA601A610023BB60284B1B6C274A43F055
:101B000080531364254B1B6C03F08053BB60BB6890
:101B100000237B60224B1B6823F44043204A43F49C
:101B2000004313601E4B1B6803F440437B607B68DB
:101B300002233B620123FB6210233B630223BB634E
:101B40000023FB6308233B6454237B640223BB64B0
:101B50000423FB6407F12003184602F0BDFF03468F
:101B6000002B01D000F01CFD0F23FB6002233B6122
:101B700000237B614FF48053BB610023FB6107F1BD
:101B80000C030221184603F01FFA0346002B01D074
:101B900000F006FD00BF5037BD4680BD0038024052
:101BA0000070004080B500AF184B194A1A60174BFF
:101BB0004FF480325A60154B00229A60134B00227A
:101BC0001A61124B00221A76104B002283F8202053
:101BD0000E4B0022DA620D4B0E4A9A620B4B00222A
:101BE000DA600A4B0122DA61084B002283F83020C8
:101BF000064B01225A61054801F0BCF80346002B50
:101C000001D000F0CDFC00BF80BD00BFB02400209B
:101C1000002001400100000F80B500AF124B134AB5
:101C20001A60114B124A5A600F4B00229A600E4BF9
:101C30000022DA600C4B4FF480421A610A4B0022FA
:101C40005A61094B00229A61074B0022DA61064B68
:101C500000221A62044801F01BFF0346002B01D04A
:101C600000F09EFC00BF80BDF8240020005400401E
:101C7000801A060080B500AF124B134A1A60114B50
:101C8000124A5A600F4B00229A600E4B0022DA6013
:101C90000C4B4FF480421A610A4B00225A61094BE7
:101CA00000229A61074B0022DA61064B00221A6279
:101CB000044801F0EDFE0346002B01D000F070FC5B
:101CC00000BF80BD4C25002000580040801A06004F
:101CD00080B500AF184B194A1A60174B4FF4827247
:101CE0005A60154B4FF400429A60134B0022DA60A1
:101CF000114B00221A61104B00225A610E4B4FF417
:101D000000729A610C4B0022DA610B4B00221A62BE
:101D1000094B00225A62084B00229A62064B0A22A3
:101D2000DA62054803F01CFB0346002B01D000F0EB
:101D300037FC00BF80BD00BF78260020003800407F
:101D400080B596B000AF07F1480300221A605A60D0
:101D50009A60DA6007F1400300221A605A6007F1C6
:101D6000240300221A605A609A60DA601A615A618C
:101D70009A613B1D20220021184605F00EFC3F4BC6
:101D80003F4A1A603D4B4FF452725A603B4B00225F
:101D90009A603A4B4FF47A72DA60384B00221A613B
:101DA000364B00225A61354B80229A61334803F04A
:101DB0007FFD0346002B01D000F0F2FB4FF480536F
:101DC000BB6407F1480319462C4804F071F9034637
:101DD000002B01D000F0E4FB284803F04AFE034644
:101DE000002B01D000F0DCFB00233B6400237B646C
:101DF00007F140031946214804F022FD0346002B59
:101E000001D000F0CDFB60237B621E4B1B78BB62D0
:101E10000023FB6200233B6300237B630023BB633F
:101E20000023FB6307F1240300221946134804F042
:101E30007DF80346002B01D000F0B2FB00237B604D
:101E40000023BB600023FB6000233B6100237B6118
:101E50004FF40053BB6100233B623B1D194607480A
:101E600004F05CFD0346002B01D000F099FB034811
:101E700000F052FD00BF5837BD4680BDA0250020B0
:101E8000000001401100002080B586B000AF07F1CE
:101E9000080300221A605A609A60DA603B4600220A
:101EA0001A605A601E4B4FF080421A601C4B42F27F
:101EB000CF025A601A4B00229A60194B40F2F3127B
:101EC000DA60174B00221A61154B80229A61144880
:101ED00003F0EEFC0346002B01D000F061FB4FF451
:101EE0008053BB6007F1080319460D4804F0E0F881
:101EF0000346002B01D000F053FB00233B6000237E
:101F00007B603B461946064804F09AFC0346002BCA
:101F100001D000F045FB00BF1837BD4680BD00BFB3
:101F2000E825002080B586B000AF07F10803002245
:101F30001A605A609A60DA603B4600221A605A6062
:101F40001D4B1E4A1A601C4B42F2CF025A601A4BBC
:101F500000229A60184B0922DA60174B00221A619E
:101F6000154B80229A61144803F0A2FC0346002B13
:101F700001D000F015FB4FF48053BB6007F108035C
:101F800019460D4804F094F80346002B01D000F0E8
:101F900007FB00233B6000237B603B461946064855
:101FA00004F04EFC0346002B01D000F0F9FA00BF0C
:101FB0001837BD4680BD00BF302600200004004019
:101FC00080B588B000AF07F10C0300221A605A6098
:101FD0009A60DA601A610023BB60384B1B6B374A8A
:101FE00043F080031363354B1B6B03F08003BB602E
:101FF000BB6800237B60314B1B6B304A43F001030D
:1020000013632E4B1B6B03F001037B607B68002383
:102010003B602A4B1B6B294A43F002031363274B97
:102020001B6B03F002033B603B6800224FF4D0615E
:10203000234801F0FBFC002245F23001214801F069
:10204000F5FC7823FB6000233B6101237B610023C7
:10205000BB6107F10C031946194801F04BFB4FF423
:10206000D063FB6001233B6100237B610023BB61E4
:1020700007F10C031946124801F03CFB0223FB60F8
:1020800000233B6100237B6107F10C0319460D48D7
:1020900001F030FB45F23003FB6001233B6100237C
:1020A0007B610023BB6107F10C031946054801F071
:1020B00021FB00BF2037BD4680BD00BF0038024075
:1020C0000000024000040240B0B584B000AF786068
:1020D0007B681B68B3F1804F2FD10120FFF7F2FA24
:1020E0001D4800F08BFE14211B4800F03BFF1A48EE
:1020F00000F0C3FF0346FB81FB891846FEF71AFA7E
:102100004FF00002154BFEF7A9FB02460B461446A2
:102110001D46134B1B781846FEF70CFA02460B4679
:1021200020462946FEF770FA02460B46104619462D
:10213000FEF742FD03460B4A13607B681B680A4AA0
:10214000934204D1094B1B680133084A136000BF56
:102150001037BD46B0BD00BFB02400200000B04025
:10216000100000208424002000040040902400205F
:1021700080B483B000AF0346FB8000BF0C37BD4680
:102180005DF8047B7047000080B500AF234B1B78DF
:10219000234A1288D2B21146184600F09BF9214B0F
:1021A00093ED007A204BD3ED007AB4EEE77AF1EEAE
:1021B00010FA03DA1D4B1B78012B28D11C4B1B682E
:1021C00040F6B832934214D81A4803F0C1FB174BBB
:1021D00001221A70184B1B78002B06D10F4B1A786E
:1021E000164B1A70144B01221A700C4B00221A70F5
:1021F00012E0104803F00EFC0C4B00221A700F4B3B
:102200001A78064B1A700A4B00221A6004E00B4B36
:102210001A78024B1A7000BF00BF80BDA6240020B0
:10222000A424002088240020A8240020AC2400201E
:102230009024002030260020A324002091000020BC
:1022400080B483B000AF78607B681B78012B15D118
:10225000334B01221A70334B03221A70324B1B7816
:102260000133DAB2304B1A702F4B1B78042B02D19A
:102270002D4B01221A707B6800221A70294B1B78A3
:10228000032B46D17B6801331B78012B1ED1264BD3
:102290001B78013B254AD25C0132D1B2234AD1548A
:1022A000214B1B78013B214AD25C1F4B1B78013B21
:1022B0001F49CB5C9A4205D11B4B1B78013B1B4A43
:1022C0000021D1547B68013300221A707B680233ED
:1022D0001B78012B1DD1144B1B78013B134AD35C97
:1022E000002B09D1104B1B785A1E0F4B1B78013B5A
:1022F0000F49895C0D4AD1540B4B1B78013B0B4AAB
:10230000D25C013AD1B2094AD1547B68023300222F
:102310001A7000BF0C37BD465DF8047B704700BFE4
:10232000AE240020AD240020AF2400209C240020F7
:102330008C00002080B58AB000AF786007F10C03F4
:1023400000221A605A609A60DA601A615A619A61D2
:102350006023FB607B683B6100237B610023BB61E2
:102360000023FB6100233B6200237B6207F10C0327
:1023700000221946074803F0D9FD0346002B01D07F
:1023800000F00EF90021034803F0CCFB00BF283712
:10239000BD4680BDA025002080B582B000AF00F012
:1023A000B9FC03461C4A13600023FB712CE01A4B56
:1023B0001B68FA7919498A5C9B1AB3F5967F20D974
:1023C000154B1A68FB79D1B2144AD154FB79144ADF
:1023D000D35C1946134801F011FB0346002B10D1C2
:1023E000FB79114A0121D154FB790D4AD35C19467E
:1023F0000C4801F003FB0346012B00D0F4E700BFBB
:1024000006E0FB790133FB71FB79022BCFD900BFCA
:1024100000BF0837BD4680BD9824002094240020CA
:1024200014000020000002408C24002080B500AF82
:1024300000F070FC0346204A13601F4B1B681F4AC4
:10244000D2789B1AB3F5967F31D91B4B1B68DAB251
:102450001A4BDA701A4BDB7819461A4801F0CEFA9B
:102460000346002B23D1184B0122DA70144BDB7882
:102470001946144801F0C2FA0346012BF6D1134B5A
:102480001B78022B03D1114B00221A7009E00F4B6D
:102490001B78032B05D10D4B00221A700C4B002228
:1024A0001A700A4B1B780133DAB2084B1A70074BCB
:1024B0001B78184680BD00BF98240020942400207B
:1024C00014000020000002408C240020AD240020D5
:1024D000AF24002080B582B000AF03460A46FB71EE
:1024E0001346BB71FB79022B06D0022B3DDC002B7F
:1024F00028D0012B13D038E0BB791846FFF71AFF1C
:1025000000211C4803F0BEFB002210211A4801F0F4
:102510008DFA00222021184801F088FA26E0BB79C4
:102520001846FFF707FF0021124803F0FBFA0122CB
:102530001021114801F07AFA002220210E4801F002
:1025400075FA13E0BB791846FFF7F4FE002109483D
:1025500003F0E8FA00221021074801F067FA01228F
:102560002021054801F062FA00E000BF00BF0837F3
:10257000BD4680BDA02500200004024080B582B089
:1025800000AF0346FB71FB791A464FF480610348A4
:1025900001F04CFA00BF0837BD4680BD0000024084
:1025A00080B400AF72B600BF00BFFDE780B483B057
:1025B00000AF00237B60104B5B6C0F4A43F48043F9
:1025C00053640D4B5B6C03F480437B607B6800239A
:1025D0003B60094B1B6C084A43F080531364064B65
:1025E0001B6C03F080533B603B6800BF0C37BD465B
:1025F0005DF8047B704700BF0038024080B58AB0A8
:1026000000AF786007F1140300221A605A609A60E4
:10261000DA601A617B681B68244A934241D1002327
:102620003B61234B5B6C224A43F480735364204B21
:102630005B6C03F480733B613B690023FB601C4BC4
:102640001B6B1B4A43F001031363194B1B6B03F015
:102650000103FB60FB680023BB60154B1B6B144A36
:1026600043F002031363124B1B6B03F00203BB60C6
:10267000BB6802237B610323BB610023FB6107F17D
:10268000140319460B4801F035F801237B6103233D
:10269000BB610023FB6107F114031946064801F0F2
:1026A00029F800BF2837BD4680BD00BF002001408B
:1026B00000380240000002400004024080B58CB0A7
:1026C00000AF786007F11C0300221A605A609A601C
:1026D000DA601A617B681B683A4A93422CD1002366
:1026E000BB61394B1B6B384A43F002031363364B13
:1026F0001B6B03F00203BB61BB69C023FB611223A8
:102700003B6200237B620323BB620423FB6207F16D
:102710001C0319462D4800F0EDFF00237B612A4B76
:102720001B6C294A43F400131364274B1B6C03F4FE
:1027300000137B617B6941E07B681B68244A9342FC
:102740003CD100233B61204B1B6B1F4A43F002032B
:1027500013631D4B1B6B03F002033B613B694FF49A
:102760008063FB6112233B6200237B620323BB6215
:102770000423FB6207F11C031946144800F0BAFF5A
:102780000823FB6112233B6200237B620323BB62AD
:102790000923FB6207F11C0319460C4800F0AAFF4D
:1027A0000023FB60084B1B6C074A43F4800313644F
:1027B000054B1B6C03F48003FB60FB6800BF3037E4
:1027C000BD4680BD00540040003802400004024075
:1027D0000058004080B58AB000AF786007F114035C
:1027E00000221A605A609A60DA601A617B681B687E
:1027F000194A93422CD100233B61184B1B6C174A9A
:1028000043F480431364154B1B6C03F480433B611A
:102810003B690023FB60114B1B6B104A43F0020322
:1028200013630E4B1B6B03F00203FB60FB684FF45A
:1028300020437B610223BB610023FB6103233B62D6
:1028400005237B6207F114031946054800F052FF87
:1028500000BF2837BD4680BD003800400038024028
:102860000004024080B586B000AF78607B681B68CA
:10287000264A93420ED100237B61254B5B6C244A90
:1028800043F001035364224B5B6C03F001037B6153
:102890007B6936E07B681B68B3F1804F16D100235B
:1028A0003B611B4B1B6C1A4A43F001031364184B2A
:1028B0001B6C03F001033B613B69002200211C20DB
:1028C00000F0E1FE1C2000F0FAFE1AE07B681B68B5
:1028D000104A934215D10023FB600D4B1B6C0C4A30
:1028E00043F0020313640A4B1B6C03F00203FB600A
:1028F000FB68002200211D2000F0C5FE1D2000F015
:10290000DEFE00BF1837BD4680BD00BF000001409D
:10291000003802400004004080B588B000AF786005
:1029200007F10C0300221A605A609A60DA601A619B
:102930007B681B68124A93421ED10023BB60114B77
:102940001B6B104A43F0010313630E4B1B6B03F028
:102950000103BB60BB684FF48073FB6002233B61E3
:1029600000237B610023BB610123FB6107F10C03A2
:102970001946054800F0BEFE00BF2037BD4680BDA9
:1029800000000140003802400000024080B400AF67
:1029900000BFFDE780B400AF00BFFDE780B400AF2B
:1029A00000BFFDE780B400AF00BFFDE780B400AF1B
:1029B00000BFFDE780B400AF00BFBD465DF8047BFB
:1029C000704780B400AF00BFBD465DF8047B704720
:1029D00080B400AF00BFBD465DF8047B704780B592
:1029E00000AF00F083F900BF80BD80B500AF0820C4
:1029F00001F036F800BF80BD80B500AF102001F0B7
:102A00002FF800BF80BD80B500AF202001F028F86E
:102A1000402001F025F800BF80BD000080B500AF68
:102A2000024803F093F900BF80BD00BFE8250020F5
:102A300080B500AF024803F089F900BF80BD00BF38
:102A40003026002080B400AF01231846BD465DF853
:102A5000047B704780B582B000AF7860396004F0C5
:102A6000EFFD034616221A604FF0FF331846083771
:102A7000BD4680BD80B582B000AF78604FF0FF31B9
:102A80007868FFF7E7FF00BFFDE780B586B000AFCD
:102A9000F860B9607A6000237B610AE0AFF30080E0
:102AA0000146BB685A1CBA60CAB21A707B6901330E
:102AB0007B617A697B689A42F0DB7B68184618373D
:102AC000BD4680BD80B586B000AFF860B9607A6061
:102AD00000237B6109E0BB685A1CBA601B7818466A
:102AE000AFF300807B6901337B617A697B689A422E
:102AF000F1DB7B6818461837BD4680BD80B483B0D3
:102B000000AF78604FF0FF3318460C37BD465DF8D4
:102B1000047B704780B483B000AF786039603B6855
:102B20004FF400525A60002318460C37BD465DF83A
:102B3000047B704780B483B000AF786001231846EF
:102B40000C37BD465DF8047B704780B485B000AF9C
:102B5000F860B9607A60002318461437BD465DF806
:102B6000047B704780B586B000AF7860144A154B7F
:102B7000D31A7B617B693B61134B1B68002B02D12D
:102B8000114B124A1A60104B1A687B6813443A6959
:102B90009A4207D204F054FD03460C221A604FF00B
:102BA000FF3309E0084B1B68FB60074B1A687B6822
:102BB0001344054A1360FB6818461837BD4680BDAC
:102BC0000000012000040000D0260020282800205A
:102BD00080B400AF064BD3F88830054A43F4700345
:102BE000C2F8883000BFBD465DF8047B704700BF67
:102BF00000ED00E0DFF834D0FFF7EAFF0C480D49A4
:102C00000D4A002302E0D458C4500433C4188C4247
:102C1000F9D30A4A0A4C002301E013600432A242AD
:102C2000FBD304F013FDFEF76FFD70470000012099
:102C3000000000205C240020605001085C2400207B
:102C400024280020FEE7000080B500AF0E4B1B6873
:102C50000D4A43F4007313600B4B1B680A4A43F49C
:102C600080631360084B1B68074A43F4807313604A
:102C7000032000F0FDFC0F2000F008F8FFF796FCA1
:102C80000023184680BD00BF003C024080B582B0E2
:102C900000AF7860124B1A68124B1B7819464FF43C
:102CA0007A73B3FBF1F3B2FBF3F3184600F015FDB2
:102CB0000346002B01D001230EE07B680F2B0AD8BE
:102CC000002279684FF0FF3000F0DDFC064A7B6897
:102CD0001360002300E0012318460837BD4680BD7D
:102CE00088220020902200208C22002080B400AF97
:102CF000064B1B781A46064B1B681344044A1360A4
:102D000000BFBD465DF8047B704700BF90220020E5
:102D1000D426002080B400AF034B1B681846BD4684
:102D20005DF8047B704700BFD426002080B584B0D6
:102D300000AF7860FFF7EEFFB8607B68FB60FB6870
:102D4000B3F1FF3F05D00A4B1B781A46FB681344CA
:102D5000FB6000BFFFF7DEFF0246BB68D31AFA68CC
:102D60009A42F7D800BF00BF1037BD4680BD00BFF4
:102D70009022002080B584B000AF78600023FB7300
:102D80007B68002B01D1012333E07B681B6C002B97
:102D900009D17868FFF732FC7B6800225A647B68AF
:102DA000002283F83C207B681B6C03F01003002B8F
:102DB00018D17B681B6C23F4885323F0020343F083
:102DC00002027B681A64786800F086FA7B68002249
:102DD0005A647B681B6C23F0030343F001027B6899
:102DE0001A6401E00123FB737B68002283F83C2016
:102DF000FB7B18461037BD4680BD000080B485B00F
:102E000000AF78600023BB607B6893F83C30012BF7
:102E100001D1022397E07B68012283F83C207B6884
:102E20001B689B6803F00103012B18D07B681B68AB
:102E30009A687B681B6842F001029A60454B1B68E8
:102E4000454AA2FB03239A0C13465B001344BB6064
:102E500002E0BB68013BBB60BB68002BF9D17B681B
:102E60001B689B6803F00103012B5FD17B681B6C1F
:102E700023F4E06323F0010343F480727B681A6457
:102E80007B681B685B6803F48063002B07D07B685A
:102E90001B6C23F4405343F480527B681A647B68B4
:102EA0001B6C03F48053B3F5805F06D17B685B6CC9
:102EB00023F006027B685A6402E07B6800225A64B1
:102EC0007B68002283F83C20244BFB607B681B68F6
:102ED0006FF022021A60FB685B6803F01F03002B8F
:102EE0000FD17B681B689B6803F04053002B29D1EE
:102EF0007B681B689A687B681B6842F080429A6016
:102F000020E07B681B68164A93421BD17B681B68D4
:102F10009B6803F04053002B14D17B681B689A68B0
:102F20007B681B6842F080429A600BE07B681B6CF8
:102F300043F010027B681A647B685B6C43F001020B
:102F40007B685A64002318461437BD465DF8047B3D
:102F5000704700BF8822002083DE1B43002301400E
:102F60000020014080B584B000AF78603960002354
:102F7000FB607B681B689B6803F48063B3F5806F1C
:102F800013D17B681B689B6803F48073B3F5807F63
:102F90000BD17B681B6C43F020027B681A647B6852
:102FA000002283F83C20012363E0FFF7B3FEF860C2
:102FB00021E03B68B3F1FF3F1DD03B68002B07D0F9
:102FC000FFF7A8FE0246FB68D31A3A689A4212D26B
:102FD0007B681B681B6803F00203022B0BD07B6825
:102FE0001B6C43F004027B681A647B68002283F840
:102FF0003C2003233DE07B681B681B6803F0020351
:10300000022BD6D17B681B686FF012021A607B68B6
:103010001B6C43F400727B681A647B681B689B68B6
:1030200003F04053002B23D17B681B7E002B1FD164
:103030007B681B68DB6A03F47003002B06D07B6897
:103040001B689B6803F48063002B11D17B681B6CA9
:1030500023F480727B681A647B681B6C03F48053D2
:10306000002B05D17B681B6C43F001027B681A645E
:10307000002318461037BD4680BD80B483B000AF32
:1030800078607B681B68DB6C18460C37BD465DF8C2
:10309000047B704780B485B000AF7860396000234E
:1030A000BB607B6893F83C30012B01D1022305E122
:1030B0007B68012283F83C203B681B68092B25D9DB
:1030C0007B681B68D9683B681B689BB21A4613462D
:1030D0005B0013441E3B072202FA03F3DA437B68CA
:1030E0001B680A40DA607B681B68D9683B689A688D
:1030F0003B681B689BB2184603465B0003441E3BBB
:103100009A407B681B680A43DA6022E07B681B6890
:1031100019693B681B689BB21A4613465B0013444F
:10312000072202FA03F3DA437B681B680A401A613C
:103130007B681B6819693B689A683B681B689BB28F
:10314000184603465B0003449A407B681B680A43A9
:103150001A613B685B68062B24D87B681B68596B37
:103160003B685A6813469B001344053B1F2202FA32
:1031700003F3DA437B681B680A405A637B681B6869
:10318000596B3B681B689BB218463B685A681346EC
:103190009B001344053B00FA03F27B681B680A435B
:1031A0005A634CE03B685B680C2B24D87B681B6837
:1031B000196B3B685A6813469B001344233B1F223C
:1031C00002FA03F3DA437B681B680A401A637B68E0
:1031D0001B68196B3B681B689BB218463B685A68B2
:1031E00013469B001344233B00FA03F27B681B68E1
:1031F0000A431A6323E07B681B68D96A3B685A68F4
:1032000013469B001344413B1F2202FA03F3DA43A7
:103210007B681B680A40DA627B681B68D96A3B6876
:103220001B689BB218463B685A6813469B001344C0
:10323000413B00FA03F27B681B680A43DA62224BC7
:10324000FB607B681B68214A934209D13B681B687D
:10325000122B05D1FB685B6843F48002FB685A605F
:103260007B681B68194A934223D13B681B68102B6B
:1032700003D03B681B68112B1BD1FB685B6843F4D0
:103280000002FB685A603B681B68102B11D1104B81
:103290001B68104AA2FB03239A0C13469B0013449D
:1032A0005B00BB6002E0BB68013BBB60BB68002BFE
:1032B000F9D17B68002283F83C200023184614379C
:1032C000BD465DF8047B70470023014000200140AB
:1032D0008822002083DE1B4380B485B000AF786075
:1032E000794BFB60FB685B6823F44032FB685A60F3
:1032F000FB685A687B685B681A43FB685A607B68A6
:103300001B685A687B681B6822F480725A607B686D
:103310001B6859687B681B691A027B681B680A4333
:103320005A607B681B685A687B681B6822F0407291
:103330005A607B681B6859687B689A687B681B6861
:103340000A435A607B681B689A687B681B6822F492
:1033500000629A607B681B6899687B68DA687B68A2
:103360001B680A439A607B689B6A584A934222D042
:103370007B681B689A687B681B6822F070629A60A1
:103380007B681B6899687B689A6A7B681B680A433C
:103390009A607B681B689A687B681B6822F04052C1
:1033A0009A607B681B6899687B68DA6A7B681B682F
:1033B0000A439A600FE07B681B689A687B681B6809
:1033C00022F070629A607B681B689A687B681B6851
:1033D00022F040529A607B681B689A687B681B6881
:1033E00022F002029A607B681B6899687B681B7EEA
:1033F0005A007B681B680A439A607B6893F8203008
:10340000002B1BD07B681B685A687B681B6842F4E2
:1034100000625A607B681B685A687B681B6822F4EC
:1034200060425A607B681B6859687B685B6A013B35
:103430005A037B681B680A435A6007E07B681B6875
:103440005A687B681B6822F400625A607B681B68BC
:10345000DA6A7B681B6822F47002DA627B681B6898
:10346000D96A7B68DB69013B1A057B681B680A43E4
:10347000DA627B681B689A687B681B6822F40072BA
:103480009A607B681B6899687B6893F830305A02B1
:103490007B681B680A439A607B681B689A687B6834
:1034A0001B6822F480629A607B681B6899687B685D
:1034B0005B699A027B681B680A439A6000BF1437F5
:1034C000BD465DF8047B7047002301400100000FFA
:1034D00080B485B000AF78607B6803F00703FB60C1
:1034E0000C4BDB68BB60BA684FF6FF031340BB6050
:1034F000FB681A02BB68134343F0BF6343F4003315
:10350000BB60044ABB68D36000BF1437BD465DF89A
:10351000047B704700ED00E080B400AF044BDB6833
:103520001B0A03F007031846BD465DF8047B70478D
:1035300000ED00E080B483B000AF0346FB7197F963
:103540000730002B0BDBFB7903F01F02074997F9CB
:1035500007305B09012000FA02F241F8232000BF86
:103560000C37BD465DF8047B704700BF00E100E00A
:1035700080B483B000AF03463960FB7197F9073020
:10358000002B0ADB3B68DAB20C4997F907301201CD
:10359000D2B20B4483F800230AE03B68DAB2084950
:1035A000FB7903F00F03043B1201D2B20B441A76ED
:1035B00000BF0C37BD465DF8047B704700E100E0BA
:1035C00000ED00E080B489B000AFF860B9607A60C7
:1035D000FB6803F00703FB61FB69C3F10703042BDE
:1035E00028BF0423BB61FB690433062B02D9FB69A6
:1035F000033B00E000237B614FF0FF32BB6902FA1E
:1036000003F3DA43BB681A407B699A404FF0FF31FD
:103610007B6901FA03F3D9437B680B4013431846D7
:103620002437BD465DF8047B7047000080B582B04A
:1036300000AF78607B68013BB3F1807F01D3012349
:103640000FE00A4A7B68013B53600F214FF0FF30C7
:10365000FFF78EFF054B00229A60044B07221A6089
:10366000002318460837BD4680BD00BF10E000E0CB
:1036700080B582B000AF78607868FFF729FF00BF9F
:103680000837BD4680BD80B586B000AF0346B9603F
:103690007A60FB7300237B61FFF73EFF78617A68F5
:1036A000B9687869FFF78EFF024697F90F30114627
:1036B0001846FFF75DFF00BF1837BD4680BD80B5D7
:1036C00082B000AF0346FB7197F907301846FFF749
:1036D00031FF00BF0837BD4680BD80B582B000AF66
:1036E00078607868FFF7A2FF034618460837BD46A2
:1036F00080BD000080B489B000AF786039600023DD
:103700007B6100233B610023BB610023FB6159E126
:103710000122FB6902FA03F37B613B681B687A694B
:1037200013403B613A697B699A4240F048813B68AB
:103730005B6803F00303012B05D03B685B6803F073
:103740000303022B30D17B689B68BB61FB695B0084
:10375000032202FA03F3DB43BA691340BB613B68FF
:10376000DA68FB695B0002FA03F3BA691343BB61D1
:103770007B68BA699A607B685B68BB610122FB6900
:1037800002FA03F3DB43BA691340BB613B685B6831
:103790001B0903F00102FB6902FA03F3BA69134340
:1037A000BB617B68BA695A603B685B6803F00303DE
:1037B000032B17D07B68DB68BB61FB695B000322CE
:1037C00002FA03F3DB43BA691340BB613B689A68B2
:1037D000FB695B0002FA03F3BA691343BB617B68C0
:1037E000BA69DA603B685B6803F00303022B23D1FC
:1037F000FB69DA087B68083253F82230BB61FB6949
:1038000003F007039B000F2202FA03F3DB43BA69BC
:103810001340BB613B681A69FB6903F007039B0017
:1038200002FA03F3BA691343BB61FB69DA087B68E8
:103830000832B96943F822107B681B68BB61FB69D9
:103840005B00032202FA03F3DB43BA691340BB6156
:103850003B685B6803F00302FB695B0002FA03F359
:10386000BA691343BB617B68BA691A603B685B68DD
:1038700003F44033002B00F0A2800023FB60574B81
:103880005B6C564A43F480435364544B5B6C03F4C3
:103890008043FB60FB68524AFB699B08023352F885
:1038A0002330BB61FB6903F003039B000F2202FA84
:1038B00003F3DB43BA691340BB617B68494A934217
:1038C00019D07B68484A934213D07B68474A934299
:1038D0000DD07B68464A934207D07B68454A9342A5
:1038E00001D1042308E0072306E0032304E00223B8
:1038F00002E0012300E00023FA6902F003029200D3
:103900009340BA691343BB613549FB699B08023395
:10391000BA6941F82320384B9B68BB613B69DB43A4
:10392000BA691340BB613B685B6803F48013002BEA
:1039300003D0BA693B691343BB612F4ABB699360EB
:103940002D4BDB68BB613B69DB43BA691340BB614C
:103950003B685B6803F40013002B03D0BA693B6932
:103960001343BB61244ABB69D360234B5B68BB61D3
:103970003B69DB43BA691340BB613B685B6803F496
:103980000033002B03D0BA693B691343BB611A4A69
:10399000BB695360184B1B68BB613B69DB43BA6969
:1039A0001340BB613B685B6803F48033002B03D09A
:1039B000BA693B691343BB610F4ABB691360FB697A
:1039C0000133FB61FB690F2B7FF6A2AE00BF00BF86
:1039D0002437BD465DF8047B704700BF00380240C5
:1039E000003801400000024000040240000802408C
:1039F000000C024000100240003C014080B485B041
:103A000000AF78600B467B807B681A697B88134027
:103A1000002B02D00123FB7301E00023FB73FB7B2F
:103A200018461437BD465DF8047B704780B483B0F8
:103A300000AF78600B467B8013467B707B78002B51
:103A400003D07A887B689A6103E07B881A047B68DC
:103A50009A6100BF0C37BD465DF8047B70470000DB
:103A600080B582B000AF0346FB80084B5A69FB88E3
:103A70001340002B06D0054AFB885361FB8818468B
:103A8000FEF776FB00BF0837BD4680BD003C014015
:103A900080B584B000AF78607B68002B01D1012332
:103AA0002BE17B6893F83D30DBB2002B06D17B68BD
:103AB000002283F83C207868FEF700FE7B68242211
:103AC00083F83D207B681B681A687B681B6822F0BE
:103AD00001021A607B681B681A687B681B6842F4E5
:103AE00000421A607B681B681A687B681B6822F4B6
:103AF00000421A6001F020FCF8607B685B68814A34
:103B0000934207D8FB68804A934294BF0123002365
:103B1000DBB206E0FB687D4A934294BF0123002399
:103B2000DBB2002B01D00123E7E0FB68784AA2FB5F
:103B300003239B0CBB607B681B685B6823F03F0121
:103B40007B681B68BA680A435A607B681B681B6AFB
:103B500023F03F017B685B686A4A934202D8BB68E6
:103B6000013309E0BB684FF4967202FB03F3694A24
:103B7000A2FB03239B0901337A6812680B4313628B
:103B80007B681B68DB6923F44F4222F0FF027B68ED
:103B90005B685C498B4219D8FB68591E7B685B687F
:103BA0005B00B1FBF3F3591C40F6FC730B40002B98
:103BB0000AD0FB68591E7B685B685B00B1FBF3F3BE
:103BC0000133C3F30B0351E004234FE07B689B6890
:103BD000002B11D1FB68581E7B6859680B465B00AF
:103BE0000B44B0FBF3F30133C3F30B03002B0CBF07
:103BF00001230023DBB212E0FB68581E7B68596882
:103C00000B469B000B4499000B44B0FBF3F30133CC
:103C1000C3F30B03002B0CBF01230023DBB2002BEB
:103C200001D0012322E07B689B68002B0ED1FB684A
:103C3000581E7B6859680B465B000B44B0FBF3F3DE
:103C40000133C3F30B0343F400430FE0FB68581E3A
:103C50007B6859680B469B000B4499000B44B0FBF2
:103C6000F3F30133C3F30B0343F44043796809686A
:103C70001343CB617B681B681B6823F0C0017B6822
:103C8000DA697B681B6A1A437B681B680A431A60FF
:103C90007B681B689B6823F4034323F0FF037A6867
:103CA00011697A68D26811437A6812680B4393608D
:103CB0007B681B68DB6823F0FF017B685A697B68BF
:103CC0009B691A437B681B680A43DA607B681B6840
:103CD0001A687B681B6842F001021A607B68002248
:103CE0001A647B68202283F83D207B6800221A63D7
:103CF0007B68002283F83E20002318461037BD461B
:103D000080BD00BFA08601007F841E00FF083D002B
:103D100083DE1B43D34D621080B588B002AFF860DC
:103D2000084611461A4603467B810B463B811346E3
:103D3000FB80FEF7EFFF7861FB6893F83D30DBB264
:103D4000202B40F0D9807B690093192301226D4913
:103D5000F86800F08BFC0346002B01D00223CCE076
:103D6000FB6893F83C30012B01D10223C5E0FB68CE
:103D7000012283F83C20FB681B681B6803F00103E9
:103D8000012B07D0FB681B681A68FB681B6842F0B0
:103D900001021A60FB681B681A68FB681B6822F442
:103DA00000621A60FB68212283F83D20FB684022F4
:103DB00083F83E20FB6800221A64FB683A6A5A6264
:103DC000FB68BA8C5A85FB685B8D9AB2FB681A85D2
:103DD000FB684D4ADA62F8883A8979897B690193F0
:103DE000BB6A00930346F86800F0C2FA0346002B52
:103DF00052D0012381E07A69B96AF86800F050FD79
:103E00000346002B0DD0FB681B6C042B07D1FB680D
:103E10001B681A68FB681B6842F400721A60012371
:103E20006BE0FB685B6A1A78FB681B681A61FB68C9
:103E30005B6A5A1CFB685A62FB681B8D013B9AB295
:103E4000FB681A85FB685B8D9BB2013B9AB2FB68ED
:103E50005A85FB681B685B6903F00403042B1BD1C4
:103E6000FB681B8D002B17D0FB685B6A1A78FB6818
:103E70001B681A61FB685B6A5A1CFB685A62FB6824
:103E80001B8D013B9AB2FB681A85FB685B8D9BB268
:103E9000013B9AB2FB685A85FB681B8D002BAAD1A7
:103EA0007A69B96AF86800F043FD0346002B0DD02B
:103EB000FB681B6C042B07D1FB681B681A68FB6846
:103EC0001B6842F400721A60012316E0FB681B684D
:103ED0001A68FB681B6842F400721A60FB682022B3
:103EE00083F83D20FB68002283F83E20FB68002217
:103EF00083F83C20002300E0022318461837BD4613
:103F000080BD00BF020010000000FFFF80B58CB034
:103F100002AFF860084611461A4603467B810B46FD
:103F20003B811346FB80FEF7F5FE7862FB6893F851
:103F30003D30DBB2202B40F014827B6A00931923C2
:103F400001227B49F86800F091FB0346002B01D069
:103F5000022307E2FB6893F83C30012B01D10223D6
:103F600000E2FB68012283F83C20FB681B681B68A9
:103F700003F00103012B07D0FB681B681A68FB687C
:103F80001B6842F001021A60FB681B681A68FB6834
:103F90001B6822F400621A60FB68222283F83D202D
:103FA000FB68402283F83E20FB6800221A64FB680D
:103FB0003A6B5A62FB68BA8E5A85FB685B8D9AB27F
:103FC000FB681A85FB685B4ADA62F8883A89798966
:103FD0007B6A0193BB6B00930346F86800F05EFABE
:103FE0000346002B01D00123BCE1FB681B8D002B95
:103FF00013D100233B62FB681B685B693B62FB6873
:104000001B689B693B623B6AFB681B681A68FB681C
:104010001B6842F400721A6090E1FB681B8D012B53
:104020001BD1FB681B681A68FB681B6822F480625E
:104030001A600023FB61FB681B685B69FB61FB681E
:104040001B689B69FB61FB69FB681B681A68FB685E
:104050001B6842F400721A6070E1FB681B8D022B32
:104060001BD1FB681B681A68FB681B6822F480621E
:104070001A60FB681B681A68FB681B6842F40062E0
:104080001A600023BB61FB681B685B69BB61FB684E
:104090001B689B69BB61BB6950E100237B61FB68C6
:1040A0001B685B697B61FB681B689B697B617B6943
:1040B00044E1FB681B8D032B00F2F180FB681B8D34
:1040C000012B23D17A6AB96BF86800F079FC0346BA
:1040D000002B01D0012345E1FB681B681A69FB68CE
:1040E0005B6AD2B21A70FB685B6A5A1CFB685A6240
:1040F000FB681B8D013B9AB2FB681A85FB685B8DE0
:104100009BB2013B9AB2FB685A8517E1FB681B8D95
:10411000022B4ED17B6A0093BB6B00220649F868E4
:1041200000F0A4FA0346002B08D001231AE100BFD7
:10413000020010000000FFFF04000100FB681B6884
:104140001A68FB681B6842F400721A60FB681B68FF
:104150001A69FB685B6AD2B21A70FB685B6A5A1C08
:10416000FB685A62FB681B8D013B9AB2FB681A859B
:10417000FB685B8D9BB2013B9AB2FB685A85FB687A
:104180001B681A69FB685B6AD2B21A70FB685B6ACB
:104190005A1CFB685A62FB681B8D013B9AB2FB6894
:1041A0001A85FB685B8D9BB2013B9AB2FB685A850E
:1041B000C4E07B6A0093BB6B00226C49F86800F096
:1041C00055FA0346002B01D00123CBE0FB681B68A6
:1041D0001A68FB681B6822F480621A60FB681B681F
:1041E0001A69FB685B6AD2B21A70FB685B6A5A1C78
:1041F000FB685A62FB681B8D013B9AB2FB681A850B
:10420000FB685B8D9BB2013B9AB2FB685A857B6A67
:104210000093BB6B00225549F86800F027FA03466B
:10422000002B01D001239DE0FB681B681A68FB6826
:104230001B6842F400721A60FB681B681A69FB680D
:104240005B6AD2B21A70FB685B6A5A1CFB685A62DE
:10425000FB681B8D013B9AB2FB681A85FB685B8D7E
:104260009BB2013B9AB2FB685A85FB681B681A69CE
:10427000FB685B6AD2B21A70FB685B6A5A1CFB6807
:104280005A62FB681B8D013B9AB2FB681A85FB687A
:104290005B8D9BB2013B9AB2FB685A854EE07A6A0D
:1042A000B96BF86800F08CFB0346002B01D00123AA
:1042B00058E0FB681B681A69FB685B6AD2B21A7027
:1042C000FB685B6A5A1CFB685A62FB681B8D013BEA
:1042D0009AB2FB681A85FB685B8D9BB2013B9AB270
:1042E000FB685A85FB681B685B6903F00403042BB9
:1042F00024D1FB681B8D032B07D1FB681B681A6850
:10430000FB681B6822F480621A60FB681B681A69EC
:10431000FB685B6AD2B21A70FB685B6A5A1CFB6866
:104320005A62FB681B8D013B9AB2FB681A85FB68D9
:104330005B8D9BB2013B9AB2FB685A85FB681B8D73
:10434000002B7FF4B6AEFB68202283F83D20FB688B
:10435000002283F83E20FB68002283F83C200023E3
:1043600000E0022318462837BD4680BD0400010046
:1043700080B588B002AFF860084611461A46034679
:104380007B810B463B811346FB80FB681B681A68E8
:10439000FB681B6842F480721A607B6A00933B6A78
:1043A00000224FF00111F86800F060F90346002B7D
:1043B0000DD0FB681B681B6803F48073B3F5807F26
:1043C00003D1FB684FF400721A6403235FE07B891A
:1043D000DBB21A46FB681B6802F0FE021A617B6AB8
:1043E0003A6A2D49F86800F0BBF90346002B01D06A
:1043F00001234CE000237B61FB681B685B697B61E8
:10440000FB681B689B697B617B697A6A396AF8681B
:1044100000F046FA0346002B0DD0FB681B6C042B02
:1044200007D1FB681B681A68FB681B6842F40072BE
:104430001A6001232BE0FB88012B05D13B89DAB2FE
:10444000FB681B681A6121E03B891B0A9BB2DAB248
:10445000FB681B681A617A6A396AF86800F020FA0A
:104460000346002B0DD0FB681B6C042B07D1FB68A7
:104470001B681A68FB681B6842F400721A6001230B
:1044800005E03B89DAB2FB681B681A610023184615
:104490001837BD4680BD00BF0200010080B588B05E
:1044A00002AFF860084611461A4603467B810B4668
:1044B0003B811346FB80FB681B681A68FB681B681E
:1044C00042F480621A60FB681B681A68FB681B680C
:1044D00042F480721A607B6A00933B6A00224FF0BC
:1044E0000111F86800F0C2F80346002B0DD0FB68FC
:1044F0001B681B6803F48073B3F5807F03D1FB68EE
:104500004FF400721A640323AAE07B89DBB21A46D7
:10451000FB681B6802F0FE021A617B6A3A6A524924
:10452000F86800F01DF90346002B01D0012397E045
:1045300000237B61FB681B685B697B61FB681B6810
:104540009B697B617B697A6A396AF86800F0A8F92F
:104550000346002B0DD0FB681B6C042B07D1FB68B6
:104560001B681A68FB681B6842F400721A6001231A
:1045700076E0FB88012B05D13B89DAB2FB681B682A
:104580001A6121E03B891B0A9BB2DAB2FB681B6807
:104590001A617A6A396AF86800F082F90346002BDA
:1045A0000DD0FB681B6C042B07D1FB681B681A68D5
:1045B000FB681B6842F400721A60012350E03B89DB
:1045C000DAB2FB681B681A617A6A396AF86800F027
:1045D00067F90346002B0DD0FB681B6C042B07D139
:1045E000FB681B681A68FB681B6842F400721A605B
:1045F000012335E0FB681B681A68FB681B6842F4FE
:1046000080721A607B6A00933B6A00224FF00111AE
:10461000F86800F02BF80346002B0DD0FB681B68F0
:104620001B6803F48073B3F5807F03D1FB684FF4FC
:1046300000721A64032313E07B89DBB243F00103A9
:10464000DAB2FB681B681A617B6A3A6A0649F86845
:1046500000F086F80346002B01D0012300E0002380
:1046600018461837BD4680BD0200010080B584B0F1
:1046700000AFF860B9603B601346FB7148E03B68EF
:10468000B3F1FF3F44D0FEF745FB0246BB69D31AA6
:104690003A689A4202D33B68002B39D1BB681B0CA5
:1046A000DBB2012B0DD1FB681B685B69DA43BB6889
:1046B00013409BB2002B0CBF01230023DBB21A4630
:1046C0000CE0FB681B689B69DA43BB6813409BB234
:1046D000002B0CBF01230023DBB21A46FB799A4260
:1046E00016D1FB6800221A63FB68202283F83D2064
:1046F000FB68002283F83E20FB681B6C43F020021D
:10470000FB681A64FB68002283F83C20012323E045
:10471000BB681B0CDBB2012B0DD1FB681B685B690E
:10472000DA43BB6813409BB2002B0CBF012300236C
:10473000DBB21A460CE0FB681B689B69DA43BB6876
:1047400013409BB2002B0CBF01230023DBB21A469F
:10475000FB799A4293D0002318461037BD4680BD9E
:1047600080B584B000AFF860B9607A603B6071E0FA
:10477000FB681B685B6903F48063B3F5806F23D12A
:10478000FB681B681A68FB681B6842F400721A60B9
:10479000FB681B686FF480625A61FB6800221A6331
:1047A000FB68202283F83D20FB68002283F83E202E
:1047B000FB681B6C43F00402FB681A64FB68002270
:1047C00083F83C20012367E07B68B3F1FF3F41D0D1
:1047D000FEF7A0FA02463B68D31A7A689A4202D3DF
:1047E0007B68002B36D1BB681B0CDBB2012B0CD1D4
:1047F000FB681B685B69DA43BB6813409BB2002B04
:1048000014BF01230023DBB20BE0FB681B689B692C
:10481000DA43BB6813409BB2002B14BF0123002373
:10482000DBB2002B16D0FB6800221A63FB68202243
:1048300083F83D20FB68002283F83E20FB681B6C58
:1048400043F02002FB681A64FB68002283F83C20D6
:10485000012321E0BB681B0CDBB2012B0CD1FB68F0
:104860001B685B69DA43BB6813409BB2002B14BF23
:1048700001230023DBB20BE0FB681B689B69DA4372
:10488000BB6813409BB2002B14BF01230023DBB293
:10489000002B7FF46DAF002318461037BD4680BD56
:1048A00080B584B000AFF860B9607A6034E0F86831
:1048B00000F0E3F80346002B01D0012334E0BB688D
:1048C000B3F1FF3F28D0FEF725FA02467B68D31AE2
:1048D000BA689A4202D3BB68002B1DD1FB681B68E3
:1048E0005B6903F08003802B16D0FB6800221A63FB
:1048F000FB68202283F83D20FB68002283F83E20DD
:10490000FB681B6C43F02002FB681A64FB68002202
:1049100083F83C20012307E0FB681B685B6903F018
:104920008003802BC3D1002318461037BD4680BDBD
:1049300080B584B000AFF860B9607A6034E0F868A0
:1049400000F09BF80346002B01D0012334E0BB6844
:10495000B3F1FF3F28D0FEF7DDF902467B68D31A9A
:10496000BA689A4202D3BB68002B1DD1FB681B6852
:104970005B6903F00403042B16D0FB6800221A6362
:10498000FB68202283F83D20FB68002283F83E204C
:10499000FB681B6C43F02002FB681A64FB68002272
:1049A00083F83C20012307E0FB681B685B6903F088
:1049B0000403042BC3D1002318461037BD4680BD25
:1049C00080B584B000AFF860B9607A6049E0FB68F8
:1049D0001B685B6903F01003102B19D1FB681B687F
:1049E0006FF010025A61FB6800221A63FB682022F4
:1049F00083F83D20FB68002283F83E20FB681A6C98
:104A0000FB681A64FB68002283F83C20012330E035
:104A1000FEF780F902467B68D31ABA689A4202D33D
:104A2000BB68002B1DD1FB681B685B6903F040036A
:104A3000402B16D0FB6800221A63FB68202283F803
:104A40003D20FB68002283F83E20FB681B6C43F08E
:104A50002002FB681A64FB68002283F83C200123D3
:104A600007E0FB681B685B6903F04003402BAED195
:104A7000002318461037BD4680BD80B483B000AF18
:104A800078607B681B685B6903F48063B3F5806FB3
:104A90001BD17B681B686FF480625A617B680022BF
:104AA0001A637B68202283F83D207B68002283F80C
:104AB0003E207B681B6C43F004027B681A647B68B1
:104AC000002283F83C20012300E0002318460C3725
:104AD000BD465DF8047B704780B586B000AF786056
:104AE0007B68002B01D1012367E27B681B6803F020
:104AF0000103002B75D0884B9B6803F00C03042B3B
:104B00000CD0854B9B6803F00C03082B12D1824B11
:104B10005B6803F48003B3F5800F0BD17E4B1B68F9
:104B200003F40033002B5BD07B685B68002B57D10C
:104B3000012342E27B685B68B3F5803F06D1764B88
:104B40001B68754A43F4803313601DE07B685B6823
:104B5000B3F5A02F0CD1704B1B686F4A43F4802330
:104B600013606D4B1B686C4A43F4803313600BE099
:104B7000694B1B68684A23F480331360664B1B68DB
:104B8000654A23F4802313607B685B68002B13D095
:104B9000FEF7C0F8386108E0FEF7BCF802463B6952
:104BA000D31A642B01D9032307E25B4B1B6803F480
:104BB0000033002BF0D014E0FEF7ACF8386108E0C9
:104BC000FEF7A8F802463B69D31A642B01D90323E8
:104BD000F3E1514B1B6803F40033002BF0D100E0EC
:104BE00000BF7B681B6803F00203002B63D04A4BB5
:104BF0009B6803F00C03002B0BD0474B9B6803F022
:104C00000C03082B1CD1444B5B6803F48003002B7E
:104C100016D1414B1B6803F00203002B05D07B68C3
:104C2000DB68012B01D00123C7E13B4B1B6823F05C
:104C3000F8027B681B69DB00374913430B603AE0DD
:104C40007B68DB68002B20D0344B01221A60FEF712
:104C500061F8386108E0FEF75DF802463B69D31A57
:104C6000022B01D90323A8E12B4B1B6803F002039D
:104C7000002BF0D0284B1B6823F0F8027B681B69DF
:104C8000DB00254913430B6015E0244B00221A601A
:104C9000FEF740F8386108E0FEF73CF802463B6951
:104CA000D31A022B01D9032387E11B4B1B6803F0A6
:104CB0000203002BF0D17B681B6803F00803002B74
:104CC00036D07B685B69002B16D0154B01221A6029
:104CD000FEF720F8386108E0FEF71CF802463B6951
:104CE000D31A022B01D9032367E10B4B5B6F03F04F
:104CF0000203002BF0D01BE0094B00221A60FEF7E4
:104D000009F838610EE0FEF705F802463B69D31A50
:104D1000022B07D9032350E100380240000047422C
:104D2000800E4742884B5B6F03F00203002BEAD1F1
:104D30007B681B6803F00403002B00F097800023BE
:104D4000FB75814B1B6C03F08053002B0FD10023AC
:104D5000BB607D4B1B6C7C4A43F0805313647A4BE1
:104D60001B6C03F08053BB60BB680123FB75774B62
:104D70001B6803F48073002B18D1744B1B68734AB3
:104D800043F480731360FDF7C5FF386108E0FDF759
:104D9000C1FF02463B69D31A022B01D903230CE160
:104DA0006A4B1B6803F48073002BF0D07B689B6810
:104DB000012B06D1644B1B6F634A43F00103136759
:104DC0001CE07B689B68052B0CD15F4B1B6F5E4A18
:104DD00043F0040313675C4B1B6F5B4A43F0010312
:104DE00013670BE0584B1B6F574A23F001031367FF
:104DF000554B1B6F544A23F0040313677B689B6871
:104E0000002B15D0FDF786FF38610AE0FDF782FF21
:104E100002463B69D31A41F28832934201D90323F7
:104E2000CBE0494B1B6F03F00203002BEED014E0E4
:104E3000FDF770FF38610AE0FDF76CFF02463B6941
:104E4000D31A41F28832934201D90323B5E03E4B95
:104E50001B6F03F00203002BEED1FB7D012B05D16C
:104E6000394B1B6C384A23F0805313647B689B6971
:104E7000002B00F0A180344B9B6803F00C03082B3F
:104E80005CD07B689B69022B41D1314B00221A60B8
:104E9000FDF740FF386108E0FDF73CFF02463B6943
:104EA000D31A022B01D9032387E0274B1B6803F099
:104EB0000073002BF0D17B68DA697B681B6A1A43A8
:104EC0007B685B6A9B011A437B689B6A5B08013BBA
:104ED0001B041A437B68DB6A1B061B4913434B60A8
:104EE0001B4B01221A60FDF715FF386108E0FDF742
:104EF00011FF02463B69D31A022B01D903235CE060
:104F0000114B1B6803F00073002BF0D054E0104BE2
:104F100000221A60FDF7FEFE386108E0FDF7FAFE98
:104F200002463B69D31A022B01D9032345E0064B05
:104F30001B6803F00073002BF0D13DE07B689B6998
:104F4000012B07D1012338E00038024000700040F7
:104F5000600047421B4B5B68FB607B689B69012BD1
:104F600028D0FB6803F480027B68DB699A4221D178
:104F7000FB6803F03F027B681B6A9A421AD1FA6809
:104F800047F6C07313407A68526A9201934211D176
:104F9000FB6803F440327B689B6A5B08013B1B049F
:104FA0009A4207D1FB6803F070627B68DB6A1B06DC
:104FB0009A4201D0012300E0002318461837BD466D
:104FC00080BD00BF0038024080B584B000AF78607B
:104FD00039607B68002B01D10123CCE0684B1B6852
:104FE00003F007033A689A420CD9654B3A68D2B28B
:104FF0001A70634B1B6803F007033A689A4201D0AA
:105000000123B8E07B681B6803F00203002B20D06B
:105010007B681B6803F00403002B05D0594B9B6889
:10502000584A43F4E05393607B681B6803F008031D
:10503000002B05D0534B9B68524A43F46043936066
:10504000504B9B6823F0F0027B689B684D491343EB
:105050008B607B681B6803F00103002B44D07B68E6
:105060005B68012B07D1474B1B6803F40033002B0F
:1050700019D101237FE07B685B68022B03D07B683A
:105080005B68032B07D13F4B1B6803F00073002BB9
:1050900009D101236FE03B4B1B6803F00203002B97
:1050A00001D1012367E0374B9B6823F003027B6843
:1050B0005B68344913438B60FDF72CFEF8600AE00F
:1050C000FDF728FE0246FB68D31A41F2883293426C
:1050D00001D903234FE02B4B9B6803F00C027B6844
:1050E0005B689B009A42EBD1254B1B6803F00703DA
:1050F0003A689A420CD2224B3A68D2B21A70204BCC
:105100001B6803F007033A689A4201D0012332E09A
:105110007B681B6803F00403002B08D0194B9B68C5
:1051200023F4E0527B68DB68164913438B607B688D
:105130001B6803F00803002B09D0124B9B6823F473
:1051400060427B681B69DB000E4913438B6000F0F3
:1051500021F802460B4B9B681B0903F00F030A4919
:10516000CB5C22FA03F3094A1360094B1B6818460B
:10517000FDF78CFD002318461037BD4680BD00BFEB
:10518000003C024000380240A44C01088822002064
:105190008C2200202DE9B04F90B000AF00237B633C
:1051A0000023FB6300233B630023BB63594B9B68D5
:1051B00003F00C03082B0DD0082B00F2A180002B6C
:1051C00002D0042B03D09BE0534BBB639BE0534BBB
:1051D000BB6398E04F4B5B6803F03F037B634D4B31
:1051E0005B6803F48003002B28D04A4B5B689B0963
:1051F00000223B627A623B6AC3F308000021474BFE
:1052000003FB01F2002300FB03F31344434AA0FB1A
:105210000212FA620A46BA62FA6A1344FB627B6BB4
:105220000022BB61FA61D7E90623D7E90A01FBF73F
:1052300013FD02460B461346FB6353E0354B5B6898
:105240009B0900223B617A613B69C3F3080A4FF076
:10525000000B52465B464FF000004FF00001590131
:1052600041EAD261500102460B46B2EB0A0863EBF9
:105270000B094FF000024FF000034FEA891343EA95
:1052800098634FEA8812B2EB080463EB09054FF00C
:1052900000024FF00003EB0043EA5473E2001446AF
:1052A0001D4614EB0A033B6045EB0B037B604FF09C
:1052B00000024FF00003D7E9004529468B02214642
:1052C00043EA915321468A02104619467B6B00221D
:1052D000BB60FA60D7E90223FBF7BEFC02460B462F
:1052E0001346FB630B4B5B681B0C03F0030301339A
:1052F0005B003B63FA6B3B6BB2FBF3F3BB6302E017
:10530000054BBB6300BFBB6B18464037BD46BDE8CD
:10531000B08F00BF003802400024F40040787D01C7
:1053200080B400AF034B1B681846BD465DF8047B94
:10533000704700BF8822002080B500AFFFF7F0FF64
:105340000246054B9B689B0A03F007030349CB5CAD
:1053500022FA03F3184680BD00380240B44C01081D
:1053600080B582B000AF78607B68002B01D101234B
:105370007BE07B685B6A002B08D17B685B68B3F5D8
:10538000827F09D07B680022DA6105E07B68002219
:105390001A617B6800225A617B6800229A627B68EE
:1053A00093F85130DBB2002B06D17B68002283F8E2
:1053B00050207868FDF70EFA7B68022283F85120AE
:1053C0007B681B681A687B681B6822F040021A60C1
:1053D0007B685B6803F482727B689B6803F4044318
:1053E0001A437B68DB6803F400631A437B681B691C
:1053F00003F002031A437B685B6903F001031A435D
:105400007B689B6903F400731A437B68DB6903F0D4
:1054100038031A437B681B6A03F0800342EA0301E6
:105420007B689B6A03F400527B681B680A431A601E
:105430007B689B691B0C03F004017B685B6A03F0CB
:1054400010027B681B680A435A607B681B68DA6934
:105450007B681B6822F40062DA617B6800225A656F
:105460007B68012283F85120002318460837BD4687
:1054700080BD80B588B000AFF860B9603B6013466E
:10548000FB800023FB77FB6893F85030012B01D1A0
:1054900002232DE1FB68012283F85020FDF73AFC3E
:1054A000B861FB88FB82FB6893F85130DBB2012BBB
:1054B00002D00223FB7716E1BB68002B02D0FB88E9
:1054C000002B02D10123FB770DE1FB68032283F857
:1054D0005120FB6800225A65FB68BA681A63FB68B2
:1054E000FA889A86FB68FA88DA86FB6800229A6353
:1054F000FB6800229A87FB680022DA87FB6800229B
:105500005A64FB6800221A64FB689B68B3F5004F7D
:105510000FD1FB681B681A68FB681B6822F0400209
:105520001A60FB681B681A68FB681B6842F48042BB
:105530001A60FB681B681B6803F04003402B07D010
:10554000FB681B681A68FB681B6842F040021A601F
:10555000FB68DB68B3F5006F4FD1FB685B68002B1D
:1055600002D0FB8A012B42D1FB681B6B1A88FB68B7
:105570001B68DA60FB681B6B9A1CFB681A63FB688C
:10558000DB8E9BB2013B9AB2FB68DA862FE0FB68A8
:105590001B689B6803F00203022B12D1FB681B6B94
:1055A0001A88FB681B68DA60FB681B6B9A1CFB6837
:1055B0001A63FB68DB8E9BB2013B9AB2FB68DA860A
:1055C00015E0FDF7A7FB0246BB69D31A3A689A4279
:1055D00003D83B68B3F1FF3F02D13B68002B06D1F3
:1055E0000323FB77FB68012283F851207BE0FB68F3
:1055F000DB8E9BB2002BCAD150E0FB685B68002BAE
:1056000002D0FB8A012B44D1FB681A6BFB681B6834
:105610000C3312781A70FB681B6B5A1CFB681A63F8
:10562000FB68DB8E9BB2013B9AB2FB68DA8630E006
:10563000FB681B689B6803F00203022B13D1FB6815
:105640001A6BFB681B680C3312781A70FB681B6BB3
:105650005A1CFB681A63FB68DB8E9BB2013B9AB253
:10566000FB68DA8615E0FDF755FB0246BB69D31AE5
:105670003A689A4203D83B68B3F1FF3F02D13B68D6
:10568000002B06D10323FB77FB68012283F851200E
:1056900029E0FB68DB8E9BB2002BC9D1BA6939685F
:1056A000F86800F0B1F80346002B02D0FB68202216
:1056B0005A65FB689B68002B0AD100233B61FB689D
:1056C0001B68DB683B61FB681B689B683B613B694F
:1056D000FB685B6D002B02D00123FB7703E0FB68C6
:1056E000012283F85120FB68002283F85020FB7FC1
:1056F00018462037BD4680BD80B588B000AFF86041
:10570000B9603B601346FB71FDF704FB0246BB6AC0
:105710009B1A3A681344FB61FDF7FCFAB861394BF8
:105720001B685B011B0DFA6902FB03F37B6154E00C
:105730003B68B3F1FF3F50D0FDF7ECFA0246BB697E
:10574000D31AFA699A4202D9FB69002B3DD1FB6852
:105750001B685A68FB681B6822F0E0025A60FB680D
:105760005B68B3F5827F11D1FB689B68B3F5004F8E
:1057700004D0FB689B68B3F5806F07D1FB681B689A
:105780001A68FB681B6822F040021A60FB689B6A7B
:10579000B3F5005F0FD1FB681B681A68FB681B68D4
:1057A00022F400521A60FB681B681A68FB681B68C9
:1057B00042F400521A60FB68012283F85120FB6812
:1057C000002283F85020032317E07B69002B01D1CE
:1057D0000023FB617B69013B7B61FB681B689A6866
:1057E000BB681340BA689A420CBF01230023DBB2A6
:1057F0001A46FB799A429BD1002318462037BD46B2
:1058000080BD00BF8822002080B588B002AFF8605C
:10581000B9607A607B680093BB6801220221F86856
:10582000FFF76AFF0346002B07D0FB685B6D43F070
:105830002002FB685A65032332E01B4B1B681B4A9E
:10584000A2FB03235B0D4FF47A7202FB03F37B612F
:10585000FB685B68B3F5827F12D17B680093BB68FD
:1058600000228021F868FFF747FF0346002B16D07F
:10587000FB685B6D43F02002FB685A6503230FE071
:105880007B69002B0AD07B69013B7B61FB681B684D
:105890009B6803F08003802BF2D000E000BF002360
:1058A00018461837BD4680BD88220020819F5E16AD
:1058B00080B582B000AF78607B68002B01D10123F6
:1058C00041E07B6893F83D30DBB2002B06D17B686A
:1058D000002283F83C207868FCF7C4FF7B68022232
:1058E00083F83D207B681A687B68043319461046AC
:1058F00000F0CEFC7B68012283F846207B68012201
:1059000083F83E207B68012283F83F207B680122D8
:1059100083F840207B68012283F841207B680122C4
:1059200083F842207B68012283F843207B680122B0
:1059300083F844207B68012283F845207B6801229C
:1059400083F83D20002318460837BD4680BD00007F
:1059500080B485B000AF78607B6893F83D30DBB2EF
:10596000012B01D0012344E07B68022283F83D2013
:105970007B681B68DA687B681B6842F00102DA60AA
:105980007B681B681E4A934218D07B681B68B3F182
:10599000804F13D07B681B681A4A93420ED07B68F5
:1059A0001B68194A934209D07B681B68174A9342C7
:1059B00004D07B681B68164A934211D17B681B6830
:1059C0009B6803F00703FB60FB68062B10D07B6825
:1059D0001B681A687B681B6842F001021A6007E0C6
:1059E0007B681B681A687B681B6842F001021A60BA
:1059F000002318461437BD465DF8047B704700BF8E
:105A0000000001400004004000080040000C00407D
:105A10000040014080B483B000AF78607B681B68B1
:105A2000DA687B681B6822F00102DA607B681B6819
:105A30001A6A41F211131340002B0FD17B681B68C7
:105A40001A6A40F244431340002B07D17B681B685D
:105A50001A687B681B6822F001021A607B680122C9
:105A600083F83D20002318460C37BD465DF8047BC3
:105A7000704780B582B000AF78607B68002B01D1A1
:105A8000012341E07B6893F83D30DBB2002B06D167
:105A90007B68002283F83C20786800F039F87B6846
:105AA000022283F83D207B681A687B68043319461C
:105AB000104600F0EDFB7B68012283F846207B68EE
:105AC000012283F83E207B68012283F83F207B6817
:105AD000012283F840207B68012283F841207B6803
