:020000040800F2
:100000000000012025270008492600085126000885
:100010005926000861260008692600080000000033
:100020000000000000000000000000007126000831
:100030007F260008000000008D2600089B2600088F
:100040007527000875270008752700087527000820
:100050007527000875270008752700087527000810
:1000600075270008A7260008B52600087527000890
:1000700075270008752700087527000875270008F0
:100080007527000875270008752700080000000084
:10009000000000000000000000000000C32600086F
:1000A00075270008752700087527000875270008C0
:1000B000D9260008ED2600087527000875270008D6
:1000C00075270008752700087527000875270008A0
:1000D0007527000875270008752700080000000034
:1000E0007527000875270008752700080000000024
:1000F000000000000000000000000000752700085C
:100100000000000075270008752700087527000803
:1001100000000000000000000000000000000000DF
:10012000752700087527000875270008752700083F
:10013000752700080000000000000000000000001B
:10014000000000000000000000000000752700080B
:10015000752700087527000875270008752700080F
:100160007527000875270008000000000000000047
:10017000000000000000000000000000000000007F
:1001800000000000752700080000000000000000CB
:0401900075270008C7
:1001980010B5054C237833B9044B13B10448AFF3B9
:1001A80000800123237010BD6000002000000000C3
:1001B800285C000808B5034B1BB103490348AFF39B
:1001C800008008BD0000000064000020285C0008D2
:1001D80081F0004102E000BF83F0004330B54FEAF0
:1001E80041044FEA430594EA050F08BF90EA020F5D
:1001F8001FBF54EA000C55EA020C7FEA645C7FEAF0
:10020800655C00F0E2804FEA5454D4EB5555B8BF12
:100218006D420CDD2C4480EA020281EA030382EA83
:10022800000083EA010180EA020281EA0303362D15
:1002380088BF30BD11F0004F4FEA01314FF4801CE8
:100248004CEA113102D0404261EB410113F0004FFA
:100258004FEA03334CEA133302D0524263EB4303B1
:1002680094EA050F00F0A780A4F10104D5F1200E4F
:100278000DDB02FA0EFC22FA05F2801841F10001AA
:1002880003FA0EF2801843FA05F359410EE0A5F17E
:1002980020050EF1200E012A03FA0EFC28BF4CF0AF
:1002A800020C43FA05F3C01851EBE37101F0004565
:1002B80007D54FF0000EDCF1000C7EEB00006EEB72
:1002C8000101B1F5801F1BD3B1F5001F0CD34908FC
:1002D8005FEA30004FEA3C0C04F101044FEA445253
:1002E80012F5800F80F09A80BCF1004F08BF5FEADA
:1002F800500C50F1000041EB045141EA050130BDBA
:100308005FEA4C0C404141EB0101013C28BFB1F5CB
:10031800801FE9D291F0000F04BF01460020B1FA16
:1003280081F308BF2033A3F10B03B3F120020CDAE9
:100338000C3208DD02F1140CC2F10C0201FA0CF0C7
:1003480021FA02F10CE002F11402D8BFC2F1200C2C
:1003580001FA02F120FA0CFCDCBF41EA0C019040E2
:10036800E41AA2BF01EB0451294330BD6FEA04042B
:100378001F3C1CDA0C340EDC04F11404C4F1200216
:1003880020FA04F001FA02F340EA030021FA04F328
:1003980045EA030130BDC4F10C04C4F1200220FA7F
:1003A80002F001FA04F340EA0300294630BD21FABD
:1003B80004F0294630BD94F0000F83F4801306BF83
:1003C80081F480110134013D4EE77FEA645C18BF77
:1003D8007FEA655C29D094EA050F08BF90EA020F0E
:1003E80005D054EA000C04BF1946104630BD91EA06
:1003F800030F1EBF0021002030BD5FEA545C05D109
:100408004000494128BF41F0004130BD14F5800447
:100418003CBF01F5801130BD01F0004545F0FE41BB
:1004280041F470014FF0000030BD7FEA645C1ABFF0
:10043800194610467FEA655C1CBF0B46024650EA27
:10044800013406BF52EA033591EA030F41F4002153
:1004580030BD00BF90F0000F04BF0021704730B5D9
:100468004FF4806404F132044FF000054FF00001AE
:1004780050E700BF90F0000F04BF0021704730B56F
:100488004FF4806404F1320410F0004548BF404244
:100498004FF000013EE700BF42004FEAE2014FEA99
:1004A80031014FEA02701FBF12F07F4393F07F4F74
:1004B80081F06051704732F07F4208BF704793F077
:1004C8007F4F04BF41F40021704730B54FF460748A
:1004D80001F0004521F000411CE700BF50EA01028D
:1004E80008BF704730B54FF000050AE050EA010236
:1004F80008BF704730B511F0004502D5404261EBA6
:1005080041014FF4806404F132045FEA915C3FF4E6
:10051800D8AE4FF003025FEADC0C18BF03325FEA83
:10052800DC0C18BF033202EBDC02C2F1200300FA34
:1005380003FC20FA02F001FA03FE40EA0E0021FA59
:1005480002F11444BDE600BF70B54FF0FF0C4CF447
:10055800E06C1CEA11541DBF1CEA135594EA0C0FF9
:1005680095EA0C0F00F0DEF82C4481EA030621EA34
:100578004C5123EA4C5350EA013518BF52EA03356F
:1005880041F4801143F4801338D0A0FB02CE4FF021
:100598000005E1FB02E506F00042E0FB03E54FF051
:1005A8000006E1FB03569CF0000F18BF4EF0010E49
:1005B800A4F1FF04B6F5007F64F5407404D25FEA45
:1005C8004E0E6D4146EB060642EAC62141EA5551F8
:1005D8004FEAC52040EA5E504FEACE2EB4F1FD0C3A
:1005E80088BFBCF5E06F1ED8BEF1004F08BF5FEAB8
:1005F800500E50F1000041EB045170BD06F000466A
:1006080046EA010140EA020081EA0301B4EB5C0416
:10061800C2BFD4EB0C0541EA045170BD41F480110E
:100628004FF0000E013C00F3AB8014F1360FDEBF33
:10063800002001F0004170BDC4F10004203C35DA0F
:100648000C341BDC04F11404C4F1200500FA05F392
:1006580020FA04F001FA05F240EA020001F0004233
:1006680021F0004110EBD37021FA04F642EB0601A9
:100678005EEA430E08BF20EAD37070BDC4F10C04D3
:10068800C4F1200500FA04F320FA05F001FA04F297
:1006980040EA020001F0004110EBD37041F1000183
:1006A8005EEA430E08BF20EAD37070BDC4F120058E
:1006B80000FA05F24EEA020E20FA04F301FA05F2F6
:1006C80043EA020321FA04F001F0004121FA04F29E
:1006D80020EA020000EBD3705EEA430E08BF20EA6E
:1006E800D37070BD94F0000F0FD101F000464000A8
:1006F80041EB010111F4801F08BF013CF7D041EA2A
:10070800060195F0000F18BF704703F0004652002D
:1007180043EB030313F4801F08BF013DF7D043EAFE
:100728000603704794EA0C0F0CEA135518BF95EAB4
:100738000C0F0CD050EA410618BF52EA4306D1D13B
:1007480081EA030101F000414FF0000070BD50EA5A
:10075800410606BF1046194652EA430619D094EAE4
:100768000C0F02D150EA013613D195EA0C0F05D1CE
:1007780052EA03361CBF104619460AD181EA030122
:1007880001F0004141F0FE4141F470014FF00000DA
:1007980070BD41F0FE4141F4780170BD70B54FF075
:1007A800FF0C4CF4E06C1CEA11541DBF1CEA1355F5
:1007B80094EA0C0F95EA0C0F00F0A7F8A4EB0504D7
:1007C80081EA030E52EA03354FEA013100F08880CE
:1007D8004FEA03334FF0805545EA131343EA126397
:1007E8004FEA022245EA111545EA10654FEA00264C
:1007F8000EF000419D4208BF964244F1FD0404F505
:10080800407402D25B084FEA3202B61A65EB030560
:100818005B084FEA32024FF480104FF4002CB6EB1D
:10082800020E75EB030E22BFB61A754640EA0C009D
:100838005B084FEA3202B6EB020E75EB030E22BFDD
:10084800B61A754640EA5C005B084FEA3202B6EB1E
:10085800020E75EB030E22BFB61A754640EA9C00DD
:100868005B084FEA3202B6EB020E75EB030E22BFAD
:10087800B61A754640EADC0055EA060E18D04FEA6B
:10088800051545EA16754FEA06164FEAC30343EA0B
:1008980052734FEAC2025FEA1C1CC0D111F4801FD8
:1008A8000BD141EA00014FF000004FF0004CB6E7D1
:1008B80011F4801F04BF01430020B4F1FD0C88BF70
:1008C800BCF5E06F3FF6AFAEB5EB030C04BFB6EB7B
:1008D800020C5FEA500C50F1000041EB045170BD6E
:1008E8000EF0004E4EEA113114EB5C04C2BFD4EB9B
:1008F8000C0541EA045170BD41F480114FF0000E1F
:10090800013C90E645EA060E8DE60CEA135594EA9A
:100918000C0F08BF95EA0C0F3FF43BAF94EA0C0F9D
:100928000AD150EA01347FF434AF95EA0C0F7FF412
:1009380025AF104619462CE795EA0C0F06D152EA66
:1009480003353FF4FDAE1046194622E750EA41064A
:1009580018BF52EA43067FF4C5AE50EA41047FF45B
:100968000DAF52EA43057FF4EBAE12E74FF0FF3CC0
:1009780006E000BF4FF0010C02E000BF4FF0010C91
:100988004DF804CD4FEA410C7FEA6C5C4FEA430C0A
:1009980018BF7FEA6C5C1BD001B050EA410C0CBF59
:1009A80052EA430C91EA030F02BF90EA020F0020BB
:1009B800704710F1000F91EA030F58BF994208BF22
:1009C80090422CBFD8176FEAE37040F001007047DF
:1009D8004FEA410C7FEA6C5C02D150EA013C07D136
:1009E8004FEA430C7FEA6C5CD6D152EA033CD3D081
:1009F8005DF8040B704700BF8446104662468C467B
:100A08001946634600E000BF01B5FFF7B7FF0028AD
:100A180048BF10F1000F01BD4DF808EDFFF7F4FFD6
:100A28000CBF012000205DF808FB00BF4DF808ED61
:100A3800FFF7EAFF34BF012000205DF808FB00BF84
:100A48004DF808EDFFF7E0FF94BF012000205DF8A6
:100A580008FB00BF4DF808EDFFF7CEFF94BF01205B
:100A680000205DF808FB00BF4DF808EDFFF7C4FF54
:100A780034BF012000205DF808FB00BF4FEA4102A7
:100A8800B2F1E04324BFB3F5001CDCF1FE5C0DD9E4
:100A980001F0004C4FEAC0024CEA5070B2F1004F2E
:100AA80040EB830008BF20F00100704711F0804F31
:100AB80021D113F13872BCBF01F00040704741F4F6
:100AC80080114FEA5252C2F11802C2F1200C10FAFA
:100AD8000CF320FA02F018BF40F001004FEAC123DE
:100AE8004FEAD32303FA0CFC40EA0C0023FA02F382
:100AF8004FEA4303CCE77FEA625307D150EA013358
:100B08001EBF4FF0FE4040F44000704701F0004027
:100B180040F0FE4040F40000704700BF53B94AB9A6
:100B2800002908BF00281CBF4FF0FF314FF0FF30ED
:100B380000F06AB9ADF1080C6DE904CE00F006F8D2
:100B4800DDF804E0DDE9022304B070472DE9F04741
:100B5800089D0C46002B4ED194468C458646B2FA29
:100B680082F262D94AB1C2F12003914020FA03F31C
:100B78000CFA02FC194300FA02FE4FEA1C471FFA5E
:100B88008CF6B1FBF7F44FEA1E4307FB141143EA56
:100B9800014304FB06F199420AD91CEB030304F153
:100BA800FF3080F01281994240F20F81023C634489
:100BB800591A1FFA8EF3B1FBF7F007FB101143EA3D
:100BC800014300FB06F69E420AD91CEB030300F121
:100BD800FF3180F0FC809E4240F2F9806344023885
:100BE8009B1B40EA044000211DB1D3400022C5E907
:100BF8000032BDE8F0878B4205D90DB1C5E9000187
:100C080000210846F5E7B3FA83F1002946D1A3424B
:100C180002D39042C0F0F080861A64EB03030120EF
:100C2800002DE6D0C5E90063E3E7002A40F0908094
:100C3800A1EB0C044FEA1C481FFA8CF70121B4FB06
:100C4800F8F64FEA1E4308FB164443EA044307FB41
:100C580006F0984208D91CEB030306F1FF3402D2D0
:100C6800984200F2CD8026461C1A1FFA8EF3B4FB78
:100C7800F8F008FB104443EA044300FB07F79F42DF
:100C880008D91CEB030300F1FF3402D29F4200F2A3
:100C9800B0802046DB1B40EA0640A5E7C1F12006EC
:100CA8008B4022FA06F71F4320FA06FC04FA01F3E8
:100CB80043EA0C03F44000FA01F8380C4FEA1349F0
:100CC800B4FBF0FE1FFA87FC00FB1E4449EA04440B
:100CD8000EFB0CF9A14502FA01F20AD93C190EF1F2
:100CE800FF3A80F08480A14540F28180AEF1020E87
:100CF8003C44A4EB09041FFA83F9B4FBF0F300FBAE
:100D0800134449EA044403FB0CFCA44507D93C19E5
:100D180003F1FF3067D2A44565D9023B3C4443EA5E
:100D28000E40A0FB0293A4EB0C049C42CE469C46CA
:100D380051D34ED055B1B8EB0E0364EB0C0404FA52
:100D480006F6CB401E43CC40C5E90064002150E7BD
:100D5800C2F1200320FA03F10CFA02FC24FA03F38F
:100D680094400C434FEA1C4800FA02FE1FFA8CF725
:100D7800B3FBF8F008FB1031230C43EA014300FBF6
:100D880007F1994208D91CEB030300F1FF362CD276
:100D980099422AD9023863445B1AA4B2B3FBF8F12A
:100DA80008FB113344EA034401FB07F3A34208D9C3
:100DB8001CEB040401F1FF3613D2A34211D9023906
:100DC8006444E41A41EA004139E70446F0E608467B
:100DD80006E7C845AED2B9EB020E63EB070C013843
:100DE800A8E73146EDE7034699E73046D4E7D6460B
:100DF8007FE7634402384DE70646234608460FE777
:100E0800023E634430E700BF704700BF80B582B040
:100E180000AF01F0ADFC00F073F800F099FA00F0B3
:100E2800D9F800F0F9F900F055F900F025F900F0CB
:100E380041FA00237B6000F0FDFF00212A2001F029
:100E480063F901222649274801F0F2F901F0B6F8C2
:100E580000F04EFF0346012B02D0022B3AD03EE0B1
:100E680000221021204802F075FB002220211E4894
:100E780002F070FB00211D4803F098FF1C4803F0A6
:100E88005DFE00F0EBFE1B4800F066FE1721002017
:100E980001F03AF9184B1B781A46184B53F82230D0
:100EA80001220F49184601F0C3F9134B5B78184625
:100EB8003B1D0A22194604F043FE2A213A2001F07C
:100EC80023F93B1D01220649184601F0B1F901F04A
:100ED80075F804E00849022000F0FEFA00BFB7E701
:100EE80000000020405C0008000402402C010020A3
:100EF800BC01002080000020840000204000002069
:100F080080B594B000AF07F12003302200211846C5
:100F180004F05AFE07F10C0300221A605A609A6026
:100F2800DA601A610023BB60284B1B6C274A43F028
:100F380080531364254B1B6C03F08053BB60BB6864
:100F480000237B60224B1B6823F44043204A43F470
:100F5800004313601E4B1B6803F440437B607B68AF
:100F680002233B620123FB6210233B630223BB6322
:100F78000023FB6308233B6454237B640223BB6484
:100F88000423FB6407F12003184603F0E1F8034645
:100F9800002B01D000F048FF0F23FB6002233B61C8
:100FA80000237B614FF48053BB610023FB6107F191
:100FB8000C030221184603F043FB0346002B01D023
:100FC80000F032FF00BF5037BD4680BD00380240F8
:100FD8000070004080B584B000AF3B4600221A6024
:100FE8005A609A60DA60214B214A1A601F4B4FF40D
:100FF80080325A601D4B00229A601C4B00221A61F5
:101008001A4B00221A76194B002283F82020174B1E
:101018000022DA62154B174A9A62144B0022DA60F2
:10102800124B0122DA61114B002283F830200F4B5A
:1010380001225A610D4801F031FC0346002B01D012
:1010480000F0F2FE00233B6001237B600723BB60B6
:101058003B461946054801F0B1FD0346002B01D077
:1010680000F0E2FE00BF1037BD4680BD90000020B2
:10107800002001400100000F80B500AF124B134A59
:101088001A60114B124A5A600F4B00229A600E4B9D
:101098000022DA600C4B4FF480421A610A4B00229E
:1010A8005A61094B00229A61074B0022DA61064B0C
:1010B80000221A62044802F07FFA0346002B01D08E
:1010C80000F0B2FE00BF80BDD800002000540040F0
:1010D800801A060080B596B000AF07F148030022D9
:1010E8001A605A609A60DA6007F1400300221A60B9
:1010F8005A6007F1240300221A605A609A60DA6085
:101108001A615A619A613B1D20220021184604F099
:101118005BFD3E4B3E4A1A603C4B54225A603B4BA7
:1011280000229A60394BFF22DA60384B00221A619C
:10113800364B00225A61354B80229A61334803F0BE
:101148004BFC0346002B01D000F06EFE4FF4805399
:10115800BB6407F1480319462C4804F03DF80346E0
:10116800002B01D000F060FE284803F016FD03466E
:10117800002B01D000F058FE00233B6400237B6461
:1011880007F140031946214804F0EEFB0346002B03
:1011980001D000F049FE60237B621E4B1B78BB62C6
:1011A8000023FB6200233B6300237B630023BB63B4
:1011B8000023FB6307F1240300221946134803F0B8
:1011C80049FF0346002B01D000F02EFE00237B6070
:1011D8000023BB600023FB6000233B6100237B618D
:1011E8004FF40053BB6100233B623B1D194607487F
:1011F80004F028FC0346002B01D000F015FE03483C
:1012080001F0E4F900BF5837BD4680BD2C0100202D
:10121800000001400900002080B586B000AF07F14A
:10122800080300221A605A609A60DA603B4600227E
:101238001A605A601E4B4FF080421A601C4B42F2F3
:10124800CF025A601A4B00229A60194B40F2F312EF
:10125800DA60174B00221A61154B80229A611448F4
:1012680003F0BAFB0346002B01D000F0DDFD4FF47C
:101278008053BB6007F1080319460D4803F0ACFF23
:101288000346002B01D000F0CFFD00233B60002374
:101298007B603B461946064804F066FB0346002B74
:1012A80001D000F0C1FD00BF1837BD4680BD00BFAA
:1012B8007401002080B586B000AF07F10803002252
:1012C8001A605A609A60DA603B4600221A605A60D7
:1012D8001D4B1E4A1A601C4B42F2CF025A601A4B31
:1012E80000229A60184B41F28732DA60164B0022CE
:1012F8001A61154B80229A61134803F06DFB03466F
:10130800002B01D000F090FD4FF48053BB6007F133
:10131800080319460C4803F05FFF0346002B01D071
:1013280000F082FD00233B6000237B603B461946AA
:10133800054804F019FB0346002B01D000F074FDAA
:1013480000BF1837BD4680BDBC0100200004004026
:1013580080B588B000AF07F10C0300221A605A600C
:101368009A60DA601A610023BB60284B1B6B274A1E
:1013780043F001031363254B1B6B03F00103BB60B0
:10138800BB6800237B60214B1B6B204A43F00203A0
:1013980013631E4B1B6B03F002037B607B68002208
:1013A80080211B4802F0D6F800223021194802F0AB
:1013B800D1F87823FB6000233B6101237B6107F1AF
:1013C8000C031946124801F029FF8023FB60012312
:1013D8003B6100237B610023BB6107F10C031946C5
:1013E8000B4801F01BFF3023FB6001233B61002306
:1013F8007B610023BB6107F10C031946054801F026
:101408000DFF00BF2037BD4680BD00BF0038024039
:101418000000024000040240B0B584B000AF78601C
:101428007B681B68B3F1804F2CD11E4801F07AFA13
:1014380014211C4801F02AFB1A4801F0B2FB0346AC
:10144800FB81FB891846FFF715F84FF00002164B91
:10145800FFF7A4F902460B4614461D46134B1B78AA
:101468001846FFF707F802460B4620462946FFF7BD
:101478006BF802460B4610461946FFF7FFFA03467B
:101488000B4A13607B681B680A4A934205D10A4BD2
:101498001B780133DAB2084B1A7000BF1037BD460B
:1014A800B0BD00BF900000200000B0400800002040
:1014B8007C000020000400408600002080B483B037
:1014C80000AF0346FB8000BF0C37BD465DF8047BC8
:1014D800704700000000000080B582B000AF0346EE
:1014E8003960FB71FB79022B40F02D83B44B1B78DC
:1014F800B44A12781146184600F042FC3B681B7843
:10150800032B00F21F8301A252F823F025150008CF
:10151800E917000865180008271B0008AA4803F007
:10152800ABFA3B6801331B78032B00F23E8101A222
:1015380052F823F04D150008E51500087D1600083F
:101548001B170008A14BD3ED007AB6EE007AF4EE33
:10155800C77AF1EE10FA03DA9D4B1B78012B2ED1D6
:101568009C4B1B780A2B13D89B4803F085FA002262
:1015780010219A4801F0EEFF00222021974801F03F
:10158800E9FF934B01221A708D4B02221A7024E056
:10159800914803F0D3FA01221021904801F0DAFFB4
:1015A800002220218D4801F0D5FF894B00221A70B6
:1015B800834B01221A70874B00221A700DE001221A
:1015C8001021864801F0C6FF00222021834801F03F
:1015D800C1FF7B4B01221A70E8E0E7E07B4BD3EDBB
:1015E800007AB7EE007AF4EEC77AF1EE10FA03DA71
:1015F800774B1B78012B2ED1764B1B780A2B13D8EF
:10160800754803F039FA00221021744801F0A2FF4E
:1016180000222021714801F09DFF694B02221A70B7
:101628006B4B01221A7024E06B4803F087FA012201
:1016380010216A4801F08EFF00222021674801F03E
:1016480089FF5F4B01221A70624B00221A70604BAF
:1016580000221A700DE001221021604801F07AFF83
:10166800002220215D4801F075FF554B01221A70B8
:101678009CE09BE0554B1B681846FEF70DFF4EA3F8
:10168800D3E90023FFF7E6F90346002B03D1504BBB
:101698001B78012B2ED14F4B1B780A2B13D84E48A1
:1016A80003F0EAF9002210214C4801F053FF002210
:1016B80020214A4801F04EFF414B02221A70444B48
:1016C80001221A7024E0444803F038FA012210215C
:1016D800424801F03FFF00222021404801F03AFF34
:1016E800374B01221A703B4B00221A70384B0022EC
:1016F8001A700DE001221021384801F02BFF00225A
:101708002021364801F026FF2D4B01221A704DE0AA
:101718004CE02E4BD3ED007AB0EE007AF4EEC77AA7
:10172800F1EE10FA03DA2A4B1B78012B2ED1294B44
:101738001B780A2B13D8284803F09EF900221021A1
:10174800264801F007FF00222021244801F002FF6B
:101758001B4B02221A701E4B01221A7024E01E48ED
:1017680003F0ECF9012210211C4801F0F3FE0022DD
:1017780020211A4801F0EEFE114B01221A70154B78
:1017880000221A70124B00221A700DE0012210215B
:10179800124801F0DFFE00222021104801F0DAFE95
:1017A800074B01221A7001E000E000BFC82001F0D9
:1017B80051F8C8E1AFF30080713D0AD7A370F93F33
:1017C8005000002051000020740100207C000020FF
:1017D8000402002086000020BC0100200004024012
:1017E8003B6801331B78032B36D801A252F823F04B
:1017F800091800081F180008351800084B180008B9
:10180800402000F0F9F90021B34803F01FFAB34B68
:1018180040221A7021E0802000F0EEF90021AE4845
:1018280003F014FAAD4B80221A7016E0AA2000F0DB
:10183800E3F90021A84803F009FAA84BAA221A7074
:101848000BE0FF2000F0D8F90021A34803F0FEF9CF
:10185800A24BFF221A7000E000BF74E1A04803F019
:101868000BF93B6801331B78032B00F2568101A268
:1018780052F823F08D18000825190008BD19000832
:101888005B1A0008974BD3ED007AB6EE007AF4EEB7
:10189800C77AF1EE10FA03DA934B1B78012B2ED19D
:1018A800924B1B780A2B13D8914803F0E5F80022D5
:1018B8001021904801F04EFE012220218D4801F0B0
:1018C80049FE8D4B00221A70874B01221A7024E0C2
:1018D800874803F033F901221021864801F03AFEC7
:1018E80000222021834801F035FE834B01221A7023
:1018F8007E4B00221A707C4B00221A700DE00122E8
:1019080010217C4801F026FE00222021794801F0B0
:1019180021FE794B01221A7000E1FFE0714BD3EDF3
:10192800007AB7EE007AF4EEC77AF1EE10FA03DA2D
:101938006D4B1B78012B2ED16C4B1B780A2B13D8BF
:101948006B4803F099F8002210216A4801F002FE62
:1019580001222021674801F0FDFD674B00221A7023
:10196800614B01221A7024E0614803F0E7F8012274
:101978001021604801F0EEFD002220215D4801F0B1
:10198800E9FD5D4B01221A70584B00221A70564B24
:1019980000221A700DE001221021564801F0DAFDEC
:1019A80000222021534801F0D5FD534B01221A7023
:1019B800B4E0B3E04B4B1B681846FEF76DFD44A33B
:1019C800D3E90023FFF746F80346002B03D1464B23
:1019D8001B78012B2ED1454B1B780A2B13D8444872
:1019E80003F04AF800221021424801F0B3FD012219
:1019F8002021404801F0AEFD3F4B00221A703A4BBF
:101A080001221A7024E03A4803F098F801221021C4
:101A1800384801F09FFD00222021364801F09AFD48
:101A2800354B01221A70314B00221A702E4B0022BE
:101A38001A700DE0012210212E4801F08BFD0022C2
:101A480020212C4801F086FD2B4B01221A7065E0FD
:101A580064E0244BD3ED007AB0EE007AF4EEC77A56
:101A6800F1EE10FA03DA204B1B78012B46D11F4BFD
:101A78001B780A2B13D81E4802F0FEFF0022102103
:101A88001C4801F067FD012220211A4801F062FD7F
:101A9800194B00221A70144B01221A703CE01448AA
:101AA80003F04CF801221021124801F053FD0022E6
:101AB8002021104801F04EFD0F4B01221A700B4BEC
:101AC80000221A70084B00221A7025E0AFF300803C
:101AD800713D0AD7A370F93F2C0100205100002066
:101AE800740100207C0000200402002086000020F1
:101AF800BC010020000402405000002001221021F7
:101B0800134801F027FD00222021114801F022FD91
:101B1800104B01221A7001E000E000BF13E03B689F
:101B280001331B78032B0BD801A252F823F000BF16
:101B3800491B0008491B0008491B0008491B0008ED
:101B480000BF00E000BF00BF0837BD4680BD00BF32
:101B5800000402405000002080B483B000AF7860D9
:101B68007B6801331B78012B11D1224B5B78013341
:101B7800DAB2204B5A701F4B5B78042B02D11D4BF5
:101B880000225A707B68013300221A7015E07B68C6
:101B980002331B78012B10D1164B5B78002B02D136
:101BA800144B04225A70134B5B78013BDAB2114B89
:101BB8005A707B68023300221A707B681B78012BED
:101BC80012D10C4B1B780133DAB20A4B1A70094B4D
:101BD8001B78042B02D1074B00221A70054B0022F8
:101BE8005A707B6800221A7000BF0C37BD465DF83A
:101BF800047B70478400002080B58AB000AF78600D
:101C080007F10C0300221A605A609A60DA601A61C0
:101C18005A619A616023FB607B683B6100237B61AA
:101C28000023BB610023FB6100233B6200237B622E
:101C380007F10C0300221946074803F00BFA034684
:101C4800002B01D000F0F0F80021034802F0FEFF5D
:101C580000BF2837BD4680BD2C01002080B582B06A
:101C680000AF00F0EBFD03461C4A13600023FB7134
:101C78002CE01A4B1B68FA7919498A5C9B1AB3F550
:101C8800967F20D9154B1A68FB79D1B2144AD154E2
:101C9800FB79144AD35C1946134801F043FC034608
:101CA800002B10D1FB79114A0121D154FB790D4A3F
:101CB800D35C19460C4801F035FC0346012B00D0D3
:101CC800F4E700BF06E0FB790133FB71FB79022BD7
:101CD800CFD900BF00BF0837BD4680BD8C000020AB
:101CE800880000200C000020000002408000002036
:101CF80080B500AF00F0A2FD03461B4A13601A4BE3
:101D08001B681A4AD2789B1AB3F5967F27D9164BC7
:101D18001B68DAB2154BDA70154BDB781946154893
:101D280001F000FC0346002B19D1134B0122DA7095
:101D38000F4BDB7819460F4801F0F4FB0346012BE3
:101D4800F6D10E4B1B780133DAB20C4B1A700B4BE1
:101D58001B78032B02D1094B01221A7000BF074BD5
:101D68001B78184680BD00BF8C000020880000202A
:101D78000C00002000000240800000200502002026
:101D880080B582B000AF03460A46FB711346BB71AB
:101D9800FB79022B06D0022B3DDC002B28D0012B2F
:101DA80013D038E0BB791846FFF726FF00211C48FE
:101DB80002F0FCFF002210211A4801F0CBFB0022A0
:101DC8002021184801F0C6FB26E0BB791846FFF72A
:101DD80013FF0021124802F039FF01221021114897
:101DE80001F0B8FB002220210E4801F0B3FB13E0FC
:101DF800BB791846FFF700FF0021094802F026FFCB
:101E080000221021074801F0A5FB012220210548E6
:101E180001F0A0FB00E000BF00BF0837BD4680BD51
:101E28002C0100200004024080B400AF72B600BF4D
:101E380000BFFDE780B582B000AF00F01FFA44F69E
:101E48002063012278215B4801F0F8FD0346002B4E
:101E580001D00023A9E040F6C4137B6002E07B6850
:101E6800013B7B607B68002BF9D1AE2200217820F2
:101E780000F080FA20220021782000F07BFA10225E
:101E88000021782000F076FAB0220021782000F0B6
:101E980071FAC8220021782000F06CFA0022002193
:101EA800782000F067FA10220021782000F062FA0A
:101EB80040220021782000F05DFA8122002178205C
:101EC80000F058FAFF220021782000F053FAA122EE
:101ED8000021782000F04EFAA6220021782000F098
:101EE80049FAA8220021782000F044FA3F22002174
:101EF800782000F03FFAA4220021782000F03AFA76
:101F0800D3220021782000F035FA00220021782021
:101F180000F030FAD5220021782000F02BFAF022C8
:101F28000021782000F026FAD9220021782000F03C
:101F380021FA22220021782000F01CFADA2200215E
:101F4800782000F017FA12220021782000F012FA07
:101F5800DB220021782000F00DFA202200217820D1
:101F680000F008FA8D220021782000F003FA1422EC
:101F78000021782000F0FEF9AF220021782000F03F
:101F8800F9F92E220021782000F0F4F9002000F061
:101F980043F800F013F8084B00221A80064B002281
:101FA8005A80054B01225A71012318460837BD464D
:101FB80080BD00BFD80000200806002080B582B090
:101FC80000AF0023FB711DE0FB79503BDBB21A46E2
:101FD8000021782000F0CEF900220021782000F0BE
:101FE800C9F910220021782000F0C4F9FB79DB013F
:101FF800084A1A4480234021782000F055F9FB79DB
:102008000133FB71FB79072BDED900BF00BF08370E
:10201800BD4680BD0802002080B582B000AF0346EF
:10202800FB71FB79002B01D1002300E0FF234FF463
:1020380080621946034803F0C7FD00BF0837BD4654
:1020480080BD00BF0802002080B483B000AF034603
:10205800FB800B46BB801346FB70FB887F2B48D860
:10206800BB883F2B45D8264B1B79002B06D0FB7825
:10207800002B0CBF01230023DBB2FB70FB78012B84
:102088001AD1FA88BB88DB0898B20346DB011344EF
:102098001C4AD35C5AB2BB8803F00703012101FA3A
:1020A80003F35BB2134359B2FA880346DB011344C6
:1020B800C9B2144AD1541DE0FA88BB88DB0898B22B
:1020C8000346DB0113440F4AD35C5AB2BB8803F0C2
:1020D8000703012101FA03F35BB2DB435BB2134050
:1020E80059B2FA880346DB011344C9B2054AD154F0
:1020F80000E000BF0C37BD465DF8047B704700BFA9
:10210800080600200802002080B483B000AF034610
:102118000A46FB801346BB80054AFB881380044AA5
:10212800BB88538000BF0C37BD465DF8047B704701
:102138000806002080B586B000AF03463960FB7101
:102148001346BB71394B1B881A463B681B781344EE
:102158007F2B07DC354B5B881A463B685B7813445A
:102168003F2B01DD00235DE000237B614BE03B68F2
:102178005A68FB79203B3968497801FB03F3194613
:102188007B690B445B0013441B88FB6000233B61A5
:1021980030E0FA683B6902FA03F303F40043002BCA
:1021A80010D0224B1A883B699BB2134498B21F4B3C
:1021B8005A887B699BB213449BB2BA791946FFF7D8
:1021C80043FF14E0194B1A883B699BB2134498B239
:1021D800164B5A887B699BB2134499B2BB79002B82
:1021E8000CBF01230023DBB21A46FFF72DFF3B6922
:1021F80001333B613B681B781A463B699342C8D35D
:102208007B6901337B613B685B781A467B69934243
:10221800ADD3064B1B883A68127813449AB2034B25
:102228001A80FB7918461837BD4680BD080600207D
:1022380080B584B000AFF860B9601346FB7112E056
:10224800FB681B78FA79B9681846FFF773FF0346ED
:102258001A46FB681B789A4202D0FB681B7808E094
:10226800FB680133FB60FB681B78002BE8D1FB6837
:102278001B7818461037BD4680BD000080B483B077
:1022880000AF084B7B6002E07B68013B7B607B68AA
:10229800002BF9D100BF00BF0C37BD465DF8047BA9
:1022A800704700BF90D0030090B5C7B002AF044696
:1022B800084607F58871A1F588710A60194607F57F
:1022C8008873A3F2091322461A7007F58873A3F5D9
:1022D800857302461A7007F58873A3F586730A4654
:1022E8001A8007F58873A3F5827307F58872A2F53B
:1022F800857212781A70002387F80F3115E097F865
:102308000F3107F58872A2F5887212681A4497F897
:102318000F310133117807F58872A2F58272D15412
:1023280097F80F31013387F80F3197F80F319BB2C7
:1023380007F58872A2F5867212889A42DFD807F5E7
:102348008873A3F209131B7899B207F58873A3F56C
:1023580086731B8801339BB207F10C020A20009098
:10236800034801F06DFA00BF07F58A77BD4690BDB6
:10237800D800002080B586B002AF0346FB710B463B
:10238800BB7113467B71BB793B737B797B73FB799C
:1023980099B207F10C020A2300930223034801F0C3
:1023A8004FFA00BF1037BD4680BD00BFD8000020DF
:1023B80080B483B000AF00237B60104B5B6C0F4A86
:1023C80043F4804353640D4B5B6C03F480437B60A0
:1023D8007B6800233B60094B1B6C084A43F0805321
:1023E8001364064B1B6C03F080533B603B6800BFD3
:1023F8000C37BD465DF8047B704700BF00380240CB
:1024080080B58AB000AF786007F1140300221A6023
:102418005A609A60DA601A617B681B68174A9342AF
:1024280027D100233B61164B5B6C154A43F480733C
:102438005364134B5B6C03F480733B613B6900236B
:10244800FB600F4B1B6B0E4A43F0010313630C4BED
:102458001B6B03F00103FB60FB6803237B61032311
:10246800BB610023FB6107F114031946054800F01E
:10247800D5FE00BF2837BD4680BD00BF0020014003
:10248800003802400000024080B58AB000AF786092
:1024980007F1140300221A605A609A60DA601A6120
:1024A8007B681B68194A93422BD100233B61184B68
:1024B8001B6B174A43F002031363154B1B6B03F0A6
:1024C80002033B613B69C0237B611223BB6100238C
:1024D800FB6103233B6204237B6207F11403194663
:1024E8000C4800F09BFE0023FB60094B1B6C084A5C
:1024F80043F400131364064B1B6C03F40013FB60D6
:10250800FB6800BF2837BD4680BD00BF00540040AF
:10251800003802400004024080B586B000AF786001
:102528007B681B68264A93420ED100237B61254BAA
:102538005B6C244A43F001035364224B5B6C03F049
:1025480001037B617B6936E07B681B68B3F1804FD0
:1025580016D100233B611B4B1B6C1A4A43F0010345
:102568001364184B1B6C03F001033B613B690022A9
:1025780000211C2000F01BFE1C2000F034FE1AE095
:102588007B681B68104A934215D10023FB600D4BF2
:102598001B6C0C4A43F0020313640A4B1B6C03F0D8
:1025A8000203FB60FB68002200211D2000F0FFFDF4
:1025B8001D2000F018FE00BF1837BD4680BD00BFC3
:1025C80000000140003802400004004080B588B097
:1025D80000AF786007F10C0300221A605A609A6015
:1025E800DA601A617B681B68124A93421ED1002385
:1025F800BB60114B1B6B104A43F0010313630E4B76
:102608001B6B03F00103BB60BB684FF48073FB6076
:1026180002233B6100237B610023BB610123FB6133
:1026280007F10C031946054800F0F8FD00BF2037F4
:10263800BD4680BD00000140003802400000024055
:1026480080B400AF00BFFDE780B400AF00BFFDE776
:1026580080B400AF00BFFDE780B400AF00BFFDE766
:1026680080B400AF00BFFDE780B400AF00BFBD4637
:102678005DF8047B704780B400AF00BFBD465DF8CD
:10268800047B704780B400AF00BFBD465DF8047B93
:10269800704780B500AF00F0BDF800BF80BD80B5C1
:1026A80000AF082000F070FF00BF80BD80B500AF0C
:1026B800102000F069FF00BF80BD80B500AF20206A
:1026C80000F062FF402000F05FFF00BF80BD000007
:1026D80080B500AF024802F0CDFB00BF80BD00BF4F
:1026E8007401002080B500AF024802F0C3FB00BFB0
:1026F80080BD00BFBC01002080B400AF064BD3F8FA
:102708008830054A43F47003C2F8883000BFBD46DC
:102718005DF8047B704700BF00ED00E0DFF834D0BF
:10272800FFF7EAFF0C480D490D4A002302E0D45890
:10273800C4500433C4188C42F9D30A4A0A4C002303
:1027480001E013600432A242FBD303F045FAFEF71E
:102758005DFB7047000001200000002060000020A1
:10276800F46900086000002014060020FEE700005D
:1027780080B500AF0E4B1B680D4A43F4007313601D
:102788000B4B1B680A4A43F480631360084B1B68B1
:10279800074A43F480731360032000F0FDFC0F2008
:1027A80000F008F8FFF704FE0023184680BD00BFBC
:1027B800003C024080B582B000AF7860124B1A68C6
:1027C800124B1B7819464FF47A73B3FBF1F3B2FB43
:1027D800F3F3184600F015FD0346002B01D0012342
:1027E8000EE07B680F2B0AD8002279684FF0FF3083
:1027F80000F0DDFC064A7B681360002300E001233B
:1028080018460837BD4680BD540000205C000020F3
:102818005800002080B400AF064B1B781A46064BC0
:102828001B681344044A136000BFBD465DF8047B6F
:10283800704700BF5C0000201006002080B400AF85
:10284800034B1B681846BD465DF8047B704700BF04
:102858001006002080B584B000AF7860FFF7EEFF67
:10286800B8607B68FB60FB68B3F1FF3F05D00A4B9B
:102878001B781A46FB681344FB6000BFFFF7DEFFB6
:102888000246BB68D31AFA689A42F7D800BF00BF5D
:102898001037BD4680BD00BF5C00002080B584B005
:1028A80000AF78600023FB737B68002B01D1012304
:1028B80033E07B681B6C002B09D17868FFF7A0FD1B
:1028C8007B6800225A647B68002283F83C207B687E
:1028D8001B6C03F01003002B18D17B681B6C23F4CE
:1028E800885323F0020343F002027B681A64786875
:1028F80000F086FA7B6800225A647B681B6C23F020
:10290800030343F001027B681A6401E00123FB73AF
:102918007B68002283F83C20FB7B18461037BD46B5
:1029280080BD000080B485B000AF78600023BB6034
:102938007B6893F83C30012B01D1022397E07B6838
:10294800012283F83C207B681B689B6803F0010325
:10295800012B18D07B681B689A687B681B6842F05B
:1029680001029A60454B1B68454AA2FB03239A0C57
:1029780013465B001344BB6002E0BB68013BBB60CD
:10298800BB68002BF9D17B681B689B6803F00103C7
:10299800012B5FD17B681B6C23F4E06323F00103F8
:1029A80043F480727B681A647B681B685B6803F475
:1029B8008063002B07D07B681B6C23F4405343F4DF
:1029C80080527B681A647B681B6C03F48053B3F5F0
:1029D800805F06D17B685B6C23F006027B685A64D3
:1029E80002E07B6800225A647B68002283F83C205E
:1029F800244BFB607B681B686FF022021A60FB683F
:102A08005B6803F01F03002B0FD17B681B689B6872
:102A180003F04053002B29D17B681B689A687B68B8
:102A28001B6842F080429A6020E07B681B68164A67
:102A380093421BD17B681B689B6803F04053002BB3
:102A480014D17B681B689A687B681B6842F08042D7
:102A58009A600BE07B681B6C43F010027B681A6479
:102A68007B685B6C43F001027B685A64002318465C
:102A78001437BD465DF8047B704700BF5400002042
:102A880083DE1B43002301400020014080B584B051
:102A980000AF786039600023FB607B681B689B6827
:102AA80003F48063B3F5806F13D17B681B689B6860
:102AB80003F48073B3F5807F0BD17B681B6C43F004
:102AC80020027B681A647B68002283F83C2001237B
:102AD80063E0FFF7B3FEF86021E03B68B3F1FF3F26
:102AE8001DD03B68002B07D0FFF7A8FE0246FB6805
:102AF800D31A3A689A4212D27B681B681B6803F0A3
:102B08000203022B0BD07B681B6C43F004027B682A
:102B18001A647B68002283F83C2003233DE07B682D
:102B28001B681B6803F00203022BD6D17B681B6865
:102B38006FF012021A607B681B6C43F400727B68AA
:102B48001A647B681B689B6803F04053002B23D1F1
:102B58007B681B7E002B1FD17B681B68DB6A03F434
:102B68007003002B06D07B681B689B6803F48063A6
:102B7800002B11D17B681B6C23F480727B681A646C
:102B88007B681B6C03F48053002B05D17B681B6C9E
:102B980043F001027B681A64002318461037BD46CB
:102BA80080BD80B483B000AF78607B681B68DB6C45
:102BB80018460C37BD465DF8047B704780B485B075
:102BC80000AF786039600023BB607B6893F83C30C5
:102BD800012B01D1022305E17B68012283F83C2007
:102BE8003B681B68092B25D97B681B68D9683B683B
:102BF8001B689BB21A4613465B0013441E3B072210
:102C080002FA03F3DA437B681B680A40DA607B68E0
:102C18001B68D9683B689A683B681B689BB2184672
:102C280003465B0003441E3B9A407B681B680A43CB
:102C3800DA6022E07B681B6819693B681B689BB2F5
:102C48001A4613465B001344072202FA03F3DA43D9
:102C58007B681B680A401A617B681B6819693B68B6
:102C68009A683B681B689BB2184603465B0003449E
:102C78009A407B681B680A431A613B685B68062BAD
:102C880024D87B681B68596B3B685A6813469B00BD
:102C98001344053B1F2202FA03F3DA437B681B68DF
:102CA8000A405A637B681B68596B3B681B689BB278
:102CB80018463B685A6813469B001344053B00FAC4
:102CC80003F27B681B680A435A634CE03B685B6805
:102CD8000C2B24D87B681B68196B3B685A68134611
:102CE8009B001344233B1F2202FA03F3DA437B6859
:102CF8001B680A401A637B681B68196B3B681B6872
:102D08009BB218463B685A6813469B001344233B02
:102D180000FA03F27B681B680A431A6323E07B68A6
:102D28001B68D96A3B685A6813469B001344413BA9
:102D38001F2202FA03F3DA437B681B680A40DA624F
:102D48007B681B68D96A3B681B689BB218463B685E
:102D58005A6813469B001344413B00FA03F27B6810
:102D68001B680A43DA62224BFB607B681B68214AB6
:102D7800934209D13B681B68122B05D1FB685B683D
:102D880043F48002FB685A607B681B68194A9342C7
:102D980023D13B681B68102B03D03B681B68112BA1
:102DA8001BD1FB685B6843F40002FB685A603B6810
:102DB8001B68102B11D1104B1B68104AA2FB032370
:102DC8009A0C13469B0013445B00BB6002E0BB688F
:102DD800013BBB60BB68002BF9D17B68002283F8FC
:102DE8003C20002318461437BD465DF8047B704725
:102DF80000230140002001405400002083DE1B43D3
:102E080080B485B000AF7860794BFB60FB685B6885
:102E180023F44032FB685A60FB685A687B685B6839
:102E28001A43FB685A607B681B685A687B681B6892
:102E380022F480725A607B681B6859687B681B693A
:102E48001A027B681B680A435A607B681B685A68C9
:102E58007B681B6822F040725A607B681B6859685F
:102E68007B689A687B681B680A435A607B681B68A2
:102E78009A687B681B6822F400629A607B681B680A
:102E880099687B68DA687B681B680A439A607B6884
:102E98009B6A584A934222D07B681B689A687B6871
:102EA8001B6822F070629A607B681B6899687B686F
:102EB8009A6A7B681B680A439A607B681B689A68F1
:102EC8007B681B6822F040529A607B681B6899688F
:102ED8007B68DA6A7B681B680A439A600FE07B6844
:102EE8001B689A687B681B6822F070629A607B682E
:102EF8001B689A687B681B6822F040529A607B685E
:102F08001B689A687B681B6822F002029A607B68DB
:102F18001B6899687B681B7E5A007B681B680A439C
:102F28009A607B6893F82030002B1BD07B681B6865
:102F38005A687B681B6842F400625A607B681B68A9
:102F48005A687B681B6822F460425A607B681B6879
:102F580059687B685B6A013B5A037B681B680A43B4
:102F68005A6007E07B681B685A687B681B6822F414
:102F780000625A607B681B68DA6A7B681B6822F407
:102F88007002DA627B681B68D96A7B68DB69013B7F
:102F98001A057B681B680A43DA627B681B689A68B3
:102FA8007B681B6822F400729A607B681B689968CA
:102FB8007B6893F830305A027B681B680A439A6032
:102FC8007B681B689A687B681B6822F480629A6039
:102FD8007B681B6899687B685B699A027B681B68D9
:102FE8000A439A6000BF1437BD465DF8047B7047FA
:102FF800002301400100000F80B485B000AF786065
:103008007B6803F00703FB600C4BDB68BB60BA68A6
:103018004FF6FF031340BB60FB681A02BB681343FB
:1030280043F0BF6343F40033BB60044ABB68D3601A
:1030380000BF1437BD465DF8047B704700ED00E023
:1030480080B400AF044BDB681B0A03F00703184683
:10305800BD465DF8047B704700ED00E080B483B0A6
:1030680000AF0346FB7197F90730002B0BDBFB79A8
:1030780003F01F02074997F907305B09012000FA9E
:1030880002F241F8232000BF0C37BD465DF8047BEF
:10309800704700BF00E100E080B483B000AF034692
:1030A8003960FB7197F90730002B0ADB3B68DAB20D
:1030B8000C4997F907301201D2B20B4483F8002368
:1030C8000AE03B68DAB20849FB7903F00F03043BD6
:1030D8001201D2B20B441A7600BF0C37BD465DF818
:1030E800047B704700E100E000ED00E080B489B0A7
:1030F80000AFF860B9607A60FB6803F00703FB6112
:10310800FB69C3F10703042B28BF0423BB61FB69D8
:103118000433062B02D9FB69033B00E000237B61E3
:103128004FF0FF32BB6902FA03F3DA43BB681A4077
:103138007B699A404FF0FF317B6901FA03F3D94369
:103148007B680B40134318462437BD465DF8047B63
:103158007047000080B582B000AF78607B68013BA3
:10316800B3F1807F01D301230FE00A4A7B68013B5A
:1031780053600F214FF0FF30FFF78EFF054B002201
:103188009A60044B07221A60002318460837BD4688
:1031980080BD00BF10E000E080B582B000AF78606D
:1031A8007868FFF729FF00BF0837BD4680BD80B5A6
:1031B80086B000AF0346B9607A60FB7300237B6179
:1031C800FFF73EFF78617A68B9687869FFF78EFF84
:1031D800024697F90F3011461846FFF75DFF00BF0A
:1031E8001837BD4680BD80B582B000AF0346FB717D
:1031F80097F907301846FFF731FF00BF0837BD467B
:1032080080BD80B582B000AF78607868FFF7A2FF14
:10321800034618460837BD4680BD000080B489B013
:1032280000AF7860396000237B6100233B61002395
:10323800BB610023FB6159E10122FB6902FA03F338
:103248007B613B681B687A6913403B613A697B691B
:103258009A4240F048813B685B6803F00303012B06
:1032680005D03B685B6803F00303022B30D17B6811
:103278009B68BB61FB695B00032202FA03F3DB4333
:10328800BA691340BB613B68DA68FB695B0002FA04
:1032980003F3BA691343BB617B68BA699A607B68B8
:1032A8005B68BB610122FB6902FA03F3DB43BA697D
:1032B8001340BB613B685B681B0903F00102FB69B3
:1032C80002FA03F3BA691343BB617B68BA695A60AF
:1032D8003B685B6803F00303032B17D07B68DB684C
:1032E800BB61FB695B00032202FA03F3DB43BA69A3
:1032F8001340BB613B689A68FB695B0002FA03F301
:10330800BA691343BB617B68BA69DA603B685B687A
:1033180003F00303022B23D1FB69DA087B68083228
:1033280053F82230BB61FB6903F007039B000F22AF
:1033380002FA03F3DB43BA691340BB613B681A69BD
:10334800FB6903F007039B0002FA03F3BA6913430E
:10335800BB61FB69DA087B680832B96943F8221057
:103368007B681B68BB61FB695B00032202FA03F3FD
:10337800DB43BA691340BB613B685B6803F0030237
:10338800FB695B0002FA03F3BA691343BB617B680C
:10339800BA691A603B685B6803F44033002B00F09D
:1033A800A2800023FB60574B5B6C564A43F4804372
:1033B8005364544B5B6C03F48043FB60FB68524AD4
:1033C800FB699B08023352F82330BB61FB6903F0A9
:1033D80003039B000F2202FA03F3DB43BA6913408D
:1033E800BB617B68494A934219D07B68484A93423B
:1033F80013D07B68474A93420DD07B68464A934274
:1034080007D07B68454A934201D1042308E007238B
:1034180006E0032304E0022302E0012300E0002386
:10342800FA6902F0030292009340BA691343BB6140
:103438003549FB699B080233BA6941F82320384BA8
:103448009B68BB613B69DB43BA691340BB613B685E
:103458005B6803F48013002B03D0BA693B691343FC
:10346800BB612F4ABB6993602D4BDB68BB613B692D
:10347800DB43BA691340BB613B685B6803F4001324
:10348800002B03D0BA693B691343BB61244ABB696B
:10349800D360234B5B68BB613B69DB43BA6913406C
:1034A800BB613B685B6803F40033002B03D0BA6947
:1034B8003B691343BB611A4ABB695360184B1B68CD
:1034C800BB613B69DB43BA691340BB613B685B681E
:1034D80003F48033002B03D0BA693B691343BB6103
:1034E8000F4ABB691360FB690133FB61FB690F2B52
:1034F8007FF6A2AE00BF00BF2437BD465DF8047B4F
:10350800704700BF00380240003801400000024008
:103518000004024000080240000C02400010024073
:10352800003C014080B485B000AF78600B467B80DA
:103538007B681A697B881340002B02D00123FB7338
:1035480001E00023FB73FB7B18461437BD465DF88A
:10355800047B704780B483B000AF78600B467B80F3
:1035680013467B707B78002B03D07A887B689A613E
:1035780003E07B881A047B689A6100BF0C37BD465C
:103588005DF8047B7047000080B582B000AF034649
:10359800FB80084B5A69FB881340002B06D0054A6C
:1035A800FB885361FB881846FDF788FF00BF083782
:1035B800BD4680BD003C014080B584B000AF786056
:1035C8007B68002B01D101232BE17B6893F83D3008
:1035D800DBB2002B06D17B68002283F83C20786898
:1035E800FEF752FF7B68242283F83D207B681B6826
:1035F8001A687B681B6822F001021A607B681B68E6
:103608001A687B681B6842F400421A607B681B6872
:103618001A687B681B6822F400421A6001F0C8F936
:10362800F8607B685B68814A934207D8FB68804AE8
:10363800934294BF01230023DBB206E0FB687D4A76
:10364800934294BF01230023DBB2002B01D0012356
:10365800E7E0FB68784AA2FB03239B0CBB607B680E
:103668001B685B6823F03F017B681B68BA680A43E4
:103678005A607B681B681B6A23F03F017B685B68A4
:103688006A4A934202D8BB68013309E0BB684FF429
:10369800967202FB03F3694AA2FB03239B090133D9
:1036A8007A6812680B4313627B681B68DB6923F432
:1036B8004F4222F0FF027B685B685C498B4219D855
:1036C800FB68591E7B685B685B00B1FBF3F3591C10
:1036D80040F6FC730B40002B0AD0FB68591E7B6830
:1036E8005B685B00B1FBF3F30133C3F30B0351E0F9
:1036F80004234FE07B689B68002B11D1FB68581EA0
:103708007B6859680B465B000B44B0FBF3F301334D
:10371800C3F30B03002B0CBF01230023DBB212E021
:10372800FB68581E7B6859680B469B000B44990040
:103738000B44B0FBF3F30133C3F30B03002B0CBFB3
:1037480001230023DBB2002B01D0012322E07B6898
:103758009B68002B0ED1FB68581E7B6859680B4686
:103768005B000B44B0FBF3F30133C3F30B0343F4E7
:1037780000430FE0FB68581E7B6859680B469B00A6
:103788000B4499000B44B0FBF3F30133C3F30B0371
:1037980043F44043796809681343CB617B681B682D
:1037A8001B6823F0C0017B68DA697B681B6A1A43CF
:1037B8007B681B680A431A607B681B689B6823F454
:1037C800034323F0FF037A6811697A68D2681143CA
:1037D8007A6812680B4393607B681B68DB6823F088
:1037E800FF017B685A697B689B691A437B681B6881
:1037F8000A43DA607B681B681A687B681B6842F0BA
:1038080001021A607B6800221A647B68202283F810
:103818003D207B6800221A637B68002283F83E20E3
:10382800002318461037BD4680BD00BFA0860100A2
:103838007F841E00FF083D0083DE1B43D34D6210CA
:1038480080B588B002AFF8607A601A460B467B8173
:1038580013463B81FEF7F2FF7861FB6893F83D3031
:10386800DBB2202B40F0E0807B6900931923012212
:103878007049F86800F092FA0346002B01D0022341
:10388800D3E0FB6893F83C30012B01D10223CCE054
:10389800FB68012283F83C20FB681B681B6803F067
:1038A8000103012B07D0FB681B681A68FB681B68BB
:1038B80042F001021A60FB681B681A68FB681B6803
:1038C80022F400621A60FB68212283F83D20FB681D
:1038D800102283F83E20FB6800221A64FB687A688D
:1038E8005A62FB683A895A85FB685B8D9AB2FB6815
:1038F8001A85FB68504ADA6279897B693A6AF868FE
:1039080000F0CAF90346002B01D001238DE0002303
:103918003B61FB681B685B693B61FB681B689B69D3
:103928003B613B6966E07A69396AF86800F050FBE8
:103938000346002B0DD0FB681B6C042B07D1FB68DA
:103948001B681A68FB681B6842F400721A6001233E
:103958006BE0FB685B6A1A78FB681B681A61FB6896
:103968005B6A5A1CFB685A62FB685B8D9BB2013B21
:103978009AB2FB685A85FB681B8D013B9AB2FB68BB
:103988001A85FB681B685B6903F00403042B1BD1D1
:10399800FB681B8D002B17D0FB685B6A1A78FB68E5
:1039A8001B681A61FB685B6A5A1CFB685A62FB68F1
:1039B8005B8D9BB2013B9AB2FB685A85FB681B8DF5
:1039C800013B9AB2FB681A857A69396AF86800F08F
:1039D80047FB0346002B0DD0FB681B6C042B07D15B
:1039E800FB681B681A68FB681B6842F400721A605F
:1039F80001231AE0FB681B8D002B94D1FB681B6820
:103A08001A68FB681B6842F400721A60FB6820227F
:103A180083F83D20FB68002283F83E20FB680022E3
:103A280083F83C20002300E0022318461837BD46DF
:103A380080BD00BF020010000000FFFF80B58AB003
:103A480002AFF8607A603B600B467B81FEF7F6FEBA
:103A5800F8610023BB61FB6893F83D30DBB2202B93
:103A680040F01181FB690093192301228849F86805
:103A780000F094F90346002B01D0022304E1FB680F
:103A880093F83C30012B01D10223FDE0FB680122B1
:103A980083F83C20FB681B681B6803F00103012BBB
:103AA80007D0FB681B681A68FB681B6842F00102B4
:103AB8001A60FB681B681A68FB681B6822F40062BE
:103AC8001A60FB68242283F83D20FB6800221A64F0
:103AD800FB68704ADA62FB681B681A68FB681B6837
:103AE80042F480721A60FB6900933B6800224FF031
:103AF8000111F86800F052F90346002B0DD0FB685D
:103B08001B681B6803F48073B3F5807F03D1FB68DF
:103B18004FF400721A640323B6E07B89DBB21A46BD
:103B2800FB681B6802F0FE021A61FEF787FEF86167
:103B3800FB681B685B6903F00203022B0CBF0123BF
:103B48000023DBB2FB75FB681B685B6903F48063C9
:103B5800B3F5806F0CBF01230023DBB2BB7525E0F2
:103B6800FEF76CFE0246FB69D31A3A689A4202D302
:103B78003B68002B03D1FB68A02283F83D20FB683B
:103B88001B685B6903F00203022B0CBF01230023AF
:103B9800DBB2FB75FB681B685B6903F48063B3F5F4
:103BA800806F0CBF01230023DBB2BB75FB6893F861
:103BB8003D30DBB2A02B05D0FB7D002B02D1BB7DB5
:103BC800002BCDD0FB68202283F83D20FB681B68C2
:103BD8005B6903F00203022B29D1FB681B681A6892
:103BE800FB681B6842F400721A6000233B61FB68A3
:103BF8001B685B693B61FB681B689B693B613B69B0
:103C0800FB690093192301222149F86800F0C6F8DE
:103C18000346002B01D0012336E0FB68202283F8FD
:103C28003D20FB68002283F83C2000232CE0FB6841
:103C38001B681A68FB681B6842F400721A60FB680C
:103C48001B686FF480625A61FB6900931923012293
:103C58000F49F86800F0A2F80346002B01D00123B1
:103C680012E0BB690133BB61BA697B689A42FFF411
:103C780032AFFB68202283F83D20FB68002283F8DE
:103C88003C20012300E0022318462037BD4680BDB2
:103C9800020010000000FFFF80B588B002AFF86096
:103CA8007A603B600B467B81FB68DB6A7B617B69E2
:103CB800082B06D07B69012B03D07B6913F5803F65
:103CC80008D1FB681B681A68FB681B6842F480729D
:103CD8001A600BE0FB681B6B122B07D1FB681B6893
:103CE8001A68FB681B6842F480721A603B6800938C
:103CF8007B6800224FF00111F86800F04FF8034686
:103D0800002B0DD0FB681B681B6803F48073B3F5A8
:103D1800807F03D1FB684FF400721A64032335E0F7
:103D2800FB681B69B3F5804F08D17B89DBB21A4663
:103D3800FB681B6802F0FE021A611BE07B89DB113D
:103D4800DBB203F00603DBB263F00F03DAB2FB6801
:103D58001B681A613B687A680E49F86800F098F8A1
:103D68000346002B01D0012310E07B89DAB2FB68FF
:103D78001B681A613B687A680749F86800F088F898
:103D88000346002B01D0012300E000231846183712
:103D9800BD4680BD080001000200010080B584B066
:103DA80000AFF860B9603B601346FB7148E03B68C0
:103DB800B3F1FF3F44D0FEF741FD0246BB69D31A79
:103DC8003A689A4202D33B68002B39D1BB681B0C76
:103DD800DBB2012B0DD1FB681B685B69DA43BB685A
:103DE80013409BB2002B0CBF01230023DBB21A4601
:103DF8000CE0FB681B689B69DA43BB6813409BB205
:103E0800002B0CBF01230023DBB21A46FB799A4230
:103E180016D1FB6800221A63FB68202283F83D2034
:103E2800FB68002283F83E20FB681B6C43F02002ED
:103E3800FB681A64FB68002283F83C20012323E016
:103E4800BB681B0CDBB2012B0DD1FB681B685B69DF
:103E5800DA43BB6813409BB2002B0CBF012300233D
:103E6800DBB21A460CE0FB681B689B69DA43BB6847
:103E780013409BB2002B0CBF01230023DBB21A4670
:103E8800FB799A4293D0002318461037BD4680BD6F
:103E980080B584B000AFF860B9607A603B6071E0CB
:103EA800FB681B685B6903F48063B3F5806F23D1FB
:103EB800FB681B681A68FB681B6842F400721A608A
:103EC800FB681B686FF480625A61FB6800221A6302
:103ED800FB68202283F83D20FB68002283F83E20FF
:103EE800FB681B6C43F00402FB681A64FB68002241
:103EF80083F83C20012367E07B68B3F1FF3F41D0A2
:103F0800FEF79CFC02463B68D31A7A689A4202D3B1
:103F18007B68002B36D1BB681B0CDBB2012B0CD1A4
:103F2800FB681B685B69DA43BB6813409BB2002BD4
:103F380014BF01230023DBB20BE0FB681B689B69FD
:103F4800DA43BB6813409BB2002B14BF0123002344
:103F5800DBB2002B16D0FB6800221A63FB68202214
:103F680083F83D20FB68002283F83E20FB681B6C29
:103F780043F02002FB681A64FB68002283F83C20A7
:103F8800012321E0BB681B0CDBB2012B0CD1FB68C1
:103F98001B685B69DA43BB6813409BB2002B14BFF4
:103FA80001230023DBB20BE0FB681B689B69DA4343
:103FB800BB6813409BB2002B14BF01230023DBB264
:103FC800002B7FF46DAF002318461037BD4680BD27
:103FD80080B584B000AFF860B9607A6034E0F86802
:103FE80000F086F80346002B01D0012334E0BB68BB
:103FF800B3F1FF3F28D0FEF721FC02467B68D31AB5
:10400800BA689A4202D3BB68002B1DD1FB681B68B3
:104018005B6903F08003802B16D0FB6800221A63CB
:10402800FB68202283F83D20FB68002283F83E20AD
:10403800FB681B6C43F02002FB681A64FB680022D3
:1040480083F83C20012307E0FB681B685B6903F0E9
:104058008003802BC3D1002318461037BD4680BD8E
:1040680080B584B000AFF860B9607A6034E0F86871
:1040780000F03EF80346002B01D0012334E0BB6872
:10408800B3F1FF3F28D0FEF7D9FB02467B68D31A6D
:10409800BA689A4202D3BB68002B1DD1FB681B6823
:1040A8005B6903F00403042B16D0FB6800221A6333
:1040B800FB68202283F83D20FB68002283F83E201D
:1040C800FB681B6C43F02002FB681A64FB68002243
:1040D80083F83C20012307E0FB681B685B6903F059
:1040E8000403042BC3D1002318461037BD4680BDF6
:1040F80080B483B000AF78607B681B685B6903F4A9
:104108008063B3F5806F1BD17B681B686FF4806296
:104118005A617B6800221A637B68202283F83D205D
:104128007B68002283F83E207B681B6C43F0040206
:104138007B681A647B68002283F83C20012300E036
:10414800002318460C37BD465DF8047B7047000015
:1041580080B586B000AF78607B68002B01D1012361
:1041680067E27B681B6803F00103002B75D0884B5E
:104178009B6803F00C03042B0CD0854B9B6803F061
:104188000C03082B12D1824B5B6803F48003B3F550
:10419800800F0BD17E4B1B6803F40033002B5BD0E0
:1041A8007B685B68002B57D1012342E27B685B6820
:1041B800B3F5803F06D1764B1B68754A43F48033CC
:1041C80013601DE07B685B68B3F5A02F0CD1704BC2
:1041D8001B686F4A43F4802313606D4B1B686C4A5D
:1041E80043F4803313600BE0694B1B68684A23F47F
:1041F80080331360664B1B68654A23F48023136081
:104208007B685B68002B13D0FEF718FB386108E069
:10421800FEF714FB02463B69D31A642B01D903232A
:1042280007E25B4B1B6803F40033002BF0D014E06B
:10423800FEF704FB386108E0FEF700FB02463B6925
:10424800D31A642B01D90323F3E1514B1B6803F400
:104258000033002BF0D100E000BF7B681B6803F03F
:104268000203002B63D04A4B9B6803F00C03002B1E
:104278000BD0474B9B6803F00C03082B1CD1444B15
:104288005B6803F48003002B16D1414B1B6803F0D5
:104298000203002B05D07B68DB68012B01D00123CA
:1042A800C7E13B4B1B6823F0F8027B681B69DB0006
:1042B800374913430B603AE07B68DB68002B20D05A
:1042C800344B01221A60FEF7B9FA386108E0FEF7AC
:1042D800B5FA02463B69D31A022B01D90323A8E198
:1042E8002B4B1B6803F00203002BF0D0284B1B68F4
:1042F80023F0F8027B681B69DB00254913430B6038
:1043080015E0244B00221A60FEF798FA386108E09D
:10431800FEF794FA02463B69D31A022B01D903230C
:1043280087E11B4B1B6803F00203002BF0D17B686D
:104338001B6803F00803002B36D07B685B69002BF1
:1043480016D0154B01221A60FEF778FA386108E09A
:10435800FEF774FA02463B69D31A022B01D90323EC
:1043680067E10B4B5B6F03F00203002BF0D01BE0FF
:10437800094B00221A60FEF761FA38610EE0FEF779
:104388005DFA02463B69D31A022B07D9032350E191
:104398000038024000004742800E4742884B5B6F5E
:1043A80003F00203002BEAD17B681B6803F00403C7
:1043B800002B00F097800023FB75814B1B6C03F0EA
:1043C8008053002B0FD10023BB607D4B1B6C7C4AB4
:1043D80043F0805313647A4B1B6C03F08053BB602B
:1043E800BB680123FB75774B1B6803F48073002BB4
:1043F80018D1744B1B68734A43F480731360FEF73B
:104408001DFA386108E0FEF719FA02463B69D31A2B
:10441800022B01D903230CE16A4B1B6803F4807358
:10442800002BF0D07B689B68012B06D1644B1B6F77
:10443800634A43F0010313671CE07B689B68052B04
:104448000CD15F4B1B6F5E4A43F0040313675C4B50
:104458001B6F5B4A43F0010313670BE0584B1B6F5C
:10446800574A23F001031367554B1B6F544A23F037
:10447800040313677B689B68002B15D0FEF7DEF9F1
:1044880038610AE0FEF7DAF902463B69D31A41F2CD
:104498008832934201D90323CBE0494B1B6F03F0C9
:1044A8000203002BEED014E0FEF7C8F938610AE0E9
:1044B800FEF7C4F902463B69D31A41F288329342A7
:1044C80001D90323B5E03E4B1B6F03F00203002B19
:1044D800EED1FB7D012B05D1394B1B6C384A23F0FB
:1044E800805313647B689B69002B00F0A180344BD8
:1044F8009B6803F00C03082B5CD07B689B69022B3C
:1045080041D1314B00221A60FEF798F9386108E072
:10451800FEF794F902463B69D31A022B01D903230B
:1045280087E0274B1B6803F00073002BF0D17B68F2
:10453800DA697B681B6A1A437B685B6A9B011A43CA
:104548007B689B6A5B08013B1B041A437B68DB6A38
:104558001B061B4913434B601B4B01221A60FEF7D5
:104568006DF9386108E0FEF769F902463B69D31A2C
:10457800022B01D903235CE0114B1B6803F0007385
:10458800002BF0D054E0104B00221A60FEF756F9C9
:10459800386108E0FEF752F902463B69D31A022B4C
:1045A80001D9032345E0064B1B6803F00073002B79
:1045B800F0D13DE07B689B69012B07D1012338E0EE
:1045C8000038024000700040600047421B4B5B68A7
:1045D800FB607B689B69012B28D0FB6803F4800291
:1045E8007B68DB699A4221D1FB6803F03F027B6854
:1045F8001B6A9A421AD1FA6847F6C07313407A6860
:10460800526A9201934211D1FB6803F440327B68ED
:104618009B6A5B08013B1B049A4207D1FB6803F0C5
:1046280070627B68DB6A1B069A4201D0012300E0B6
:10463800002318461837BD4680BD00BF0038024029
:1046480080B584B000AF786039607B68002B01D1F9
:104658000123CCE0684B1B6803F007033A689A42D1
:104668000CD9654B3A68D2B21A70634B1B6803F0D9
:1046780007033A689A4201D00123B8E07B681B68B7
:1046880003F00203002B20D07B681B6803F00403AF
:10469800002B05D0594B9B68584A43F4E05393606C
:1046A8007B681B6803F00803002B05D0534B9B68FD
:1046B800524A43F460439360504B9B6823F0F002E6
:1046C8007B689B684D4913438B607B681B6803F0CC
:1046D8000103002B44D07B685B68012B07D1474B53
:1046E8001B6803F40033002B19D101237FE07B689A
:1046F8005B68022B03D07B685B68032B07D13F4BB9
:104708001B6803F00073002B09D101236FE03B4BBA
:104718001B6803F00203002B01D1012367E0374B2C
:104728009B6823F003027B685B68344913438B6002
:10473800FEF784F8F8600AE0FEF780F80246FB68A6
:10474800D31A41F28832934201D903234FE02B4B0D
:104758009B6803F00C027B685B689B009A42EBD174
:10476800254B1B6803F007033A689A420CD2224B88
:104778003A68D2B21A70204B1B6803F007033A68F4
:104788009A4201D0012332E07B681B6803F00403DE
:10479800002B08D0194B9B6823F4E0527B68DB6838
:1047A800164913438B607B681B6803F00803002BD2
:1047B80009D0124B9B6823F460427B681B69DB00BD
:1047C8000E4913438B6000F021F802460B4B9B689F
:1047D8001B0903F00F030A49CB5C22FA03F3094AC9
:1047E8001360094B1B681846FDF7E4FF00231846C1
:1047F8001037BD4680BD00BF003C02400038024073
:10480800A469000854000020580000202DE9B04F8A
:1048180090B000AF00237B630023FB6300233B635E
:104828000023BB63594B9B6803F00C03082B0DD086
:10483800082B00F2A180002B02D0042B03D09BE0B0
:10484800534BBB639BE0534BBB6398E04F4B5B6898
:1048580003F03F037B634D4B5B6803F48003002B3D
:1048680028D04A4B5B689B0900223B627A623B6A0C
:10487800C3F308000021474B03FB01F2002300FBB0
:1048880003F31344434AA0FB0212FA620A46BA62CF
:10489800FA6A1344FB627B6B0022BB61FA61D7E9B9
:1048A8000623D7E90A01FCF739F902460B461346F5
:1048B800FB6353E0354B5B689B0900223B617A61DF
:1048C8003B69C3F3080A4FF0000B52465B464FF0B2
:1048D80000004FF00001590141EAD261500102463F
:1048E8000B46B2EB0A0863EB0B094FF000024FF0DE
:1048F80000034FEA891343EA98634FEA8812B2EB40
:10490800080463EB09054FF000024FF00003EB00C9
:1049180043EA5473E20014461D4614EB0A033B6055
:1049280045EB0B037B604FF000024FF00003D7E923
:10493800004529468B02214643EA915321468A02C3
:10494800104619467B6B0022BB60FA60D7E9022348
:10495800FCF7E4F802460B461346FB630B4B5B6817
:104968001B0C03F0030301335B003B63FA6B3B6BE7
:10497800B2FBF3F3BB6302E0054BBB6300BFBB6B49
:1049880018464037BD46BDE8B08F00BF003802402A
:104998000024F40040787D0180B400AF034B1B680D
:1049A8001846BD465DF8047B704700BF54000020E0
:1049B80080B500AFFFF7F0FF0246054B9B689B0AE6
:1049C80003F007030349CB5C22FA03F3184680BDC2
:1049D80000380240B469000880B582B000AF786042
:1049E8007B68002B01D1012341E07B6893F83D30BF
:1049F800DBB2002B06D17B68002283F83C20786864
:104A0800FDF78AFD7B68022283F83D207B681A68DF
:104A18007B6804331946104600F0CEFC7B680122FF
:104A280083F846207B68012283F83E207B680122B8
:104A380083F83F207B68012283F840207B680122AD
:104A480083F841207B68012283F842207B68012299
:104A580083F843207B68012283F844207B68012285
:104A680083F845207B68012283F83D2000231846FF
:104A78000837BD4680BD000080B485B000AF7860BF
:104A88007B6893F83D30DBB2012B01D0012344E071
:104A98007B68022283F83D207B681B68DA687B68A4
:104AA8001B6842F00102DA607B681B681E4A934269
:104AB80018D07B681B68B3F1804F13D07B681B68E4
:104AC8001A4A93420ED07B681B68194A934209D050
:104AD8007B681B68174A934204D07B681B68164A98
:104AE800934211D17B681B689B6803F00703FB6046
:104AF800FB68062B10D07B681B681A687B681B68EC
:104B080042F001021A6007E07B681B681A687B683C
:104B18001B6842F001021A60002318461437BD468C
:104B28005DF8047B704700BF0000014000040040AE
:104B380000080040000C00400040014080B483B0F1
:104B480000AF78607B681B68DA687B681B6822F0B6
:104B58000102DA607B681B681A6A41F2111313407C
:104B6800002B0FD17B681B681A6A40F2444313403C
:104B7800002B07D17B681B681A687B681B6822F0CA
:104B880001021A607B68012283F83D200023184641
:104B98000C37BD465DF8047B704780B582B000AF26
:104BA80078607B68002B01D1012341E07B6893F892
:104BB8003D30DBB2002B06D17B68002283F83C2015
:104BC800786800F039F87B68022283F83D207B681A
:104BD8001A687B6804331946104600F0EDFB7B68C1
:104BE800012283F846207B68012283F83E207B68F7
:104BF800012283F83F207B68012283F840207B68EC
:104C0800012283F841207B68012283F842207B68D7
:104C1800012283F843207B68012283F844207B68C3
:104C2800012283F845207B68012283F83D20002378
:104C380018460837BD4680BD80B483B000AF7860A1
:104C480000BF0C37BD465DF8047B704780B584B063
:104C580000AF786039603B68002B09D17B6893F816
:104C68003E30DBB2012B14BF01230023DBB222E06C
:104C78003B68042B09D17B6893F83F30DBB2012BEA
:104C880014BF01230023DBB215E03B68082B09D1D0
:104C98007B6893F84030DBB2012B14BF012300235B
:104CA800DBB208E07B6893F84130DBB2012B14BF1C
:104CB80001230023DBB2002B01D0012368E03B680D
:104CC800002B04D17B68022283F83E2013E03B6866
:104CD800042B04D17B68022283F83F200BE03B6859
:104CE800082B04D17B68022283F8402003E07B680C
:104CF800022283F841207B681B6801223968184624
:104D080000F00CFE7B681B68234A934207D17B683E
:104D18001B685A6C7B681B6842F400425A647B68C3
:104D28001B681D4A934218D07B681B68B3F1804FFB
:104D380013D07B681B68194A93420ED07B681B68A6
:104D4800174A934209D07B681B68164A934204D0DD
:104D58007B681B68144A934211D17B681B689B6867
:104D680003F00703FB60FB68062B10D07B681B6809
:104D78001A687B681B6842F001021A6007E07B68CA
:104D88001B681A687B681B6842F001021A600023DE
:104D980018461037BD4680BD0000014000040040A1
:104DA80000080040000C00400040014080B582B07F
:104DB80000AF786039607B681B6800223968184644
:104DC80000F0ACFD7B681B68294A934217D17B68C9
:104DD8001B681A6A41F211131340002B0FD17B682C
:104DE8001B681A6A40F244431340002B07D17B68C2
:104DF8001B685A6C7B681B6822F400425A647B6803
:104E08001B681A6A41F211131340002B0FD17B68FB
:104E18001B681A6A40F244431340002B07D17B6891
:104E28001B681A687B681B6822F001021A603B68DD
:104E3800002B04D17B68012283F83E2013E03B68F5
:104E4800042B04D17B68012283F83F200BE03B68E8
:104E5800082B04D17B68012283F8402003E07B689B
:104E6800012283F84120002318460837BD4680BD3B
:104E78000000014080B584B000AF78607B681B6893
:104E8800DB68FB607B681B681B69BB60BB6803F061
:104E98000203002B20D0FB6803F00203002B1BD079
:104EA8007B681B686FF002021A617B6801221A771F
:104EB8007B681B689B6903F00303002B03D07868A9
:104EC80000F05BFA05E0786800F04DFA786800F0C9
:104ED8005EFA7B6800221A77BB6803F00403002B94
:104EE80020D0FB6803F00403002B1BD07B681B68F1
:104EF8006FF004021A617B6802221A777B681B68CC
:104F08009B6903F44073002B03D0786800F035FAEE
:104F180005E0786800F027FA786800F038FA7B68CE
:104F280000221A77BB6803F00803002B20D0FB6827
:104F380003F00803002B1BD07B681B686FF0080286
:104F48001A617B6804221A777B681B68DB6903F0A7
:104F58000303002B03D0786800F00FFA05E07868A7
:104F680000F001FA786800F012FA7B6800221A77DC
:104F7800BB6803F01003002B20D0FB6803F010037C
:104F8800002B1BD07B681B686FF010021A617B68CE
:104F980008221A777B681B68DB6903F44073002BCF
:104FA80003D0786800F0E9F905E0786800F0DBF9EB
:104FB800786800F0ECF97B6800221A77BB6803F088
:104FC8000103002B0CD0FB6803F00103002B07D072
:104FD8007B681B686FF001021A617868FCF71CFA9D
:104FE800BB6803F08003002B0CD0FB6803F0800340
:104FF800002B07D07B681B686FF080021A61786805
:1050080000F07CFDBB6803F04003002B0CD0FB686C
:1050180003F04003002B07D07B681B686FF0400249
:105028001A61786800F0BDF9BB6803F02003002B13
:105038000CD0FB6803F02003002B07D07B681B68AB
:105048006FF020021A61786800F04EFD00BF10373B
:10505800BD4680BD80B586B000AFF860B9607A60A3
:105068000023FB75FB6893F83C30012B01D1022328
:10507800AEE0FB68012283F83C207B680C2B00F231
:105088009F8001A252F823F0C5500008C9510008BA
:10509800C9510008C951000805510008C951000844
:1050A800C9510008C951000847510008C9510008F2
:1050B800C9510008C951000887510008FB681B68DE
:1050C800B968184600F004FAFB681B689A69FB681F
:1050D8001B6842F008029A61FB681B689A69FB68C2
:1050E8001B6822F004029A61FB681B689969BB6817
:1050F8001A69FB681B680A439A6164E0FB681B68CD
:10510800B968184600F04AFAFB681B689A69FB6898
:105118001B6842F400629A61FB681B689A69FB6825
:105128001B6822F480629A61FB681B689969BB68F6
:105138001B691A02FB681B680A439A6143E0FB6813
:105148001B68B968184600F095FAFB681B68DA69AD
:10515800FB681B6842F00802DA61FB681B68DA69C1
:10516800FB681B6822F00402DA61FB681B68D969D6
:10517800BB681A69FB681B680A43DA6123E0FB68AD
:105188001B68B968184600F0DFFAFB681B68DA6923
:10519800FB681B6842F40062DA61FB681B68DA6925
:1051A800FB681B6822F48062DA61FB681B68D969B6
:1051B800BB681B691A02FB681B680A43DA6102E0D4
:1051C8000123FB7500BFFB68002283F83C20FB7DB0
:1051D80018461837BD4680BD80B584B000AF7860EA
:1051E80039600023FB737B6893F83C30012B01D1B5
:1051F8000223B4E07B68012283F83C207B6802220A
:1052080083F83D207B681B689B68BB60BB6823F004
:105218007703BB60BB6823F47F43BB607B681B6874
:10522800BA689A603B681B68B3F5005F3ED0B3F577
:10523800005F00F28780B3F5805F00F08680B3F5E9
:10524800805F7FD8702B1AD0702B7BD8602B50D002
:10525800602B77D8502B3CD0502B73D8402B58D08C
:10526800402B6FD8302B64D0302B6BD8202B60D0DC
:10527800202B67D8002B5CD0102B5AD062E07B68BB
:1052880018683B6899683B685A683B68DB6800F0B7
:1052980025FB7B681B689B68BB60BB6843F0770392
:1052A800BB607B681B68BA689A604FE07B681868C7
:1052B8003B6899683B685A683B68DB6800F00EFBFE
:1052C8007B681B689A687B681B6842F480429A6016
:1052D8003CE07B6818683B6859683B68DB681A469D
:1052E80000F082FA7B681B685021184600F0DBFA50
:1052F8002CE07B6818683B6859683B68DB681A468D
:1053080000F0A1FA7B681B686021184600F0CBFA10
:105318001CE07B6818683B6859683B68DB681A467C
:1053280000F062FA7B681B684021184600F0BBFA5F
:105338000CE07B681A683B681B681946104600F049
:10534800B2FA03E00123FB7300E000BF7B6801228F
:1053580083F83D207B68002283F83C20FB7B1846BD
:105368001037BD4680BD80B483B000AF786000BF01
:105378000C37BD465DF8047B704780B483B000AF3E
:10538800786000BF0C37BD465DF8047B704780B479
:1053980083B000AF786000BF0C37BD465DF8047B72
:1053A800704780B483B000AF786000BF0C37BD464B
:1053B8005DF8047B7047000080B485B000AF78606A
:1053C80039607B681B68FB607B683A4A93420FD060
:1053D8007B68B3F1804F0BD07B68374A934207D084
:1053E8007B68364A934203D07B68354A934208D19A
:1053F800FB6823F07003FB603B685B68FA68134343
:10540800FB607B682B4A93421BD07B68B3F1804FCB
:1054180017D07B68284A934213D07B68274A934267
:105428000FD07B68264A93420BD07B68254A93426B
:1054380007D07B68244A934203D07B68234A93426F
:1054480008D1FB6823F44073FB603B68DB68FA68AB
:105458001343FB60FB6823F080023B685B691343DE
:10546800FB607B68FA681A603B689A687B68DA6256
:105478003B681A687B689A627B680E4A934203D13C
:105488003B681A697B681A637B6801225A617B68EA
:105498001B6903F00103012B05D17B681B6923F00D
:1054A80001027B681A6100BF1437BD465DF8047BB2
:1054B800704700BF000001400004004000080040A1
:1054C800000C0040004001400044014000480140F9
:1054D80080B487B000AF786039607B681B6A7B61F5
:1054E8007B681B6A23F001027B681A627B685B6831
:1054F8003B617B689B69FB60FB6823F07003FB6082
:10550800FB6823F00303FB603B681B68FA681343DE
:10551800FB607B6923F002037B613B689B687A69C7
:1055280013437B617B681C4A93420CD17B6923F04F
:1055380008037B613B68DB687A6913437B617B699D
:1055480023F004037B617B68134A934211D13B69C2
:1055580023F480733B613B6923F400733B613B6830
:105568005B693A6913433B613B689B693A6913433A
:105578003B617B683A695A607B68FA689A613B6864
:105588005A687B685A637B687A691A6200BF1C375D
:10559800BD465DF8047B70470000014080B487B0C9
:1055A80000AF786039607B681B6A7B617B681B6A27
:1055B80023F010027B681A627B685B683B617B683A
:1055C8009B69FB60FB6823F4E043FB60FB6823F402
:1055D8004073FB603B681B681B02FA681343FB605F
:1055E8007B6923F020037B613B689B681B017A6918
:1055F80013437B617B681E4A93420DD17B6923F07C
:1056080080037B613B68DB681B017A6913437B611C
:105618007B6923F040037B617B68154A934213D171
:105628003B6923F480633B613B6923F400633B617E
:105638003B685B699B003A6913433B613B689B6924
:105648009B003A6913433B617B683A695A607B68FF
:10565800FA689A613B685A687B689A637B687A69DA
:105668001A6200BF1C37BD465DF8047B704700BF57
:105678000000014080B487B000AF786039607B6873
:105688001B6A7B617B681B6A23F480727B681A62E1
:105698007B685B683B617B68DB69FB60FB6823F0C8
:1056A8007003FB60FB6823F00303FB603B681B6827
:1056B800FA681343FB607B6923F400737B613B68E2
:1056C8009B681B027A6913437B617B681D4A93427E
:1056D8000DD17B6923F400637B613B68DB681B02A7
:1056E8007A6913437B617B6923F480637B617B6800
:1056F800144A934213D13B6923F480533B613B69BD
:1057080023F400533B613B685B691B013A6913430F
:105718003B613B689B691B013A6913433B617B68AA
:105728003A695A607B68FA68DA613B685A687B684C
:10573800DA637B687A691A6200BF1C37BD465DF878
:10574800047B70470000014080B487B000AF7860E8
:1057580039607B681B6A3B617B681B6A23F4805253
:105768007B681A627B685B687B617B68DB69FB60CE
:10577800FB6823F4E043FB60FB6823F44073FB60A1
:105788003B681B681B02FA681343FB603B6923F400
:1057980000533B613B689B681B033A6913433B61B9
:1057A8007B68104A934209D17B6923F480437B616B
:1057B8003B685B699B017A6913437B617B687A6903
:1057C8005A607B68FA68DA613B685A687B681A64D1
:1057D8007B683A691A6200BF1C37BD465DF8047BD6
:1057E800704700BF0000014080B487B000AFF86088
:1057F800B9607A60FB681B6A7B61FB681B6A23F0EF
:105808000102FB681A62FB689B693B613B6923F0F4
:10581800F0033B617B681B013A6913433B617B6979
:1058280023F00A037B617A69BB6813437B61FB68D9
:105838003A699A61FB687A691A6200BF1C37BD46EB
:105848005DF8047B704780B487B000AFF860B9603A
:105858007A60FB681B6A7B61FB681B6A23F0100295
:10586800FB681A62FB689B693B613B6923F47043E0
:105878003B617B681B033A6913433B617B6923F0F7
:10588800A0037B61BB681B017A6913437B61FB68DA
:105898003A699A61FB687A691A6200BF1C37BD468B
:1058A8005DF8047B704780B485B000AF78603960DC
:1058B8007B689B68FB60FB6823F07003FB603A68B9
:1058C800FB68134343F00703FB607B68FA689A6040
:1058D80000BF1437BD465DF8047B704780B487B0BD
:1058E80000AFF860B9607A603B60FB689B687B61D9
:1058F8007B6923F47F437B613B681A027B681A4308
:10590800BB6813437A6913437B61FB687A699A60C1
:1059180000BF1C37BD465DF8047B704780B487B074
:1059280000AFF860B9607A60BB6803F01F0301221A
:1059380002FA03F37B61FB681A6A7B69DB431A404E
:10594800FB681A62FB681A6ABB6803F01F03796870
:1059580001FA03F31A43FB681A6200BF1C37BD46FD
:105968005DF8047B7047000080B485B000AF7860B4
:1059780039607B6893F83C30012B01D1022350E059
:105988007B68012283F83C207B68022283F83D2053
:105998007B681B685B68FB607B681B689B68BB60F7
:1059A800FB6823F07003FB603B681B68FA681343CD
:1059B800FB607B681B68FA685A607B681B681C4A36
:1059C800934218D07B681B68B3F1804F13D07B6873
:1059D8001B68184A93420ED07B681B68164A93428C
:1059E80009D07B681B68154A934204D07B681B6802
:1059F800134A93420CD1BB6823F08003BB603B6819
:105A08005B68BA681343BB607B681B68BA689A60B6
:105A18007B68012283F83D207B68002283F83C20C4
:105A2800002318461437BD465DF8047B704700BF55
:105A3800000001400004004000080040000C004045
:105A48000040014080B485B000AF78603960002321
:105A5800FB607B6893F83C30012B01D102233DE0C9
:105A68007B68012283F83C20FB6823F0FF023B6837
:105A7800DB681343FB60FB6823F440723B689B6858
:105A88001343FB60FB6823F480623B685B68134345
:105A9800FB60FB6823F400623B681B681343FB60F0
:105AA800FB6823F480523B681B691343FB60FB6867
:105AB80023F400523B685B691343FB60FB6823F4E3
:105AC80080423B68DB691343FB607B681B68FA68AC
