:020000040800F2
:1000000000000120D933000871310008793100085F
:10001000813100088931000891310008000000009A
:1000200000000000000000000000000099310008FE
:10003000A731000800000000B5310008C3310008F6
:10004000293400082934000829340008293400081C
:10005000293400082934000829340008293400080C
:1000600029340008CF310008DD31000829340008A8
:1000700029340008293400082934000829340008EC
:100080002934000829340008293400080000000041
:10009000000000000000000000000000EB3100083C
:1000A00029340008293400082934000829340008BC
:1000B00001320008153200082934000829340008EC
:1000C000293400082934000829340008293400089C
:1000D00029340008293400082934000800000000F1
:1000E00029340008293400082934000800000000E1
:1000F000000000000000000000000000293400089B
:1001000000000000293400082934000829340008C0
:1001100000000000000000000000000000000000DF
:10012000293400082934000829340008293400083B
:10013000293400080000000000000000000000005A
:10014000000000000000000000000000293400084A
:10015000293400082934000829340008293400080B
:1001600029340008293400080000000000000000C5
:10017000000000000000000000000000000000007F
:10018000000000002934000800000000000000000A
:040190002934000806
:1001A00010B5054C237833B9044B13B10448AFF3B1
:1001B00000800123237010BD84C8002000000000CF
:1001C000109F000808B5034B1BB103490348AFF368
:1001D000008008BD0000000088C80020109F0008B3
:1001E00001F0FF01102A2BDB10F0070F08D010F8E8
:1001F000013B013A8B422DD010F0070F42B3F6D1EC
:10020000F0B441EA012141EA014122F007047FF004
:1002100000070023F0E80256083C85EA010586EA5B
:10022000010685FA47F5A3FA87F586FA47F6A5FA97
:1002300087F68EB9EED1F0BC01F0FF0102F00702A3
:1002400032B110F8013B013A83EA010313B1F8D14E
:100250000020704701387047002D06BF354603382F
:10026000073815F0010F07D1013015F4807F02BF68
:10027000013015F4C03F0130F0BC0138704700BFB9
:10028000034613F8012B002AFBD1181A01387047D6
:1002900081F0004102E000BF83F0004330B54FEA37
:1002A00041044FEA430594EA050F08BF90EA020FA4
:1002B0001FBF54EA000C55EA020C7FEA645C7FEA37
:1002C000655C00F0E2804FEA5454D4EB5555B8BF5A
:1002D0006D420CDD2C4480EA020281EA030382EACB
:1002E000000083EA010180EA020281EA0303362D5D
:1002F00088BF30BD11F0004F4FEA01314FF4801C30
:100300004CEA113102D0404261EB410113F0004F41
:100310004FEA03334CEA133302D0524263EB4303F8
:1003200094EA050F00F0A780A4F10104D5F1200E96
:100330000DDB02FA0EFC22FA05F2801841F10001F1
:1003400003FA0EF2801843FA05F359410EE0A5F1C5
:1003500020050EF1200E012A03FA0EFC28BF4CF0F6
:10036000020C43FA05F3C01851EBE37101F00045AC
:1003700007D54FF0000EDCF1000C7EEB00006EEBB9
:100380000101B1F5801F1BD3B1F5001F0CD3490843
:100390005FEA30004FEA3C0C04F101044FEA44529A
:1003A00012F5800F80F09A80BCF1004F08BF5FEA21
:1003B000500C50F1000041EB045141EA050130BD01
:1003C0005FEA4C0C404141EB0101013C28BFB1F513
:1003D000801FE9D291F0000F04BF01460020B1FA5E
:1003E00081F308BF2033A3F10B03B3F120020CDA31
:1003F0000C3208DD02F1140CC2F10C0201FA0CF00F
:1004000021FA02F10CE002F11402D8BFC2F1200C73
:1004100001FA02F120FA0CFCDCBF41EA0C01904029
:10042000E41AA2BF01EB0451294330BD6FEA040472
:100430001F3C1CDA0C340EDC04F11404C4F120025D
:1004400020FA04F001FA02F340EA030021FA04F36F
:1004500045EA030130BDC4F10C04C4F1200220FAC6
:1004600002F001FA04F340EA0300294630BD21FA04
:1004700004F0294630BD94F0000F83F4801306BFCA
:1004800081F480110134013D4EE77FEA645C18BFBE
:100490007FEA655C29D094EA050F08BF90EA020F55
:1004A00005D054EA000C04BF1946104630BD91EA4D
:1004B000030F1EBF0021002030BD5FEA545C05D150
:1004C0004000494128BF41F0004130BD14F580048F
:1004D0003CBF01F5801130BD01F0004545F0FE4103
:1004E00041F470014FF0000030BD7FEA645C1ABF38
:1004F000194610467FEA655C1CBF0B46024650EA6F
:10050000013406BF52EA033591EA030F41F400219A
:1005100030BD00BF90F0000F04BF0021704730B520
:100520004FF4806404F132044FF000054FF00001F5
:1005300050E700BF90F0000F04BF0021704730B5B6
:100540004FF4806404F1320410F0004548BF40428B
:100550004FF000013EE700BF42004FEAE2014FEAE0
:1005600031014FEA02701FBF12F07F4393F07F4FBB
:1005700081F06051704732F07F4208BF704793F0BE
:100580007F4F04BF41F40021704730B54FF46074D1
:1005900001F0004521F000411CE700BF50EA0102D4
:1005A00008BF704730B54FF000050AE050EA01027D
:1005B00008BF704730B511F0004502D5404261EBED
:1005C00041014FF4806404F132045FEA915C3FF42E
:1005D000D8AE4FF003025FEADC0C18BF03325FEACB
:1005E000DC0C18BF033202EBDC02C2F1200300FA7C
:1005F00003FC20FA02F001FA03FE40EA0E0021FAA1
:1006000002F11444BDE600BF70B54FF0FF0C4CF48E
:10061000E06C1CEA11541DBF1CEA135594EA0C0F40
:1006200095EA0C0F00F0DEF82C4481EA030621EA7B
:100630004C5123EA4C5350EA013518BF52EA0335B6
:1006400041F4801143F4801338D0A0FB02CE4FF068
:100650000005E1FB02E506F00042E0FB03E54FF098
:100660000006E1FB03569CF0000F18BF4EF0010E90
:10067000A4F1FF04B6F5007F64F5407404D25FEA8C
:100680004E0E6D4146EB060642EAC62141EA55513F
:100690004FEAC52040EA5E504FEACE2EB4F1FD0C81
:1006A00088BFBCF5E06F1ED8BEF1004F08BF5FEAFF
:1006B000500E50F1000041EB045170BD06F00046B1
:1006C00046EA010140EA020081EA0301B4EB5C045E
:1006D000C2BFD4EB0C0541EA045170BD41F4801156
:1006E0004FF0000E013C00F3AB8014F1360FDEBF7B
:1006F000002001F0004170BDC4F10004203C35DA57
:100700000C341BDC04F11404C4F1200500FA05F3D9
:1007100020FA04F001FA05F240EA020001F000427A
:1007200021F0004110EBD37021FA04F642EB0601F0
:100730005EEA430E08BF20EAD37070BDC4F10C041A
:10074000C4F1200500FA04F320FA05F001FA04F2DE
:1007500040EA020001F0004110EBD37041F10001CA
:100760005EEA430E08BF20EAD37070BDC4F12005D5
:1007700000FA05F24EEA020E20FA04F301FA05F23D
:1007800043EA020321FA04F001F0004121FA04F2E5
:1007900020EA020000EBD3705EEA430E08BF20EAB5
:1007A000D37070BD94F0000F0FD101F000464000EF
:1007B00041EB010111F4801F08BF013CF7D041EA71
:1007C000060195F0000F18BF704703F00046520075
:1007D00043EB030313F4801F08BF013DF7D043EA46
:1007E0000603704794EA0C0F0CEA135518BF95EAFC
:1007F0000C0F0CD050EA410618BF52EA4306D1D183
:1008000081EA030101F000414FF0000070BD50EAA1
:10081000410606BF1046194652EA430619D094EA2B
:100820000C0F02D150EA013613D195EA0C0F05D115
:1008300052EA03361CBF104619460AD181EA030169
:1008400001F0004141F0FE4141F470014FF0000021
:1008500070BD41F0FE4141F4780170BD70B54FF0BC
:10086000FF0C4CF4E06C1CEA11541DBF1CEA13553C
:1008700094EA0C0F95EA0C0F00F0A7F8A4EB05041E
:1008800081EA030E52EA03354FEA013100F0888015
:100890004FEA03334FF0805545EA131343EA1263DE
:1008A0004FEA022245EA111545EA10654FEA002693
:1008B0000EF000419D4208BF964244F1FD0404F54C
:1008C000407402D25B084FEA3202B61A65EB0305A8
:1008D0005B084FEA32024FF480104FF4002CB6EB65
:1008E000020E75EB030E22BFB61A754640EA0C00E5
:1008F0005B084FEA3202B6EB020E75EB030E22BF25
:10090000B61A754640EA5C005B084FEA3202B6EB65
:10091000020E75EB030E22BFB61A754640EA9C0024
:100920005B084FEA3202B6EB020E75EB030E22BFF4
:10093000B61A754640EADC0055EA060E18D04FEAB2
:10094000051545EA16754FEA06164FEAC30343EA52
:1009500052734FEAC2025FEA1C1CC0D111F4801F1F
:100960000BD141EA00014FF000004FF0004CB6E718
:1009700011F4801F04BF01430020B4F1FD0C88BFB7
:10098000BCF5E06F3FF6AFAEB5EB030C04BFB6EBC2
:10099000020C5FEA500C50F1000041EB045170BDB5
:1009A0000EF0004E4EEA113114EB5C04C2BFD4EBE2
:1009B0000C0541EA045170BD41F480114FF0000E66
:1009C000013C90E645EA060E8DE60CEA135594EAE2
:1009D0000C0F08BF95EA0C0F3FF43BAF94EA0C0FE5
:1009E0000AD150EA01347FF434AF95EA0C0F7FF45A
:1009F00025AF104619462CE795EA0C0F06D152EAAE
:100A000003353FF4FDAE1046194622E750EA410691
:100A100018BF52EA43067FF4C5AE50EA41047FF4A2
:100A20000DAF52EA43057FF4EBAE12E74FF0FF3C07
:100A300006E000BF4FF0010C02E000BF4FF0010CD8
:100A40004DF804CD4FEA410C7FEA6C5C4FEA430C51
:100A500018BF7FEA6C5C1BD001B050EA410C0CBFA0
:100A600052EA430C91EA030F02BF90EA020F002002
:100A7000704710F1000F91EA030F58BF994208BF69
:100A800090422CBFD8176FEAE37040F00100704726
:100A90004FEA410C7FEA6C5C02D150EA013C07D17D
:100AA0004FEA430C7FEA6C5CD6D152EA033CD3D0C8
:100AB0005DF8040B704700BF8446104662468C46C2
:100AC0001946634600E000BF01B5FFF7B7FF0028F5
:100AD00048BF10F1000F01BD4DF808EDFFF7F4FF1E
:100AE0000CBF012000205DF808FB00BF4DF808EDA9
:100AF000FFF7EAFF34BF012000205DF808FB00BFCC
:100B00004DF808EDFFF7E0FF94BF012000205DF8ED
:100B100008FB00BF4DF808EDFFF7CEFF94BF0120A2
:100B200000205DF808FB00BF4DF808EDFFF7C4FF9B
:100B300034BF012000205DF808FB00BF4FEA410CE4
:100B40007FEA6C5C02D150EA013C0AD14FEA430CC7
:100B50007FEA6C5C02D152EA033C02D14FF0000004
:100B600070474FF0010070474FEA410212F5001242
:100B700015D211D56FF47873B3EB625212D94FEAE4
:100B8000C12343F0004343EA505311F0004F23FACE
:100B900002F018BF404270474FF00000704750EA23
:100BA000013005D111F0004008BF6FF000407047E0
:100BB0004FF00000704700BF4FEA4102B2F1E0433E
:100BC00024BFB3F5001CDCF1FE5C0DD901F0004C34
:100BD0004FEAC0024CEA5070B2F1004F40EB830084
:100BE00008BF20F00100704711F0804F21D113F1B0
:100BF0003872BCBF01F00040704741F480114FEAE9
:100C00005252C2F11802C2F1200C10FA0CF320FA71
:100C100002F018BF40F001004FEAC1234FEAD3238E
:100C200003FA0CFC40EA0C0023FA02F34FEA4303F8
:100C3000CCE77FEA625307D150EA01331EBF4FF081
:100C4000FE4040F44000704701F0004040F0FE409C
:100C500040F40000704700BF53B94AB9002908BFEB
:100C600000281CBF4FF0FF314FF0FF3000F06AB991
:100C7000ADF1080C6DE904CE00F006F8DDF804E0F3
:100C8000DDE9022304B070472DE9F047089D0C46CA
:100C9000002B4ED194468C458646B2FA82F262D938
:100CA0004AB1C2F12003914020FA03F30CFA02FC8E
:100CB000194300FA02FE4FEA1C471FFA8CF6B1FBFB
:100CC000F7F44FEA1E4307FB141143EA014304FB08
:100CD00006F199420AD91CEB030304F1FF3080F0BE
:100CE0001281994240F20F81023C6344591A1FFA63
:100CF0008EF3B1FBF7F007FB101143EA014300FB51
:100D000006F69E420AD91CEB030300F1FF3180F086
:100D1000FC809E4240F2F980634402389B1B40EA0B
:100D2000044000211DB1D3400022C5E90032BDE8D6
:100D3000F0878B4205D90DB1C5E9000100210846B5
:100D4000F5E7B3FA83F1002946D1A34202D39042DA
:100D5000C0F0F080861A64EB03030120002DE6D07A
:100D6000C5E90063E3E7002A40F09080A1EB0C04A2
:100D70004FEA1C481FFA8CF70121B4FBF8F64FEA42
:100D80001E4308FB164443EA044307FB06F098425F
:100D900008D91CEB030306F1FF3402D2984200F29B
:100DA000CD8026461C1A1FFA8EF3B4FBF8F008FB20
:100DB000104443EA044300FB07F79F4208D91CEBA9
:100DC000030300F1FF3402D29F4200F2B0802046BC
:100DD000DB1B40EA0640A5E7C1F120068B4022FA62
:100DE00006F71F4320FA06FC04FA01F343EA0C035A
:100DF000F44000FA01F8380C4FEA1349B4FBF0FE56
:100E00001FFA87FC00FB1E4449EA04440EFB0CF960
:100E1000A14502FA01F20AD93C190EF1FF3A80F01D
:100E20008480A14540F28180AEF1020E3C44A4EBE7
:100E300009041FFA83F9B4FBF0F300FB134449EAF9
:100E4000044403FB0CFCA44507D93C1903F1FF3013
:100E500067D2A44565D9023B3C4443EA0E40A0FB5F
:100E60000293A4EB0C049C42CE469C4651D34ED038
:100E700055B1B8EB0E0364EB0C0404FA06F6CB4054
:100E80001E43CC40C5E90064002150E7C2F12003B5
:100E900020FA03F10CFA02FC24FA03F394400C4309
:100EA0004FEA1C4800FA02FE1FFA8CF7B3FBF8F079
:100EB00008FB1031230C43EA014300FB07F1994280
:100EC00008D91CEB030300F1FF362CD299422AD932
:100ED000023863445B1AA4B2B3FBF8F108FB113388
:100EE00044EA034401FB07F3A34208D91CEB0404C2
:100EF00001F1FF3613D2A34211D902396444E41A36
:100F000041EA004139E70446F0E6084606E7C845ED
:100F1000AED2B9EB020E63EB070C0138A8E73146FD
:100F2000EDE7034699E73046D4E7D6467FE76344CA
:100F300002384DE70646234608460FE7023E634463
:100F400030E700BF704700BF90B585B002AF0446E0
:100F5000084611461A462346FB800346BB800B46D3
:100F60007B8013463B80F888B9887A883C883B8B25
:100F70000093234600F0CAFA00BF0C37BD4690BD6F
:100F800080B584B002AF0346FB80084BB3F9002064
:100F9000074BB3F90010FB8800930B46002100209B
:100FA000FFF7D2FF00BF0837BD4680BDA0C80020B4
:100FB000A2C8002080B500AF00224FF400710248A3
:100FC00003F026F900BF80BD0000024080B500AFED
:100FD00001224FF40071024803F01AF900BF80BDEE
:100FE0000000024080B500AF00224FF48051074856
:100FF00003F00EF9052002F08BFA01224FF4805124
:10100000024803F005F900BF80BD00BF00040240A4
:1010100080B582B000AF0346FB7100224FF48041DF
:10102000064803F0F5F8F91D4FF0FF33012204489C
:1010300004F011FE00BF0837BD4680BD0004024029
:10104000B8CA002080B582B000AF78603960012254
:101050004FF48041074803F0DBF83B689AB24FF049
:10106000FF337968044804F0F6FD00BF0837BD4639
:1010700080BD00BF00040240B8CA002080B584B023
:1010800000AF78607B685A1C7A601B78FB7334E091
:101090007B685A1C7A601B78FB72FB7A1846FFF754
:1010A000B7FF7B685A1C7A601B78BB72BB7A9BB215
:1010B00003F08003BB81BB7A03F07F03BB72BB7A72
:1010C000002B08D0BB7A19467868FFF7BBFFBB7AC4
:1010D0007A6813447B60BB89002B0ED07B685A1C56
:1010E0007A601B78BB81BB89FF2B02D14FF4FA7366
:1010F000BB81BB89184602F00BFAFB7B5A1EFA73C0
:10110000002BC5D100BF00BF1037BD4680BD000019
:1011100090B585B000AF0446084611461A462346EE
:10112000FB710346BB710B467B7113463B712A2052
:10113000FFF76EFF00233B73174B1A78FB791344BC
:10114000DBB27B730023BB73134B1A787B79134498
:10115000DBB2FB7307F10C0304211846FFF772FFA3
:101160002B20FFF755FF0D4B1A78BB791344DBB2E8
:101170007B730A4B1A783B791344DBB2FB7307F19C
:101180000C0304211846FFF75DFF2C20FFF740FFFA
:1011900000BF1437BD4690BDA7C80020A8C80020D6
:1011A00080B582B000AF0346FB71FFF703FFFFF786
:1011B00019FF0C48FFF762FF0B48FFF75FFF0B4872
:1011C000FFF75CFF0A4B00221A700A4B00221A70CC
:1011D000FB79184600F010F8FFF7F8FE00BF08375B
:1011E000BD4680BD789F0008B09F0008C09F0008E2
:1011F000A5C80020A6C8002080B584B000AF034673
:10120000FB710023FB73FB7903F00303DAB2334B6A
:101210001A70324B1B78032B4ED801A252F823F0E0
:1012200031120008531200087512000897120008C6
:10123000C823FB732A4BA0221A802A4B80221A80D3
:10124000294B1A78294B1A70294B1A78294B1A7096
:1012500032E0A823FB73234BA0221A80204B80226C
:101260001A80214B1A78234B1A70214B1A781F4B86
:101270001A7021E00823FB73194BA0221A80194B26
:1012800080221A80184B1A78184B1A70184B1A784B
:10129000184B1A7010E06823FB73124BA0221A80BF
:1012A0000F4B80221A80104B1A78124B1A70104B79
:1012B0001A780E4B1A7000BFFFF77CFE3620FFF73E
:1012C000A7FE07F10F0301211846FFF7BBFEFFF74A
:1012D0007DFE00BF1037BD4680BD00BFA4C8002002
:1012E000A2C80020A0C80020A5C80020A7C80020D0
:1012F000A6C80020A8C8002080B584B000AF03466F
:10130000FB800B46BB8013467B80FB88174AB2F9F3
:101310000020934226DABB88154AB2F90020934296
:1013200020DAFFF747FEFB88D8B2BB88D9B2FB882A
:10133000DBB20133DAB2BB88DBB20133DBB2FFF7D9
:10134000E7FE7B881B0A9BB2DBB23B737B88DBB278
:101350007B7307F10C0302211846FFF773FEFFF7BA
:1013600035FE00E000BF1037BD4680BDA0C800209C
:10137000A2C8002082B090B589B000AF7B6303465D
:10138000FB800B46BB801346FB70FB88D8B2BB8842
:10139000D9B2FB88DAB297F834301344DBB2013BA0
:1013A000DCB2BB88DAB297F835301344DBB2013BCC
:1013B000DBB22246FFF7ACFE0023FB6143E0BA6BD1
:1013C000FB78203B97F8351001FB03F31946FB69C6
:1013D0000B445B0013441B887B610023BB6129E045
:1013E0007A69BB6902FA03F303F40043002B0ED0C1
:1013F000BB8F1B0A9BB2DBB23B74BB8FDBB27B742F
:1014000007F1100302211846FFF71CFE0FE0B7F8A2
:1014100040301B0A9BB2DBB23B73B7F84030DBB203
:101420007B7307F10C0302211846FFF70BFEBB6923
:101430000133BB6197F834301A46BB699342CFD36E
:10144000FB690133FB6197F835301A46FB6993421B
:10145000B5D300BF00BF2437BD46BDE8904002B001
:101460007047000082B080B586B004AF3A607B61FF
:101470000346FB800B46BB80FFF79CFD33E0FB88F7
:101480003A7D13441F4AB2F90020934216DB002331
:10149000FB807B7D1A46BB881344BB80BB887A7D6A
:1014A0001344194AB2F90020934221DA3B681B78B1
:1014B000202B03D13B6801333B6014E03B681A7872
:1014C000B988F8883B8C0293BB8B0193BB6900936E
:1014D0007B69FFF74FFF3B7D1A46FB881344FB8077
:1014E0003B6801333B603B681B78002BC7D100E0B1
:1014F00000BFFFF76BFD00BF0837BD46BDE8804069
:1015000002B07047A0C80020A2C8002090B585B0E6
:1015100000AF0446084611461A462346FB800346A0
:10152000BB800B467B8013463B80FB88384AB2F970
:101530000020934267DABB88364AB2F90020934212
:1015400061DAFA887B881344314AB2F90020934269
:1015500006DD2F4BB3F900309AB2FB88D31A7B809B
:10156000BA883B8813442B4AB2F90020934206DD27
:10157000284BB3F900309AB2BB88D31A3B80FFF7EF
:1015800019FDFB88D8B2BB88D9B2FB88DAB27B8858
:10159000DBB21344DBB2013BDCB2BB88DAB23B887E
:1015A000DBB21344DBB2013BDBB22246FFF7B0FDF6
:1015B0003B8C1B0A9BB2DBB23B733B8CDBB27B7375
:1015C00001224FF48041144802F022FE3B88BB8088
:1015D00013E07B88FB800AE007F10C014FF0FF333A
:1015E00002220E4804F037FBFB88013BFB80FB889E
:1015F000002BF1D1BB88013BBB80BB88002BE8D11D
:10160000FFF7E4FC00E000BF1437BD4690BD00BF0B
:10161000A0C80020A2C8002000040240B8CA0020D0
:1016200090B587B000AF0446084611461A462346D7
:10163000FB800346BB800B467B8013463B80FB88C8
:101640003B4AB2F9002093426EDABB88394AB2F9BC
:101650000020934268DAFA887B881344344AB2F94E
:101660000020934206DD324BB3F900309AB2FB887A
:10167000D31A7B80BA883B8813442E4AB2F90020E3
:10168000934206DD2B4BB3F900309AB2BB88D31AD4
:101690003B80FFF78FFCFB88D8B2BB88D9B2FB88B0
:1016A000DAB27B88DBB21344DBB2013BDCB2BB882D
:1016B000DAB23B88DBB21344DBB2013BDBB2224639
:1016C000FFF726FD01224FF480411B4802F0A0FDE8
:1016D0007B883A8802FB03F33B6100237B611CE0BB
:1016E0007B695B00BA6A13441B881B0A9BB2FB73BD
:1016F0007B695B00BA6A13441B88BB73FB7B3B733B
:10170000BB7B7B7307F10C014FF0FF3302220B48C8
:1017100004F0A1FA7B6901337B617A693B699A42E3
:10172000DED3FFF753FC00E000BF1C37BD4690BD81
:10173000A0C80020A2C8002000040240B8CA0020AF
:1017400080B586B000AF786007F1080300221A6008
:101750005A609A60DA607B68BB600123FB600123FA
:101760003B6107F108031946054802F085F8034676
:10177000002B01D001F006FB00BF1837BD4680BD2D
:10178000F0C800200000000080B58CB004AF01F06C
:101790004DFE00F03BFC00F0AFFE00F0A1FC00F0BD
:1017A0000FFE00F06BFD00F0D5FC00F057FE00F0DE
:1017B000FFFC00F02BFD0320FFF7F2FC00233B822F
:1017C0009A4B1B88BB810023BB73984B1B883B81C2
:1017D0000023BB720023FB770023BB7700237B77BA
:1017E00000233B770023FB760023BB7643F69F1351
:1017F000BB82BB8A1B0A9BB2DBB23B71BB8ADBB2EA
:101800007B714FF0FF330293022301933B1D009342
:10181000012300228021864802F070FE0320FFF79A
:10182000EBFC01F007FA0346032B00F2D48301A27C
:1018300052F823F0451800084D1800080D1E000846
:101840004D180008002001F08BFAC7E3012001F0D9
:1018500087FAFB7F002B2AD1764B00938023A022AE
:1018600000210020FFF7DCFE4FF47A6001F050FE0B
:101870000123FB770023BB7700237B7700233B7793
:101880000023FB760023BB766B4B00221A806B4B48
:1018900000221A706A4B00221A806A4B00221A80BA
:1018A000694B00221A80694B4FF000021A60BB7F1F
:1018B000002B2AD10020FFF763FB654804F03AFCB7
:1018C00000221021634802F0A3FC0022202161487D
:1018D00002F09EFC0021604804F0C6FD5F4804F061
:1018E00029FC1F2300931023222218217D20FFF7BB
:1018F0000DFE002300930C231E221A217F20FFF7E8
:1019000005FE0123BB770023BB7601F043F9544861
:1019100001F00CF8534B1B78002B04D0514B1B7873
:10192000012B40F04F81FB7E002B1DD14D4B1B78CE
:10193000002B0DD14C4B002202924FF6FF72019208
:101940005A6800921B68494A1A210520FFF78AFD50
:101950000123FB7600233B7700237B77384B002263
:101960001A80384B00221A807B7F002B33D13D4BED
:101970001B78012B0DD13C4B002202924FF6FF72D7
:1019800001925A6800921B68394A1A210520FFF714
:1019900069FD384B002202924FF6FF7201925A689D
:1019A00000921B68344A41210520FFF75BFD314B53
:1019B000002202924FF6FF7201925A6800921B6851
:1019C0002E4A41215F20FFF74DFD01237B77002345
:1019D0003B770023FB762A4B1B781A46294B33F8BA
:1019E0001220294B1A80264B9B78284A9B001344CF
:1019F0001B68274A1360224B5B781A46254B9A5C7A
:101A0000254B1A70244B1B781A460B4B1B889A42A5
:101A100057D0214B1B78012B42D1204B009321231F
:101A200021221B213F20FFF7FBFD45E0749F0008AA
:101A30008CC90020B4B40008D8C80020EEC800202B
:101A4000E0C80020DCC80020D4C80020E8C800207E
:101A500070CA002000040240E0C9002028CA00200B
:101A6000BCC80020EFC8002008000020289F000804
:101A70002C9F000800000020309F0008389F0008BD
:101A8000CCC8002024C60020D2C8002050C60020A8
:101A9000E4C800204CC60020D6C80020100000205A
:101AA0003D4B1B78032B07D13C4B00932123212274
:101AB0001B213F20FFF7B4FD374B1B781A46384BEC
:101AC0001A80384B1A88384B1B889A4229D0354BDC
:101AD0001B88184607F10C030A22194605F08EFBF5
:101AE000324B00220292002201925A6800921B6837
:101AF0002F4A55210520FFF7B5FC2C4B07F10C01AF
:101B0000002202924FF6FF7201925A6800921B68FF
:101B10000A4655210520FFF7A5FC224B1A88224BC7
:101B20001A80244B93ED007A234BD3ED007AB4EE68
:101B3000677AF1EE10FA00F00B811E4B1B68184615
:101B4000FEF70AFD02460B4607F108001B4906F0A6
:101B5000B3F8164B07F10801002202924FF6FF720C
:101B600001925A6800921B680A4655215F20FFF7D0
:101B700079FC0E4B00220292002201925A680092D8
:101B80001B680F4A55218120FFF76CFC094B1B682D
:101B9000094A1360DCE000BFD6C80020940800208A
:101BA000D8C80020D2C80020D4C8002008000020D7
:101BB000409F0008E4C80020E8C80020489F0008B3
:101BC0004C9F0008A44B1B78022B40F0C1803B7F48
:101BD000002B4BD1A14B002202924FF6FF720192D3
:101BE0005A6800921B689E4A1A210520FFF73AFCAA
:101BF0009C4B002202924FF6FF7201925A680092AB
:101C00001B68994A41210520FFF72CFC954B0022C7
:101C100002924FF6FF7201925A6800921B68934A33
:101C200041215F20FFF71EFC914B009321232122CD
:101C30001B213F20FFF7F4FC8E4B4FF448721A80B3
:101C40008D4B01221A7001233B7700237B77002301
:101C5000FB768A4B00221A80894B00221A70894B2E
:101C600000221A80884B4FF000021A60874BDB7805
:101C70001A46874B9A5C874B1A70844B1B791A461D
:101C8000854B9A5C854B1A70824B1B781A46844BA5
:101C90001B889A422AD07F4B1B78184607F10C0309
:101CA0000A22194605F0AAFA6C4B00220292002281
:101CB00001925A6800921B687A4A55210520FFF765
:101CC000D1FB664B07F10C01002202924FF6FF7226
:101CD00001925A6800921B680A4655210520FFF7B9
:101CE000C1FB6C4B1B781A466D4B1A806B4B1B78F3
:101CF0001A466D4B1B889A422AD0684B1B781846AF
:101D000007F108030A22194605F078FA534B00221E
:101D10000292002201925A6800921B68614A552182
:101D20005F20FFF79FFB4D4B07F108010022029255
:101D30004FF6FF7201925A6800921B680A465521BD
:101D40005F20FFF78FFB554B1B781A46564B1A80C6
:101D5000564B1A784A4B1B789A4238D0534B1B7813
:101D6000032B2FD801A252F823F000BFB31D0008A7
:101D70007D1D00088F1D0008A11D00084C4B00931D
:101D80001423142250213C20FFF74AFC1BE0494B4E
:101D900000931423142250213C20FFF741FC12E051
:101DA000454B00931423142250213C20FFF738FCAC
:101DB00009E0424B00931423142250213C20FFF7EA
:101DC0002FFC00E000BF394B1A782D4B1A703C4BAA
:101DD0001B684EF65F22934240F2FF80394B00228F
:101DE0001A70394804F008FA354B00221A600023B3
:101DF000FB77364B00938023A02200210020FFF7C1
:101E00000FFC40F2DC5001F083FBE6E0BB7E002BD0
:101E100040F0B5800B237B76284B009314231422CB
:101E200050213C20FFF7FCFB254B00221A6026487E
:101E300004F0E2F9264804F0DFF90F4B1A78254B3D
:101E40001A700021244804F05FFA0020FFF798F888
:101E500004233B7663E000BFEFC8002008000020A9
:101E6000509F000800000020549F0008609F000859
:101E700018110020D2C80020D6C80020D8C80020E1
:101E8000EEC80020D4C80020E8C80020CCC800203C
:101E900098C60020DAC80020A0C60020DEC80020B6
:101EA000DCC800206C9F0008E0C80020EDC80020BE
:101EB000BC1C0020DC1F00209C190020FC220020FC
:101EC000C0C80020ECC8002070CA00201C260020DA
:101ED00028CA0020ADC60020E0C900207B7E013B5F
:101EE0007B767B7E07F110010A22184605F086F901
:101EF0003B7E98B23C4B07F11001002202924FF654
:101F0000FF7201925A6800921B680A465721FFF738
:101F1000A9FA7B7E012B06D03B7E10333B763B7EBD
:101F20009F2BDBD900E000BF0023FB7509E0FB7DA0
:101F30009BB21F2254211846FFF7DEF9FB7D0133C7
:101F4000FB75FB7D9F2BF2D90123BB760023BB776A
:101F500000237B7700233B77244B00221A80244BFD
:101F600000221A70234B00221A80234B00221A8071
:101F7000224B00221A80224B4FF000021A6000F020
:101F8000FDFB00233B804FF0FF33029302230193BC
:101F90003B4600930123012280211A4802F0A8FB4E
:101FA0003B781B021AB27B781BB213437B82B7F9D2
:101FB00012301846FEF7BEFA09A3D3E90023FEF754
:101FC00023FB02460B4610461946FEF7F5FD034675
:101FD0000D4A136002E000BF23E400BF21E400BF0C
:101FE000FCA9F1D24D62503F00000020D8C800206B
:101FF000EEC80020E0C80020DCC80020D4C80020C3
:10200000E8C800208CC90020B4C8002080B594B076
:1020100000AF07F1200330220021184605F0AFFE83
:1020200007F10C0300221A605A609A60DA601A61A4
:102030000023BB60284B1B6C274A43F0805313647A
:10204000254B1B6C03F08053BB60BB6800237B6097
:10205000224B1B6823F44043204A43F4004313609F
:102060001E4B1B6803F440437B607B6802233B628A
:102070000123FB6210233B630223BB630023FB634A
:1020800008233B6454237B640223BB640423FB6466
:1020900007F12003184603F011F90346002B01D085
:1020A00000F070FE0F23FB6002233B6100237B6185
:1020B0004FF48053BB610023FB6107F10C03022145
:1020C000184603F073FB0346002B01D000F05AFEC4
:1020D00000BF5037BD4680BD003802400070004050
:1020E00080B500AF184B194A1A60174B4FF4803275
:1020F0005A60154B00229A60134B00221A61124B52
:1021000000221A76104B012283F820200E4B002269
:10211000DA620D4B0E4A9A620B4B0022DA600A4BD0
:102120000122DA61084B002283F83020064B01229D
:102130005A61054801F010FA0346002B01D000F067
:1021400021FE00BF80BD00BFF0C80020002001407C
:102150000100000F80B500AF124B134A1A60114BFB
:10216000124A5A600F4B00229A600E4B0022DA602E
:102170000C4B4FF480421A610A4B00225A61094B02
:1021800000229A61074B0022DA61064B00221A6294
:10219000044802F06FF80346002B01D000F0F2FD76
:1021A00000BF80BD38C9002000540040801A0600DE
:1021B00080B500AF124B134A1A60114B124A5A6095
:1021C0000F4B00229A600E4B0022DA600C4B4FF44A
:1021D00080421A610A4B00225A61094B00229A611F
:1021E000074B0022DA61064B00221A62044802F013
:1021F00041F80346002B01D000F0C4FD00BF80BDB4
:102200008CC9002000580040801A060080B500AF3D
:10221000184B194A1A60174B4FF482725A60154BCB
:102220004FF400429A60134B0022DA60114B0022F7
:102230001A61104B00225A610E4B4FF400729A61E2
:102240000C4B0022DA610B4B00221A62094B002270
:102250005A62084B00229A62064B0A22DA6205484B
:1022600003F070FC0346002B01D000F08BFD00BF93
:1022700080BD00BFB8CA00200038004080B596B0CD
:1022800000AF07F1480300221A605A609A60DA60D2
:1022900007F1400300221A605A6007F1240300226C
:1022A0001A605A609A60DA601A615A619A613B1D3D
:1022B00020220021184605F062FD3F4B3F4A1A607C
:1022C0003D4B2D225A603C4B00229A603A4B4FF412
:1022D0007A72DA60384B00221A61374B00225A6159
:1022E000354B80229A61344803F0D4FE0346002B1C
:1022F00001D000F047FD4FF48053BB6407F1480361
:1023000019462D4804F0C6FA0346002B01D000F010
:1023100039FD294803F09FFF0346002B01D000F050
:1023200031FD00233B6400237B6407F14003194621
:10233000214804F077FE0346002B01D000F022FD77
:1023400060237B624FF47A73BB620023FB6200233D
:102350003B6300237B630023BB630023FB6307F124
:10236000240300221946144804F0D2F90346002B36
:1023700001D000F007FD00237B600023BB60002339
:10238000FB6000233B6100237B614FF40053BB6182
:1023900000233B623B1D1946074804F0B1FE03468B
:1023A000002B01D000F0EEFC034800F0A7FE00BFB8
:1023B0005837BD4680BD00BFE0C900200000014085
:1023C00080B586B000AF07F1080300221A605A609A
:1023D0009A60DA603B4600221A605A601E4B4FF04A
:1023E00080421A601C4B42F2CF025A601A4B002204
:1023F0009A60194B40F2F312DA60174B00221A610F
:10240000154B80229A61144803F044FE0346002BCA
:1024100001D000F0B7FC4FF48053BB6007F1080314
:1024200019460D4804F036FA0346002B01D000F09F
:10243000A9FC00233B6000237B603B46194606480D
:1024400004F0F0FD0346002B01D000F09BFC00BF20
:102450001837BD4680BD00BF28CA002080B586B0B1
:1024600000AF07F1080300221A605A609A60DA6030
:102470003B4600221A605A601C4B1D4A1A601B4BD7
:102480001C4A5A60194B00229A60184B0922DA60E4
:10249000164B00221A61154B80229A61134803F0F3
:1024A000F9FD0346002B01D000F06CFC4FF4805383
:1024B000BB6007F1080319460C4804F0EBF903462A
:1024C000002B01D000F05EFC00233B6000237B600A
:1024D0003B461946054804F0A5FD0346002B01D0F4
:1024E00000F050FC00BF1837BD4680BD70CA002008
:1024F000000400401F48010080B588B000AF07F11C
:102500000C0300221A605A609A60DA601A61002394
:10251000BB60384B1B6B374A43F080031363354B6A
:102520001B6B03F08003BB60BB6800237B60314BF7
:102530001B6B304A43F0010313632E4B1B6B03F0FC
:1025400001037B607B6800233B602A4B1B6B294A9D
:1025500043F002031363274B1B6B03F002033B6042
:102560003B6800224FF4D061234801F051FE002265
:1025700045F23001214801F04BFE7823FB60002337
:102580003B6101237B610023BB6107F10C0319460A
:10259000194801F0A1FC4FF4D063FB6001233B61BB
:1025A00000237B610023BB6107F10C03194612482D
:1025B00001F092FC0223FB6000233B6100237B615E
:1025C00007F10C0319460D4801F086FC45F2300373
:1025D000FB6001233B6100237B610023BB6107F1AA
:1025E0000C031946054801F077FC00BF2037BD46B3
:1025F00080BD00BF003802400000024000040240DD
:10260000B0B586B002AF78607B681B68B3F1804FCD
:1026100040F085800120FFF793F84B4800F0E0FF81
:102620001421494801F090F8474801F018F9034691
:10263000FB81FB891846FDF77DFF4FF00002434BFD
:10264000FEF70CF902460B4614461D46404B1B781C
:102650001846FDF76FFF02460B4620462946FDF758
:10266000D3FF02460B4610461946FEF7A5FA03466D
:10267000384A1360374B1B681846FDF76DFF30A3CF
:10268000D3E90023FDF708FE02460B461046194623
:10269000FEF792FA03462F4A13602F4BD3ED007AD0
:1026A000FCEEE77AC7ED007A3B78DAB2294BD3ED3E
:1026B000007AFCEEE77AC7ED007A3B78DBB29A420B
:1026C00014D9254BD3ED007AFCEEE77AC7ED007AFA
:1026D0003B78DBB21A461201D31A5B009AB2002390
:1026E00000930C231A217F20FEF710FF194BD3ED26
:1026F000007AFCEEE77AC7ED007A3B78DBB21A4647
:102700001201D31A5B009AB21F2300930C231A21E3
:102710007F20FEF7FBFE0F4B1B680F4A13607B68A0
:102720001B680E4A934204D10D4B1B6801330C4ABF
:10273000136000BF1037BD46B0BD00BFAFF30080CF
:10274000333333333333FB3FF0C800200000B04055
:102750001CC60020B0C80020ACC800200004004007
:10276000C0C8002080B483B000AF0346FB8000BF28
:102770000C37BD465DF8047B7047000080B584B01F
:1027800002AF5E4B1B785E4A12881146184600F075
:10279000A9FA502000F0BCFE5A4BD3ED007AF5EEBA
:1027A000C07AF1EE10FA07D5564BD3ED007AF1EE70
:1027B000677A544BC3ED007A534BD3ED007AFCEEAD
:1027C000E77AC7ED017A3B79DBB21B019BB2C3F11B
:1027D0009F0398B200230093282310222C21FEF798
:1027E00095FE484BD3ED007AFCEEE77AC7ED017A0F
:1027F0003B79DBB21B019BB2C3F19F0398B21F234D
:102800000093282310222C21FEF780FE3D4B1B68ED
:102810003D4A13603D4B1B78022B43D0022B65DCF5
:10282000002B02D0012B20D060E0364B93ED007AD4
:10283000374BD3ED007AB4EEE77AF1EE10FA0FDB06
:10284000344B1B78012B03D12C4B03221A704FE021
:10285000304B1B78032B4BD1284B01221A7047E0D9
:102860002C4B1A78254B1A7042E0264B93ED007AD8
:10287000274BD3ED007AB4EEE77AF1EE10FA00DAE6
:1028800037E001228021244801F0C2FC502000F0F2
:102890003FFE00228021204801F0BAFC502000F0C9
:1028A00037FE26E01D4803F045FC1D4B1B781A46F9
:1028B0001C4B1B689A4203D9104B01221A7018E076
:1028C000174B1B781A46184B1B7813441A46154BA6
:1028D0001B689A4203D9094B03221A7009E00F487A
:1028E00003F08AFC0F4B00221A6002E000BF00E0F8
:1028F00000BF00BF0837BD4680BD00BFD6C800205E
:10290000D2C80020B4C80020B8C80020EFC80020FA
:10291000E4C80020ADC600200000024070CA0020BC
:10292000DAC80020C0C80020DEC8002080B483B010
:1029300000AF78607B681B78012B12D1774B0322A4
:102940001A70774B1B780133DAB2754B1A70744BDF
:102950001B78042B02D1724B01221A707B68002273
:102960001A706E4B1B78012B2BD17B6801331B78BF
:10297000012B10D16B4B1B780133DAB2694B1A7003
:10298000684B1B78042B02D1664B00221A707B68BF
:10299000013300221A707B6802331B78012B10D19F
:1029A000604B1B78002B02D15E4B04221A705D4BEA
:1029B0001B78013BDAB25B4B1A707B680233002252
:1029C0001A70564B1B78032B40F0A280554B1B7896
:1029D000012B02DC002B03DA9AE0022B48D097E0AF
:1029E0007B6801331B78012B1ED14D4B1B78013BBB
:1029F0004D4AD25C0132D1B24B4AD154484B1B787C
:102A0000013B494AD25C464B1B78013B4749CB5CB2
:102A10009A4205D1424B1B78013B434A0021D154D5
:102A20007B68013300221A707B6802331B78012B0C
:102A30006BD13B4B1B78013B3B4AD35C002B09D14C
:102A4000374B1B785A1E364B1B78013B3749895C44
:102A5000354AD154324B1B78013B334AD25C013AA0
:102A6000D1B2314AD1547B68023300221A704CE053
:102A70007B6801331B78012B21D12B4BDB78013391
:102A8000DAB2294BDA70284B1B790133DAB2264BC4
:102A90001A71254BDA78254BDB789A4202D1224B0A
:102AA0000022DA70204B1A79204B1B799A4202D10E
:102AB0001D4B00221A717B68013300221A707B685B
:102AC00002331B78012B22D1174BDB78002B03D16B
:102AD000164BDA78144BDA70134B1B79002B03D1A9
:102AE000124B1A79104B1A710F4BDB78013BDAB29B
:102AF0000D4BDA700C4B1B79013BDAB20A4B1A71A1
:102B00007B68023300221A7001E000BF00E000BFC2
:102B100000BF0C37BD465DF8047B7047ECC8002051
:102B2000EDC80020EFC80020CCC80020A8C60020B7
:102B300080B58AB000AF786007F10C0300221A60FC
:102B40005A609A60DA601A615A619A616023FB6088
:102B50007B683B6100237B610023BB610023FB6139
:102B600000233B6200237B6207F10C03002219461D
:102B7000074803F0CDFD0346002B01D000F002F919
:102B80000021034803F0C0FB00BF2837BD4680BDCD
:102B9000E0C9002080B582B000AF00F0ADFC034674
:102BA0001E4A13600023FB712FE01C4B1B68FA794F
:102BB0001B498A5C9B1AB3F5967F23D9174B1A6879
:102BC000FB79D1B2164AD154FB79164AD35C194627
:102BD000154801F005FB0346002B13D1FB79134A7E
:102BE0000121D154124B00221A60FB790D4AD35CAB
:102BF00019460D4801F0F4FA0346012B00D0F4E722
:102C000000BF06E0FB790133FB71FB79022BCCD9C5
:102C100000BF00BF0837BD4680BD00BFC8C8002048
:102C2000C4C8002020C6002000000240BCC800200C
:102C3000C0C8002080B500AF00F05EFC0346214A0A
:102C40001360204B1B68204AD2789B1AB3F5967FFD
:102C500034D91C4B1B68DAB21B4BDA701B4BDB7888
:102C600019461B4801F0BCFA0346002B26D1194B2C
:102C70000122DA70184B00221A60144BDB781946D7
:102C8000134801F0ADFA0346012BF6D1134B1B7824
:102C9000022B03D1114B00221A7009E00F4B1B7855
:102CA000032B05D10D4B00221A700D4B00221A7018
:102CB0000A4B1B780133DAB2084B1A70074B1B78AA
:102CC000184680BDC8C80020C4C8002020C6002007
:102CD00000000240BCC80020C0C80020ECC8002092
:102CE000EDC8002080B582B000AF03460A46FB71F4
:102CF0001346BB80BB881846FFF71AFFFB79032BEE
:102D00001BD0032B24DC012B0CD0022B20D1002262
:102D10001021124801F07CFA002220210F4801F016
:102D200077FA16E0012210210C4801F071FA002216
:102D300020210A4801F06CFA0BE00022102107481C
:102D400001F066FA01222021044801F061FA00E056
:102D500000BF00BF0837BD4680BD00BF0004024071
:102D600080B582B000AF0346FB71FB791A464FF481
:102D70008061034801F04CFA00BF0837BD4680BDB2
:102D80000000024080B400AF72B600BF00BFFDE794
:102D900080B483B000AF00237B60104B5B6C0F4AA4
:102DA00043F4804353640D4B5B6C03F480437B60BE
:102DB0007B6800233B60094B1B6C084A43F080533F
:102DC0001364064B1B6C03F080533B603B6800BFF1
:102DD0000C37BD465DF8047B704700BF00380240E9
:102DE00080B58AB000AF786007F1140300221A6042
:102DF0005A609A60DA601A617B681B68244A9342C1
:102E000041D100233B61234B5B6C224A43F4807326
:102E10005364204B5B6C03F480733B613B6900237C
:102E2000FB601C4B1B6B1B4A43F001031363194BE4
:102E30001B6B03F00103FB60FB680023BB60154BB9
:102E40001B6B144A43F002031363124B1B6B03F01A
:102E50000203BB60BB6802237B610323BB610023C9
:102E6000FB6107F1140319460B4801F035F8012303
:102E70007B610323BB610023FB6107F11403194647
:102E8000064801F029F800BF2837BD4680BD00BFC5
:102E900000200140003802400000024000040240CF
:102EA00080B58CB000AF786007F11C0300221A6077
:102EB0005A609A60DA601A617B681B683A4A9342EA
:102EC0002CD10023BB61394B1B6B384A43F0020302
:102ED0001363364B1B6B03F00203BB61BB69C0235A
:102EE000FB6112233B6200237B620323BB6204234A
:102EF000FB6207F11C0319462D4800F0EDFF00238B
:102F00007B612A4B1B6C294A43F400131364274B43
:102F10001B6C03F400137B617B6941E07B681B68D9
:102F2000244A93423CD100233B61204B1B6B1F4A38
:102F300043F0020313631D4B1B6B03F002033B6161
:102F40003B694FF48063FB6112233B6200237B6289
:102F50000323BB620423FB6207F11C0319461448D8
:102F600000F0BAFF0823FB6112233B6200237B625F
:102F70000323BB620923FB6207F11C0319460C48BB
:102F800000F0AAFF0023FB60084B1B6C074A43F4C8
:102F900080031364054B1B6C03F48003FB60FB6828
:102FA00000BF3037BD4680BD0054004000380240AD
:102FB000000402400058004080B58AB000AF78603D
:102FC00007F1140300221A605A609A60DA601A61ED
:102FD0007B681B68194A93422CD100233B61184B34
:102FE0001B6C174A43F480431364154B1B6C03F4AA
:102FF00080433B613B690023FB60114B1B6B104A14
:1030000043F0020313630E4B1B6B03F00203FB60E0
:10301000FB684FF420437B610223BB610023FB610B
:1030200003233B6205237B6207F11403194605481D
:1030300000F052FF00BF2837BD4680BD0038004079
:10304000003802400004024080B586B000AF7860CE
:103050007B681B68264A93420ED100237B61254B77
:103060005B6C244A43F001035364224B5B6C03F016
:1030700001037B617B6936E07B681B68B3F1804F9D
:1030800016D100233B611B4B1B6C1A4A43F0010312
:103090001364184B1B6C03F001033B613B69002276
:1030A00000211C2000F0E1FE1C2000F0FAFE1AE0D6
:1030B0007B681B68104A934215D10023FB600D4BBF
:1030C0001B6C0C4A43F0020313640A4B1B6C03F0A5
:1030D0000203FB60FB68002200211D2000F0C5FEFA
:1030E0001D2000F0DEFE00BF1837BD4680BD00BFCA
:1030F00000000140003802400004004080B588B064
:1031000000AF786007F10C0300221A605A609A60E1
:10311000DA601A617B681B68124A93421ED1002351
:10312000BB60114B1B6B104A43F0010313630E4B42
:103130001B6B03F00103BB60BB684FF48073FB6043
:1031400002233B6100237B610023BB610123FB6100
:1031500007F10C031946054800F0BEFE00BF2037FA
:10316000BD4680BD00000140003802400000024022
:1031700080B400AF00BFFDE780B400AF00BFFDE743
:1031800080B400AF00BFFDE780B400AF00BFFDE733
:1031900080B400AF00BFFDE780B400AF00BFBD4604
:1031A0005DF8047B704780B400AF00BFBD465DF89A
:1031B000047B704780B400AF00BFBD465DF8047B60
:1031C000704780B500AF00F083F900BF80BD80B5C7
:1031D00000AF082001F036F800BF80BD80B500AF19
:1031E000102001F02FF800BF80BD80B500AF202077
:1031F00001F028F8402001F025F800BF80BD000054
:1032000080B500AF024803F093F900BF80BD00BF56
:1032100028CA002080B500AF024803F089F900BF3A
:1032200080BD00BF70CA002080B400AF01231846E3
:10323000BD465DF8047B704780B582B000AF786012
:10324000396004F0EFFD034616221A604FF0FF3399
:1032500018460837BD4680BD80B582B000AF7860A3
:103260004FF0FF317868FFF7E7FF00BFFDE780B55B
:1032700086B000AFF860B9607A6000237B610AE035
:10328000AFF300800146BB685A1CBA60CAB21A701C
:103290007B6901337B617A697B689A42F0DB7B68EA
:1032A00018461837BD4680BD80B586B000AFF860BF
:1032B000B9607A6000237B6109E0BB685A1CBA6080
:1032C0001B781846AFF300807B6901337B617A6914
:1032D0007B689A42F1DB7B6818461837BD4680BD93
:1032E00080B483B000AF78604FF0FF3318460C37DE
:1032F000BD465DF8047B704780B483B000AF786052
:1033000039603B684FF400525A60002318460C376E
:10331000BD465DF8047B704780B483B000AF786031
:10332000012318460C37BD465DF8047B704780B416
:1033300085B000AFF860B9607A6000231846143792
:10334000BD465DF8047B704780B586B000AF7860FD
:10335000144A154BD31A7B617B693B61134B1B6885
:10336000002B02D1114B124A1A60104B1A687B686D
:1033700013443A699A4207D204F054FD03460C22E2
:103380001A604FF0FF3309E0084B1B68FB60074BE6
:103390001A687B681344054A1360FB68184618379F
:1033A000BD4680BD000001200004000010CB0020BD
:1033B00068CC002080B400AF064BD3F88830054AB3
:1033C00043F47003C2F8883000BFBD465DF8047B4B
:1033D000704700BF00ED00E0DFF834D0FFF7EAFFF0
:1033E0000C480D490D4A002302E0D458C450043360
:1033F000C4188C42F9D30A4A0A4C002301E0136036
:103400000432A242FBD304F013FDFEF7BDF970476E
:10341000000001200000002084C80020705801082E
:1034200084C8002064CC0020FEE7000080B500AF17
:103430000E4B1B680D4A43F4007313600B4B1B6863
:103440000A4A43F480631360084B1B68074A43F43D
:1034500080731360032000F0FDFC0F2000F008F8DB
:10346000FFF796FC0023184680BD00BF003C0240D9
:1034700080B582B000AF7860124B1A68124B1B788F
:1034800019464FF47A73B3FBF1F3B2FBF3F318462A
:1034900000F015FD0346002B01D001230EE07B68F0
:1034A0000F2B0AD8002279684FF0FF3000F0DDFCC6
:1034B000064A7B681360002300E0012318460837A2
:1034C000BD4680BDB0C60020B8C60020B4C60020EE
:1034D00080B400AF064B1B781A46064B1B6813449A
:1034E000044A136000BFBD465DF8047B704700BF0F
:1034F000B8C6002014CB002080B400AF034B1B687B
:103500001846BD465DF8047B704700BF14CB002011
:1035100080B584B000AF7860FFF7EEFFB8607B68DD
:10352000FB60FB68B3F1FF3F05D00A4B1B781A46DE
:10353000FB681344FB6000BFFFF7DEFF0246BB6879
:10354000D31AFA689A42F7D800BF00BF1037BD46B9
:1035500080BD00BFB8C6002080B584B000AF7860E1
:103560000023FB737B68002B01D1012333E07B68D0
:103570001B6C002B09D17868FFF732FC7B680022B6
:103580005A647B68002283F83C207B681B6C03F044
:103590001003002B18D17B681B6C23F4885323F095
:1035A000020343F002027B681A64786800F086FA2E
:1035B0007B6800225A647B681B6C23F0030343F092
:1035C00001027B681A6401E00123FB737B6800221F
:1035D00083F83C20FB7B18461037BD4680BD0000B9
:1035E00080B485B000AF78600023BB607B6893F83F
:1035F0003C30012B01D1022397E07B68012283F844
:103600003C207B681B689B6803F00103012B18D0EA
:103610007B681B689A687B681B6842F001029A60AD
:10362000454B1B68454AA2FB03239A0C13465B00DB
:103630001344BB6002E0BB68013BBB60BB68002B6E
:10364000F9D17B681B689B6803F00103012B5FD1F4
:103650007B681B6C23F4E06323F0010343F4807266
:103660007B681A647B681B685B6803F48063002BCB
:1036700007D07B681B6C23F4405343F480527B6873
:103680001A647B681B6C03F48053B3F5805F06D12A
:103690007B685B6C23F006027B685A6402E07B68FF
:1036A00000225A647B68002283F83C20244BFB6094
:1036B0007B681B686FF022021A60FB685B6803F08E
:1036C0001F03002B0FD17B681B689B6803F04053DE
:1036D000002B29D17B681B689A687B681B6842F0C5
:1036E00080429A6020E07B681B68164A93421BD197
:1036F0007B681B689B6803F04053002B14D17B68E8
:103700001B689A687B681B6842F080429A600BE0F5
:103710007B681B6C43F010027B681A647B685B6CEF
:1037200043F001027B685A64002318461437BD46F3
:103730005DF8047B704700BFB0C6002083DE1B43EA
:10374000002301400020014080B584B000AF7860C4
:1037500039600023FB607B681B689B6803F480630F
:10376000B3F5806F13D17B681B689B6803F480738B
:10377000B3F5807F0BD17B681B6C43F020027B6824
:103780001A647B68002283F83C20012363E0FFF782
:10379000B3FEF86021E03B68B3F1FF3F1DD03B680A
:1037A000002B07D0FFF7A8FE0246FB68D31A3A6841
:1037B0009A4212D27B681B681B6803F00203022B3B
:1037C0000BD07B681B6C43F004027B681A647B6837
:1037D000002283F83C2003233DE07B681B681B68C4
:1037E00003F00203022BD6D17B681B686FF0120234
:1037F0001A607B681B6C43F400727B681A647B68F8
:103800001B689B6803F04053002B23D17B681B7E11
:10381000002B1FD17B681B68DB6A03F47003002B4D
:1038200006D07B681B689B6803F48063002B11D172
:103830007B681B6C23F480727B681A647B681B6C4A
:1038400003F48053002B05D17B681B6C43F001020D
:103850007B681A64002318461037BD4680BD80B4CB
:1038600083B000AF78607B681B68DB6C18460C3750
:10387000BD465DF8047B704780B485B000AF7860CA
:1038800039600023BB607B6893F83C30012B01D189
:10389000022305E17B68012283F83C203B681B681A
:1038A000092B25D97B681B68D9683B681B689BB2CC
:1038B0001A4613465B0013441E3B072202FA03F329
:1038C000DA437B681B680A40DA607B681B68D9684A
:1038D0003B689A683B681B689BB2184603465B00CE
:1038E00003441E3B9A407B681B680A43DA6022E06F
:1038F0007B681B6819693B681B689BB21A461346B4
:103900005B001344072202FA03F3DA437B681B6867
:103910000A401A617B681B6819693B689A683B68B2
:103920001B689BB2184603465B0003449A407B68C1
:103930001B680A431A613B685B68062B24D87B68C6
:103940001B68596B3B685A6813469B001344053B40
:103950001F2202FA03F3DA437B681B680A405A63AA
:103960007B681B68596B3B681B689BB218463B68B9
:103970005A6813469B001344053B00FA03F27B6828
:103980001B680A435A634CE03B685B680C2B24D8E5
:103990007B681B68196B3B685A6813469B0013448D
:1039A000233B1F2202FA03F3DA437B681B680A40B9
:1039B0001A637B681B68196B3B681B689BB21846CF
:1039C0003B685A6813469B001344233B00FA03F2FA
:1039D0007B681B680A431A6323E07B681B68D96A0B
:1039E0003B685A6813469B001344413B1F2202FA6E
:1039F00003F3DA437B681B680A40DA627B681B6862
:103A0000D96A3B681B689BB218463B685A681346E4
:103A10009B001344413B00FA03F27B681B680A4396
:103A2000DA62224BFB607B681B68214A934209D112
:103A30003B681B68122B05D1FB685B6843F480026E
:103A4000FB685A607B681B68194A934223D13B6824
:103A50001B68102B03D03B681B68112B1BD1FB6824
:103A60005B6843F40002FB685A603B681B68102BDC
:103A700011D1104B1B68104AA2FB03239A0C13466A
:103A80009B0013445B00BB6002E0BB68013BBB6072
:103A9000BB68002BF9D17B68002283F83C2000230F
:103AA00018461437BD465DF8047B7047002301407B
:103AB00000200140B0C6002083DE1B4380B485B0E7
:103AC00000AF7860794BFB60FB685B6823F44032A1
:103AD000FB685A60FB685A687B685B681A43FB683E
:103AE0005A607B681B685A687B681B6822F4807286
:103AF0005A607B681B6859687B681B691A027B687F
:103B00001B680A435A607B681B685A687B681B689D
:103B100022F040725A607B681B6859687B689A681B
:103B20007B681B680A435A607B681B689A687B68DD
:103B30001B6822F400629A607B681B6899687B6846
:103B4000DA687B681B680A439A607B689B6A584AFC
:103B5000934222D07B681B689A687B681B6822F0BE
:103B600070629A607B681B6899687B689A6A7B6858
:103B70001B680A439A607B681B689A687B681B68AD
:103B800022F040529A607B681B6899687B68DA6A09
:103B90007B681B680A439A600FE07B681B689A6821
:103BA0007B681B6822F070629A607B681B689A6869
:103BB0007B681B6822F040529A607B681B689A6899
:103BC0007B681B6822F002029A607B681B68996818
:103BD0007B681B7E5A007B681B680A439A607B687F
:103BE00093F82030002B1BD07B681B685A687B68D9
:103BF0001B6842F400625A607B681B685A687B68E5
:103C00001B6822F460425A607B681B6859687B68B5
:103C10005B6A013B5A037B681B680A435A6007E0F2
:103C20007B681B685A687B681B6822F400625A60D4
:103C30007B681B68DA6A7B681B6822F47002DA62B0
:103C40007B681B68D96A7B68DB69013B1A057B6866
:103C50001B680A43DA627B681B689A687B681B688A
:103C600022F400729A607B681B6899687B6893F8FD
:103C700030305A027B681B680A439A607B681B6875
:103C80009A687B681B6822F480629A607B681B6874
:103C900099687B685B699A027B681B680A439A6033
:103CA00000BF1437BD465DF8047B70470023014018
:103CB0000100000F80B485B000AF78607B6803F02E
:103CC0000703FB600C4BDB68BB60BA684FF6FF0371
:103CD0001340BB60FB681A02BB68134343F0BF6329
:103CE00043F40033BB60044ABB68D36000BF1437A1
:103CF000BD465DF8047B704700ED00E080B400AF86
:103D0000044BDB681B0A03F007031846BD465DF849
:103D1000047B704700ED00E080B483B000AF034641
:103D2000FB7197F90730002B0BDBFB7903F01F02C7
:103D3000074997F907305B09012000FA02F241F8C0
:103D4000232000BF0C37BD465DF8047B704700BFE1
:103D500000E100E080B483B000AF03463960FB713E
:103D600097F90730002B0ADB3B68DAB20C4997F968
:103D700007301201D2B20B4483F800230AE03B68FB
:103D8000DAB20849FB7903F00F03043B1201D2B207
:103D90000B441A7600BF0C37BD465DF8047B7047B4
:103DA00000E100E000ED00E080B489B000AFF86011
:103DB000B9607A60FB6803F00703FB61FB69C3F13C
:103DC0000703042B28BF0423BB61FB690433062BC4
:103DD00002D9FB69033B00E000237B614FF0FF3217
:103DE000BB6902FA03F3DA43BB681A407B699A4065
:103DF0004FF0FF317B6901FA03F3D9437B680B4035
:103E0000134318462437BD465DF8047B7047000015
:103E100080B582B000AF78607B68013BB3F1807FF2
:103E200001D301230FE00A4A7B68013B53600F2155
:103E30004FF0FF30FFF78EFF054B00229A60044BD6
:103E400007221A60002318460837BD4680BD00BF10
:103E500010E000E080B582B000AF78607868FFF7CE
:103E600029FF00BF0837BD4680BD80B586B000AFD2
:103E70000346B9607A60FB7300237B61FFF73EFF66
:103E800078617A68B9687869FFF78EFF024697F91A
:103E90000F3011461846FFF75DFF00BF1837BD46CB
:103EA00080BD80B582B000AF0346FB7197F9073043
:103EB0001846FFF731FF00BF0837BD4680BD80B50B
:103EC00082B000AF78607868FFF7A2FF034618461B
:103ED0000837BD4680BD000080B489B000AF78606F
:103EE000396000237B6100233B610023BB61002319
:103EF000FB6159E10122FB6902FA03F37B613B6834
:103F00001B687A6913403B613A697B699A4240F0C9
:103F100048813B685B6803F00303012B05D03B68D5
:103F20005B6803F00303022B30D17B689B68BB61A5
:103F3000FB695B00032202FA03F3DB43BA69134017
:103F4000BB613B68DA68FB695B0002FA03F3BA699C
:103F50001343BB617B68BA699A607B685B68BB612D
:103F60000122FB6902FA03F3DB43BA691340BB6128
:103F70003B685B681B0903F00102FB6902FA03F36B
:103F8000BA691343BB617B68BA695A603B685B6876
:103F900003F00303032B17D07B68DB68BB61FB696D
:103FA0005B00032202FA03F3DB43BA691340BB61EF
:103FB0003B689A68FB695B0002FA03F3BA69134332
:103FC000BB617B68BA69DA603B685B6803F0030336
:103FD000022B23D1FB69DA087B68083253F82230C0
:103FE000BB61FB6903F007039B000F2202FA03F396
:103FF000DB43BA691340BB613B681A69FB6903F094
:1040000007039B0002FA03F3BA691343BB61FB6920
:10401000DA087B680832B96943F822107B681B68AC
:10402000BB61FB695B00032202FA03F3DB43BA695D
:104030001340BB613B685B6803F00302FB695B00F4
:1040400002FA03F3BA691343BB617B68BA691A6069
:104050003B685B6803F44033002B00F0A280002330
:10406000FB60574B5B6C564A43F480435364544B9C
:104070005B6C03F48043FB60FB68524AFB699B085E
:10408000023352F82330BB61FB6903F003039B004A
:104090000F2202FA03F3DB43BA691340BB617B686A
:1040A000494A934219D07B68484A934213D07B68AF
:1040B000474A93420DD07B68464A934207D07B68BB
:1040C000454A934201D1042308E0072306E0032375
:1040D00004E0022302E0012300E00023FA6902F079
:1040E000030292009340BA691343BB613549FB69EF
:1040F0009B080233BA6941F82320384B9B68BB61A7
:104100003B69DB43BA691340BB613B685B6803F4FE
:104110008013002B03D0BA693B691343BB612F4A5C
:10412000BB6993602D4BDB68BB613B69DB43BA69BC
:104130001340BB613B685B6803F40013002B03D0A2
:10414000BA693B691343BB61244ABB69D360234B03
:104150005B68BB613B69DB43BA691340BB613B6889
:104160005B6803F40033002B03D0BA693B69134347
:10417000BB611A4ABB695360184B1B68BB613B6942
:10418000DB43BA691340BB613B685B6803F480336F
:10419000002B03D0BA693B691343BB610F4ABB696B
:1041A0001360FB690133FB61FB690F2B7FF6A2AE45
:1041B00000BF00BF2437BD465DF8047B704700BFD9
:1041C0000038024000380140000002400004024074
:1041D00000080240000C024000100240003C014078
:1041E00080B485B000AF78600B467B807B681A692D
:1041F0007B881340002B02D00123FB7301E00023D6
:10420000FB73FB7B18461437BD465DF8047B704793
:1042100080B483B000AF78600B467B8013467B7020
:104220007B78002B03D07A887B689A6103E07B88D7
:104230001A047B689A6100BF0C37BD465DF8047BA9
:104240007047000080B582B000AF0346FB80084B8A
:104250005A69FB881340002B06D0054AFB8853613E
:10426000FB881846FEF77EFA00BF0837BD4680BDC2
:10427000003C014080B584B000AF78607B68002BC3
:1042800001D101232BE17B6893F83D30DBB2002B99
:1042900006D17B68002283F83C207868FEF700FE98
:1042A0007B68242283F83D207B681B681A687B6842
:1042B0001B6822F001021A607B681B681A687B6821
:1042C0001B6842F400421A607B681B681A687B68AE
:1042D0001B6822F400421A6001F020FCF8607B6841
:1042E0005B68814A934207D8FB68804A934294BF37
:1042F00001230023DBB206E0FB687D4A934294BFB2
:1043000001230023DBB2002B01D00123E7E0FB688F
:10431000784AA2FB03239B0CBB607B681B685B682D
:1043200023F03F017B681B68BA680A435A607B68C8
:104330001B681B6A23F03F017B685B686A4A9342F3
:1043400002D8BB68013309E0BB684FF4967202FBE8
:1043500003F3694AA2FB03239B0901337A681268BD
:104360000B4313627B681B68DB6923F44F4222F026
:10437000FF027B685B685C498B4219D8FB68591E59
:104380007B685B685B00B1FBF3F3591C40F6FC7380
:104390000B40002B0AD0FB68591E7B685B685B00F2
:1043A000B1FBF3F30133C3F30B0351E004234FE0FC
:1043B0007B689B68002B11D1FB68581E7B6859688D
:1043C0000B465B000B44B0FBF3F30133C3F30B0369
:1043D000002B0CBF01230023DBB212E0FB68581E48
:1043E0007B6859680B469B000B4499000B44B0FB5B
:1043F000F3F30133C3F30B03002B0CBF01230023A2
:10440000DBB2002B01D0012322E07B689B68002BEC
:104410000ED1FB68581E7B6859680B465B000B4445
:10442000B0FBF3F30133C3F30B0343F400430FE09A
:10443000FB68581E7B6859680B469B000B4499002B
:104440000B44B0FBF3F30133C3F30B0343F44043DA
:10445000796809681343CB617B681B681B6823F08C
:10446000C0017B68DA697B681B6A1A437B681B683A
:104470000A431A607B681B689B6823F4034323F09C
:10448000FF037A6811697A68D26811437A68126802
:104490000B4393607B681B68DB6823F0FF017B683C
:1044A0005A697B689B691A437B681B680A43DA6018
:1044B0007B681B681A687B681B6842F001021A60FF
:1044C0007B6800221A647B68202283F83D207B6889
:1044D00000221A637B68002283F83E2000231846DE
:1044E0001037BD4680BD00BFA08601007F841E003E
:1044F000FF083D0083DE1B43D34D621080B588B0BA
:1045000002AFF860084611461A4603467B810B4607
:104510003B811346FB80FEF7EFFF7861FB6893F861
:104520003D30DBB2202B40F0D9807B69009319230A
:1045300001226D49F86800F08BFC0346002B01D086
:104540000223CCE0FB6893F83C30012B01D102231D
:10455000C5E0FB68012283F83C20FB681B681B68F0
:1045600003F00103012B07D0FB681B681A68FB6886
:104570001B6842F001021A60FB681B681A68FB683E
:104580001B6822F400621A60FB68212283F83D2038
:10459000FB68402283F83E20FB6800221A64FB6817
:1045A0003A6A5A62FB68BA8C5A85FB685B8D9AB28C
:1045B000FB681A85FB684D4ADA62F8883A8979897E
:1045C0007B690193BB6A00930346F86800F0C2FA66
:1045D0000346002B52D0012381E07A69B96AF8685A
:1045E00000F050FD0346002B0DD0FB681B6C042B24
:1045F00007D1FB681B681A68FB681B6842F40072ED
:104600001A6001236BE0FB685B6A1A78FB681B6821
:104610001A61FB685B6A5A1CFB685A62FB681B8D57
:10462000013B9AB2FB681A85FB685B8D9BB2013B2C
:104630009AB2FB685A85FB681B685B6903F0040348
:10464000042B1BD1FB681B8D002B17D0FB685B6A0A
:104650001A78FB681B681A61FB685B6A5A1CFB6866
:104660005A62FB681B8D013B9AB2FB681A85FB6896
:104670005B8D9BB2013B9AB2FB685A85FB681B8D30
:10468000002BAAD17A69B96AF86800F043FD0346A5
:10469000002B0DD0FB681B6C042B07D1FB681B683B
:1046A0001A68FB681B6842F400721A60012316E066
:1046B000FB681B681A68FB681B6842F400721A608A
:1046C000FB68202283F83D20FB68002283F83E200F
:1046D000FB68002283F83C20002300E002231846F8
:1046E0001837BD4680BD00BF020010000000FFFF6C
:1046F00080B58CB002AFF860084611461A460346F2
:104700007B810B463B811346FB80FEF7F5FE78620A
:10471000FB6893F83D30DBB2202B40F014827B6ABB
:104720000093192301227B49F86800F091FB0346AE
:10473000002B01D0022307E2FB6893F83C30012BE9
:1047400001D1022300E2FB68012283F83C20FB68D0
:104750001B681B6803F00103012B07D0FB681B6873
:104760001A68FB681B6842F001021A60FB681B684C
:104770001A68FB681B6822F400621A60FB68222238
:1047800083F83D20FB68402283F83E20FB6800222E
:104790001A64FB683A6B5A62FB68BA8E5A85FB68EA
:1047A0005B8D9AB2FB681A85FB685B4ADA62F8880F
:1047B0003A8979897B6A0193BB6B00930346F86859
:1047C00000F05EFA0346002B01D00123BCE1FB6838
:1047D0001B8D002B13D100233B62FB681B685B69B8
:1047E0003B62FB681B689B693B623B6AFB681B681A
:1047F0001A68FB681B6842F400721A6090E1FB685B
:104800001B8D012B1BD1FB681B681A68FB681B689A
:1048100022F480621A600023FB61FB681B685B69FD
:10482000FB61FB681B689B69FB61FB69FB681B689C
:104830001A68FB681B6842F400721A6070E1FB683A
:104840001B8D022B1BD1FB681B681A68FB681B6859
:1048500022F480621A60FB681B681A68FB681B6898
:1048600042F400621A600023BB61FB681B685B694D
:10487000BB61FB681B689B69BB61BB6950E100239E
:104880007B61FB681B685B697B61FB681B689B69DC
:104890007B617B6944E1FB681B8D032B00F2F18097
:1048A000FB681B8D012B23D17A6AB96BF86800F085
:1048B00079FC0346002B01D0012345E1FB681B680E
:1048C0001A69FB685B6AD2B21A70FB685B6A5A1C91
:1048D000FB685A62FB681B8D013B9AB2FB681A8524
:1048E000FB685B8D9BB2013B9AB2FB685A8517E16E
:1048F000FB681B8D022B4ED17B6A0093BB6B0022A1
:104900000649F86800F0A4FA0346002B08D00123FA
:104910001AE100BF020010000000FFFF04000100C8
:10492000FB681B681A68FB681B6842F400721A6017
:10493000FB681B681A69FB685B6AD2B21A70FB6875
:104940005B6A5A1CFB685A62FB681B8D013B9AB27A
:10495000FB681A85FB685B8D9BB2013B9AB2FB68D2
:104960005A85FB681B681A69FB685B6AD2B21A70C9
:10497000FB685B6A5A1CFB685A62FB681B8D013B33
:104980009AB2FB681A85FB685B8D9BB2013B9AB2B9
:10499000FB685A85C4E07B6A0093BB6B00226C49BC
:1049A000F86800F055FA0346002B01D00123CBE054
:1049B000FB681B681A68FB681B6822F480621A6037
:1049C000FB681B681A69FB685B6AD2B21A70FB68E5
:1049D0005B6A5A1CFB685A62FB681B8D013B9AB2EA
:1049E000FB681A85FB685B8D9BB2013B9AB2FB6842
:1049F0005A857B6A0093BB6B00225549F86800F02A
:104A000027FA0346002B01D001239DE0FB681B68B9
:104A10001A68FB681B6842F400721A60FB681B6826
:104A20001A69FB685B6AD2B21A70FB685B6A5A1C2F
:104A3000FB685A62FB681B8D013B9AB2FB681A85C2
:104A4000FB685B8D9BB2013B9AB2FB685A85FB68A1
:104A50001B681A69FB685B6AD2B21A70FB685B6AF2
:104A60005A1CFB685A62FB681B8D013B9AB2FB68BB
:104A70001A85FB685B8D9BB2013B9AB2FB685A8535
:104A80004EE07A6AB96BF86800F08CFB0346002BA5
:104A900001D0012358E0FB681B681A69FB685B6A58
:104AA000D2B21A70FB685B6A5A1CFB685A62FB68D8
:104AB0001B8D013B9AB2FB681A85FB685B8D9BB22C
:104AC000013B9AB2FB685A85FB681B685B6903F07F
:104AD0000403042B24D1FB681B8D032B07D1FB6837
:104AE0001B681A68FB681B6822F480621A60FB6806
:104AF0001B681A69FB685B6AD2B21A70FB685B6A52
:104B00005A1CFB685A62FB681B8D013B9AB2FB681A
:104B10001A85FB685B8D9BB2013B9AB2FB685A8594
:104B2000FB681B8D002B7FF4B6AEFB68202283F858
:104B30003D20FB68002283F83E20FB68002283F8BA
:104B40003C20002300E0022318462837BD4680BDE4
:104B50000400010080B588B002AFF8600846114635
:104B60001A4603467B810B463B811346FB80FB685C
:104B70001B681A68FB681B6842F480721A607B6AC3
:104B800000933B6A00224FF00111F86800F060F9D1
:104B90000346002B0DD0FB681B681B6803F4807371
:104BA000B3F5807F03D1FB684FF400721A640323CE
:104BB0005FE07B89DBB21A46FB681B6802F0FE02ED
:104BC0001A617B6A3A6A2D49F86800F0BBF903461E
:104BD000002B01D001234CE000237B61FB681B68A4
:104BE0005B697B61FB681B689B697B617B697A6A97
:104BF000396AF86800F046FA0346002B0DD0FB68CE
:104C00001B6C042B07D1FB681B681A68FB681B68C8
:104C100042F400721A6001232BE0FB88012B05D1BE
:104C20003B89DAB2FB681B681A6121E03B891B0AE9
:104C30009BB2DAB2FB681B681A617A6A396AF86853
:104C400000F020FA0346002B0DD0FB681B6C042BF0
:104C500007D1FB681B681A68FB681B6842F4007286
:104C60001A60012305E03B89DAB2FB681B681A6110
:104C7000002318461837BD4680BD00BF0200010062
:104C800080B588B002AFF860084611461A46034660
:104C90007B810B463B811346FB80FB681B681A68CF
:104CA000FB681B6842F480621A60FB681B681A6824
:104CB000FB681B6842F480721A607B6A00933B6A4F
:104CC00000224FF00111F86800F0C2F80346002BF3
:104CD0000DD0FB681B681B6803F48073B3F5807FFD
:104CE00003D1FB684FF400721A640323AAE07B89A6
:104CF000DBB21A46FB681B6802F0FE021A617B6A8F
:104D00003A6A5249F86800F01DF90346002B01D0B9
:104D1000012397E000237B61FB681B685B697B6173
:104D2000FB681B689B697B617B697A6A396AF868F2
:104D300000F0A8F90346002B0DD0FB681B6C042B78
:104D400007D1FB681B681A68FB681B6842F4007295
:104D50001A60012376E0FB88012B05D13B89DAB28A
:104D6000FB681B681A6121E03B891B0A9BB2DAB21F
:104D7000FB681B681A617A6A396AF86800F082F980
:104D80000346002B0DD0FB681B6C042B07D1FB687E
:104D90001B681A68FB681B6842F400721A600123E2
:104DA00050E03B89DAB2FB681B681A617A6A396A9B
:104DB000F86800F067F90346002B0DD0FB681B6C08
:104DC000042B07D1FB681B681A68FB681B6842F458
:104DD00000721A60012335E0FB681B681A68FB68E3
:104DE0001B6842F480721A607B6A00933B6A00225F
:104DF0004FF00111F86800F02BF80346002B0DD09E
:104E0000FB681B681B6803F48073B3F5807F03D1D4
:104E1000FB684FF400721A64032313E07B89DBB252
:104E200043F00103DAB2FB681B681A617B6A3A6AD5
:104E30000649F86800F086F80346002B01D00123EC
:104E400000E0002318461837BD4680BD020001006F
:104E500080B584B000AFF860B9603B601346FB7169
:104E600048E03B68B3F1FF3F44D0FEF745FB024604
:104E7000BB69D31A3A689A4202D33B68002B39D1F6
:104E8000BB681B0CDBB2012B0DD1FB681B685B6997
:104E9000DA43BB6813409BB2002B0CBF01230023F5
:104EA000DBB21A460CE0FB681B689B69DA43BB68FF
:104EB00013409BB2002B0CBF01230023DBB21A4628
:104EC000FB799A4216D1FB6800221A63FB68202204
:104ED00083F83D20FB68002283F83E20FB681B6CB2
:104EE00043F02002FB681A64FB68002283F83C2030
:104EF000012323E0BB681B0CDBB2012B0DD1FB6847
:104F00001B685B69DA43BB6813409BB2002B0CBF84
:104F100001230023DBB21A460CE0FB681B689B6987
:104F2000DA43BB6813409BB2002B0CBF0123002364
:104F3000DBB21A46FB799A4293D000231846103709
:104F4000BD4680BD80B584B000AFF860B9607A60BE
:104F50003B6071E0FB681B685B6903F48063B3F539
:104F6000806F23D1FB681B681A68FB681B6842F4DA
:104F700000721A60FB681B686FF480625A61FB68FC
:104F800000221A63FB68202283F83D20FB68002280
:104F900083F83E20FB681B6C43F00402FB681A6434
:104FA000FB68002283F83C20012367E07B68B3F1B3
:104FB000FF3F41D0FEF7A0FA02463B68D31A7A6859
:104FC0009A4202D37B68002B36D1BB681B0CDBB244
:104FD000012B0CD1FB681B685B69DA43BB6813408B
:104FE0009BB2002B14BF01230023DBB20BE0FB6854
:104FF0001B689B69DA43BB6813409BB2002B14BF4C
:1050000001230023DBB2002B16D0FB6800221A63B9
:10501000FB68202283F83D20FB68002283F83E20B5
:10502000FB681B6C43F02002FB681A64FB680022DB
:1050300083F83C20012321E0BB681B0CDBB2012B71
:105040000CD1FB681B685B69DA43BB6813409BB2F9
:10505000002B14BF01230023DBB20BE0FB681B68AD
:105060009B69DA43BB6813409BB2002B14BF01233A
:105070000023DBB2002B7FF46DAF002318461037FE
:10508000BD4680BD80B584B000AFF860B9607A607D
:1050900034E0F86800F0E3F80346002B01D0012368
:1050A00034E0BB68B3F1FF3F28D0FEF725FA024693
:1050B0007B68D31ABA689A4202D3BB68002B1DD111
:1050C000FB681B685B6903F08003802B16D0FB68CC
:1050D00000221A63FB68202283F83D20FB6800222F
:1050E00083F83E20FB681B6C43F02002FB681A64C7
:1050F000FB68002283F83C20012307E0FB681B6863
:105100005B6903F08003802BC3D10023184610375E
:10511000BD4680BD80B584B000AFF860B9607A60EC
:1051200034E0F86800F09BF80346002B01D001231F
:1051300034E0BB68B3F1FF3F28D0FEF7DDF902464B
:105140007B68D31ABA689A4202D3BB68002B1DD180
:10515000FB681B685B6903F00403042B16D0FB6833
:1051600000221A63FB68202283F83D20FB6800229E
:1051700083F83E20FB681B6C43F02002FB681A6436
:10518000FB68002283F83C20012307E0FB681B68D2
:105190005B6903F00403042BC3D1002318461037C6
:1051A000BD4680BD80B584B000AFF860B9607A605C
:1051B00049E0FB681B685B6903F01003102B19D1F1
:1051C000FB681B686FF010025A61FB6800221A63CB
:1051D000FB68202283F83D20FB68002283F83E20F4
:1051E000FB681A6CFB681A64FB68002283F83C2099
:1051F000012330E0FEF780F902467B68D31ABA68D3
:105200009A4202D3BB68002B1DD1FB681B685B6907
:1052100003F04003402B16D0FB6800221A63FB68A2
:10522000202283F83D20FB68002283F83E20FB68A3
:105230001B6C43F02002FB681A64FB68002283F8B1
:105240003C20012307E0FB681B685B6903F0400317
:10525000402BAED1002318461037BD4680BD80B428
:1052600083B000AF78607B681B685B6903F4806380
:10527000B3F5806F1BD17B681B686FF480625A6145
:105280007B6800221A637B68202283F83D207B68BC
:10529000002283F83E207B681B6C43F004027B688D
:1052A0001A647B68002283F83C20012300E000237D
:1052B00018460C37BD465DF8047B704780B586B054
:1052C00000AF78607B68002B01D1012367E27B6827
:1052D0001B6803F00103002B75D0884B9B6803F01B
:1052E0000C03042B0CD0854B9B6803F00C03082B9C
:1052F00012D1824B5B6803F48003B3F5800F0BD1AE
:105300007E4B1B6803F40033002B5BD07B685B682B
:10531000002B57D1012342E27B685B68B3F5803FE5
:1053200006D1764B1B68754A43F4803313601DE049
:105330007B685B68B3F5A02F0CD1704B1B686F4A7C
:1053400043F4802313606D4B1B686C4A43F4803335
:1053500013600BE0694B1B68684A23F480331360C9
:10536000664B1B68654A23F4802313607B685B6887
:10537000002B13D0FEF7C0F8386108E0FEF7BCF848
:1053800002463B69D31A642B01D9032307E25B4B26
:105390001B6803F40033002BF0D014E0FEF7ACF8E8
:1053A000386108E0FEF7A8F802463B69D31A642B7F
:1053B00001D90323F3E1514B1B6803F40033002BA5
:1053C000F0D100E000BF7B681B6803F00203002BF4
:1053D00063D04A4B9B6803F00C03002B0BD0474B68
:1053E0009B6803F00C03082B1CD1444B5B6803F44F
:1053F0008003002B16D1414B1B6803F00203002BE6
:1054000005D07B68DB68012B01D00123C7E13B4B52
:105410001B6823F0F8027B681B69DB0037491343E4
:105420000B603AE07B68DB68002B20D0344B012214
:105430001A60FEF761F8386108E0FEF75DF8024691
:105440003B69D31A022B01D90323A8E12B4B1B681C
:1054500003F00203002BF0D0284B1B6823F0F80266
:105460007B681B69DB00254913430B6015E0244B67
:1054700000221A60FEF740F8386108E0FEF73CF8B9
:1054800002463B69D31A022B01D9032387E11B4B48
:105490001B6803F00203002BF0D17B681B6803F04C
:1054A0000803002B36D07B685B69002B16D0154BA8
:1054B00001221A60FEF720F8386108E0FEF71CF8B8
:1054C00002463B69D31A022B01D9032367E10B4B38
:1054D0005B6F03F00203002BF0D01BE0094B0022AE
:1054E0001A60FEF709F838610EE0FEF705F802468B
:1054F0003B69D31A022B07D9032350E1003802403D
:1055000000004742800E4742884B5B6F03F0020366
:10551000002BEAD17B681B6803F00403002B00F02A
:1055200097800023FB75814B1B6C03F08053002B8D
:105530000FD10023BB607D4B1B6C7C4A43F0805332
:1055400013647A4B1B6C03F08053BB60BB68012370
:10555000FB75774B1B6803F48073002B18D1744BD9
:105560001B68734A43F480731360FDF7C5FF38610D
:1055700008E0FDF7C1FF02463B69D31A022B01D9AF
:1055800003230CE16A4B1B6803F48073002BF0D0FB
:105590007B689B68012B06D1644B1B6F634A43F009
:1055A000010313671CE07B689B68052B0CD15F4BE4
:1055B0001B6F5E4A43F0040313675C4B1B6F5B4A2F
:1055C00043F0010313670BE0584B1B6F574A23F05E
:1055D00001031367554B1B6F544A23F004031367F1
:1055E0007B689B68002B15D0FDF786FF38610AE0C9
:1055F000FDF782FF02463B69D31A41F2883293429B
:1056000001D90323CBE0494B1B6F03F00203002BAE
:10561000EED014E0FDF770FF38610AE0FDF76CFF93
:1056200002463B69D31A41F28832934201D90323DF
:10563000B5E03E4B1B6F03F00203002BEED1FB7D68
:10564000012B05D1394B1B6C384A23F0805313646E
:105650007B689B69002B00F0A180344B9B6803F0B2
:105660000C03082B5CD07B689B69022B41D1314B2A
:1056700000221A60FDF740FF386108E0FDF73CFFAB
:1056800002463B69D31A022B01D9032387E0274B3B
:105690001B6803F00073002BF0D17B68DA697B682C
:1056A0001B6A1A437B685B6A9B011A437B689B6A8F
:1056B0005B08013B1B041A437B68DB6A1B061B4922
:1056C00013434B601B4B01221A60FDF715FF386135
:1056D00008E0FDF711FF02463B69D31A022B01D9FE
:1056E00003235CE0114B1B6803F00073002BF0D028
:1056F00054E0104B00221A60FDF7FEFE386108E00E
:10570000FDF7FAFE02463B69D31A022B01D90323A7
:1057100045E0064B1B6803F00073002BF0D13DE021
:105720007B689B69012B07D1012338E000380240D8
:1057300000700040600047421B4B5B68FB607B6869
:105740009B69012B28D0FB6803F480027B68DB692E
:105750009A4221D1FB6803F03F027B681B6A9A42A0
:105760001AD1FA6847F6C07313407A68526A9201F8
:10577000934211D1FB6803F440327B689B6A5B085B
:10578000013B1B049A4207D1FB6803F070627B68FF
:10579000DB6A1B069A4201D0012300E00023184671
:1057A0001837BD4680BD00BF0038024080B584B0C8
:1057B00000AF786039607B68002B01D10123CCE019
:1057C000684B1B6803F007033A689A420CD9654B93
:1057D0003A68D2B21A70634B1B6803F007033A6849
:1057E0009A4201D00123B8E07B681B6803F00203F2
:1057F000002B20D07B681B6803F00403002B05D02E
:10580000594B9B68584A43F4E05393607B681B688C
:1058100003F00803002B05D0534B9B68524A43F416
:1058200060439360504B9B6823F0F0027B689B6859
:105830004D4913438B607B681B6803F00103002B09
:1058400044D07B685B68012B07D1474B1B6803F48E
:105850000033002B19D101237FE07B685B68022BAA
:1058600003D07B685B68032B07D13F4B1B6803F0B9
:105870000073002B09D101236FE03B4B1B6803F041
:105880000203002B01D1012367E0374B9B6823F013
:1058900003027B685B68344913438B60FDF72CFE81
:1058A000F8600AE0FDF728FE0246FB68D31A41F2D1
:1058B0008832934201D903234FE02B4B9B6803F0BE
:1058C0000C027B685B689B009A42EBD1254B1B68FE
:1058D00003F007033A689A420CD2224B3A68D2B2DC
:1058E0001A70204B1B6803F007033A689A4201D0F4
:1058F000012332E07B681B6803F00403002B08D00F
:10590000194B9B6823F4E0527B68DB68164913430C
:105910008B607B681B6803F00803002B09D0124BD7
:105920009B6823F460427B681B69DB000E491343CC
:105930008B6000F021F802460B4B9B681B0903F0BB
:105940000F030A49CB5C22FA03F3094A1360094B9F
:105950001B681846FDF78CFD002318461037BD461E
:1059600080BD00BF003C024000380240B454010832
:10597000B0C60020B4C600202DE9B04F90B000AFF3
:1059800000237B630023FB6300233B630023BB6393
:10599000594B9B6803F00C03082B0DD0082B00F229
:1059A000A180002B02D0042B03D09BE0534BBB63A0
:1059B0009BE0534BBB6398E04F4B5B6803F03F03A6
:1059C0007B634D4B5B6803F48003002B28D04A4B6C
:1059D0005B689B0900223B627A623B6AC3F3080062
:1059E0000021474B03FB01F2002300FB03F31344A8
:1059F000434AA0FB0212FA620A46BA62FA6A1344E8
:105A0000FB627B6B0022BB61FA61D7E90623D7E911
:105A10000A01FBF721F902460B461346FB6353E0EC
:105A2000354B5B689B0900223B617A613B69C3F39C
:105A3000080A4FF0000B52465B464FF000004FF053
:105A40000001590141EAD261500102460B46B2EB16
:105A50000A0863EB0B094FF000024FF000034FEA16
:105A6000891343EA98634FEA8812B2EB080463EBA8
:105A700009054FF000024FF00003EB0043EA5473B6
:105A8000E20014461D4614EB0A033B6045EB0B0392
:105A90007B604FF000024FF00003D7E90045294634
:105AA0008B02214643EA915321468A021046194649
:105AB0007B6B0022BB60FA60D7E90223FBF7CCF8CE
:105AC00002460B461346FB630B4B5B681B0C03F053
:105AD000030301335B003B63FA6B3B6BB2FBF3F3F5
